:020000040800F2
:1000000038230020690200087702000879020008FE
:100010007B0200087D0200087F020008000000004B
:100020000000000000000000000000008102000845
:100030008302000800000000850200088702000813
:100040008902000889020008890200088902000864
:100050008902000889020008890200088902000854
:100060008902000889020008890200088902000844
:10007000C903000805040008410400087D040008C5
:10008000B9040008F5040008890200088902000884
:100090008902000889020008890200088902000814
:1000A0008902000889020008890200088902000804
:1000B00089020008890200088902000889020008F4
:1000C00089020008890200088902000889020008E4
:1000D00089020008B905000849070008D10800088E
:1000E00089020008890200088902000889020008C4
:1000F00089020008890200088902000889020008B4
:10010000000000000000000000000000890200085C
:100110008902000889020008A50500088902000874
:100120008902000889020008890200088902000883
:100130008902000889020008000000000000000099
:1001400089020008890200088902000800000000F6
:10015000000000000000000000000000000000009F
:100160000000000000000000890200088902000869
:1001700089020008000000000000000000000000EC
:10018000000000008902000800F002F800F05CF8AE
:100190000AA090E8000C82448344AAF10107DA45E2
:1001A00001D100F051F8AFF2090EBAE80F0013F0D8
:1001B000010F18BFFB1A43F00103184764810000C8
:1001C000848100000A444FF0000C10F8013B13F04A
:1001D000070408BF10F8014B1D1108BF10F8015BA0
:1001E000641E05D010F8016B641E01F8016BF9D193
:1001F00013F0080F1EBF10F8014BAD1C0C1B09D1EA
:100200006D1E58BF01F801CBFAD505E014F8016B5B
:1002100001F8016B6D1EF9D59142D6D370470000ED
:100220000023002400250026103A28BF78C1FBD8FF
:10023000520728BF30C148BF0B6070471FB507F099
:10024000CFFE1FBD10B510BD00F05CF81146FFF7E2
:10025000F5FF03F003FC00F07AF803B4FFF7F2FFB8
:1002600003BC00F081F800000B48016841F4700104
:1002700001600A480047FEE7FEE7FEE7FEE7FEE70B
:10028000FEE7FEE7FEE7FEE7FEE70000044805495B
:10029000054A064B7047000088ED00E08901000820
:1002A000380B002038230020381700203817002092
:1002B0004FF0000200B5134694469646203922BFFF
:1002C000A0E80C50A0E80C50B1F12001BFF4F7AF4A
:1002D000090728BFA0E80C5048BF0CC05DF804EB2C
:1002E000890028BF40F8042B08BF704748BF20F89A
:1002F000022B11F0804F18BF00F8012B7047704798
:1003000070477047754600F02BF8AE460500694609
:10031000534620F00700854618B020B5FFF7B6FF1A
:10032000BDE820404FF000064FF000074FF00008F6
:100330004FF0000B21F00701AC46ACE8C009ACE877
:10034000C009ACE8C009ACE8C0098D46704710B5DB
:100350000446AFF300802046BDE81040FFF77DBFA4
:1003600000487047D80A002001491820ABBEFEE7BC
:10037000260002007047F0B502460024002300204A
:10038000002500BF1CE00024012012E052F820707C
:10039000461E52F82660B74209DA461E52F8265029
:1003A00052F8207042F8267042F820500124461C72
:1003B000F0B2CE1A8642E9DC04B9F0BD5E1CF3B29D
:1003C0008B42E0DB00BFF8E710B50A4A11680A4A21
:1003D000106801F0DFF860B10749086801F0CEF855
:1003E00006490868064901F07EFF0249086801F0E5
:1003F00035F810BDE082000808060020CC0500207A
:100400000601060010B50A4A11680A4A106801F090
:10041000C1F860B10749086801F0B0F806490868FA
:10042000064901F060FF0249086801F017F810BDA5
:10043000E082000808060020CC0500200601060026
:1004400010B50A4A91680A4A906801F0A3F860B1B1
:100450000749886801F092F806498868064901F062
:1004600042FF0249886800F0F9FF10BDE0820008F1
:1004700008060020CC0500200601060010B50A4A37
:1004800091680A4A906801F085F860B10749886868
:1004900001F074F806498868064901F024FF024912
:1004A000886800F0DBFF10BDE0820008080600202D
:1004B000CC0500200601060010B50A4A51680A4A18
:1004C000506801F067F860B10749486801F056F8D4
:1004D00006494868064901F006FF0249486800F0ED
:1004E000BDFF10BDE082000808060020CC050020FA
:1004F0000601060010B50A4A51680A4A506801F020
:1005000049F860B10749486801F038F80649486879
:10051000064901F0E8FE0249486800F09FFF10BD5F
:10052000E082000808060020CC0500200601060035
:1005300010B5014600200D4B1B880C4CA4882344A9
:100540000A4C248923449AB2094B1A6040F2E5739D
:100550005343C3F30B02914206D1064B196042F29A
:10056000CD03054C2360012010BD0000440800208D
:1005700020000020240000202800002070B1084A3C
:1005800052F8212012680260054A52F82120526870
:100590004260034A52F8212092688260704700004E
:1005A0002C00002010B50121024801F02FFD00F0C1
:1005B00063FC10BD0010004038B55C488068C0691D
:1005C00000900098C0F3C02038B358498868584953
:1005D00001F0AAFD5749886800F0D0FF55498868A6
:1005E00001F00AF85449B1F88C10081A81B2524847
:1005F000C06F018001215048D0F8800001704E4B3F
:10060000B3F88C20D3F888104A4B986800F00CFFA0
:100610004849886800F0B7FF87E00098C0F34010B1
:10062000A0B142498868454901F07EFD3F4988688C
:1006300001F083FE4049CB6FC96F891C3E4AD167E8
:100640001A883D49D1F8881088546EE00098C0F3AC
:10065000C01020B90098C0F3801000284DD0009839
:10066000C0F38010B0B131498868354901F05CFDB4
:100670000021314880F8771090F87100042804D0E8
:100680002D4890F8710005284FD12B48703002F0AA
:100690006BFC4AE00098C0F3C010002845D0234905
:1006A0008868284901F040FD2348B0F87A10B0F876
:1006B000780081420FDB1D498868224901F0F9FD6D
:1006C0001A4988681E4901F02FFD184988681C499D
:1006D00001F009FE29E0184AB2F87A30B2F87A201F
:1006E000521C94B2144AA2F87A40D2F88420D15C09
:1006F0000E4A906801F066FE17E0009800F00100D5
:1007000078B90098C0F3400058B90098C0F3800051
:1007100038B90098C0F3C00018B90098C0F30020A1
:1007200018B10548703002F099FA38BDCC050020A8
:100730001A010B00200600202C06002005010500F0
:10074000060106000701070038B55A484068C0692D
:1007500000900098C0F3C02028B356494868564915
:1007600001F0E2FC5549486800F008FF5349486829
:1007700000F042FF5249B1F85410081A81B25048B3
:10078000406C018001214E48806C01704C4BB3F8E5
:100790005420196D494B586800F046FE4749486897
:1007A00000F0F1FE85E00098C0F3401098B1414997
:1007B0004868444901F0B8FC3E49486801F0BDFD75
:1007C0003F494B6C496C891C3D4A51641A883C492D
:1007D000096D88546DE00098C0F3C01020B90098EE
:1007E000C0F3801000284CD00098C0F38010B0B146
:1007F00030494868344901F097FC0021304880F8BE
:100800003F1090F83900042804D02D4890F83900A2
:1008100005284ED12A48383002F0A6FB49E000985E
:10082000C0F3C010002844D022494868274901F08D
:100830007BFC2348B0F84210B0F8400081420FDB47
:100840001C494868214901F034FD1A4948681E498D
:1008500001F06AFC174948681B4901F044FD28E093
:10086000174AB2F84230B2F84220521C94B2144AED
:10087000A2F84240D26CD15C0E4A506801F0A2FD51
:1008800017E0009800F0010078B90098C0F340002C
:1008900058B90098C0F3800038B90098C0F3C00080
:1008A00018B90098C0F3002018B10548383002F09C
:1008B000D5F938BDCC0500201A010B002006002018
:1008C0002C060020050105000601060007010700AF
:1008D00038B555480068C06900900098C0F3C02042
:1008E00010B351490868514901F01EFC504908688D
:1008F00000F044FE4E49086800F07EFE4D49898BA9
:10090000081A4C49C968088001204A4909690870D9
:10091000484B9A8B9969464B186800F085FD44490D
:10092000086800F030FE7EE00098C0F34010A0B1EF
:100930003D490868404901F0F7FB3B49086801F070
:10094000FCFC3C49C9680A883A49C968891C394B8A
:10095000D96019468969885465E00098C0F3C010D1
:1009600020B90098C0F38010002845D00098C0F34B
:10097000801098B12C490868304901F0D5FB00205F
:100980002C49C87108464078042803D008464078AE
:10099000052848D1274802F0E7FA44E00098C0F360
:1009A000C01000283FD020490868254901F0BCFB51
:1009B000204840891F49098988420FDB1A49086885
:1009C0001F4901F076FC184908681C4901F0ACFB8E
:1009D00015490868194901F086FC24E0154A538935
:1009E0005289521C134C628122465269D15C0E4AD4
:1009F000106801F0E7FC16E0009800F0010078B9FB
:100A00000098C0F3400058B90098C0F3800038B98E
:100A10000098C0F3C00018B90098C0F3002010B1CE
:100A2000044802F01BF938BDCC0500201A010B0068
:100A3000200600202C060020050105000601060006
:100A40000701070010B50446074801680068401C0C
:100A5000054A1060B1FBF4F004FB101010B900203F
:100A600001F0EEFE10BD00000800002010B568483F
:100A70000088012813D1674801880088401C654A16
:100A8000108040F6AC50814209DB002060490880AC
:100A90000620614908700020887003F0BDF95E48A7
:100AA0000078082871D2DFE800F0040C718283839B
:100AB000144B002003F0BCF80020574981F8460091
:100AC00077E0002003F0B4F80120534981F8460094
:100AD0006FE00120504981F846000846B0F84A000E
:100AE000062190FBF1F04C49A1F8480008468078B7
:100AF00010BB012003F09CF8002003F09BF90128B3
:100B00000AD1002003F088F9002003F0A1F90128A0
:100B100002D19620414908704048007800280EDD37
:100B20003E480078401E3D4908700846007830B9BC
:100B300001203949887002E0002003F079F838E09C
:100B40003548807890B9002003F074F901280DD160
:100B5000002003F061F9002003F07AF9012813D195
:100B60002D49887096202D4908700DE02A4880781C
:100B7000012809D129480078401EC0B227490870D1
:100B800010B901202449087013E011E0012003F09E
:100B90004FF80120204981F846002148B0F8A40010
:100BA000A1F84800002088700320087001E000E0F0
:100BB00000BF00BF022003F03DF901280CD1022044
:100BC00003F02AF9022003F043F9B0B900201249DA
:100BD00081F84700086510E0012003F02BF9012897
:100BE0000BD103F019F9012003F032F928B90120E3
:100BF000094981F8470000200865074BB3F84820F1
:100C000093F8471093F84600002302F04BFF10BD05
:100C100086050020880500202C0500208405002082
:100C20005400002010B5714890ED010A80ED040ACF
:100C3000D0ED040A008900EE100AB8EE400A20EE5A
:100C4000800A6A4880ED040A90ED040ADFED680A24
:100C500080EE201A80ED041AD0ED040A90ED030A0C
:100C6000B8EEC00A20EE800A80ED040A90ED070A73
:100C7000B8EEC00AD0ED050A20EE200ABCEEC00A8C
:100C800010EE100A59490884084690ED070AB8EE9C
:100C9000C00AD0ED060A20EE200ABCEEC00A10EE13
:100CA000100A4884084690ED040AF0EE000A20EE8F
:100CB000200A80ED090A408C098C401A4B49C96909
:100CC000084400EE100AB8EEC00A4848D0ED090A00
:100CD00080EE801A80ED091AD0ED090A008C00EE32
:100CE000100AB8EE400A80EE801A404880ED0A1AD9
:100CF0009FED400A80ED0B0A008C3C4908860846AF
:100D000090ED090ABCEEC00A10EE100A81B2374815
:100D1000418690ED090ABCEEC00A10EE100A80B2BE
:100D2000401C00EE100AB8EEC00A3048D0ED090AA7
:100D300070EE600A408C2D49098C401A00EE100AB2
:100D4000B8EEC00A20EE800ABCEEC00A10EE100A0F
:100D500081B226488186018C808E084481B2234866
:100D6000C18690ED090ABCEEC00A10EE100A401CC4
:100D700081B21E480187408C1C49098C411A1B48CE
:100D8000808E081A81B219484187C0691749498C79
:100D9000401A00EE100AB8EEC00A1448D0ED090A55
:100DA00080EE801AB1EE410A80ED0F0A90ED0F0A35
:100DB000F1EE400A90ED070AB8EEC00A20EE800A74
:100DC00080ED100A0020094981F8460081F84700AB
:100DD0003220A1F848000B46B3F8482093F847109A
:100DE00093F84600002302F05DFE10BD2C050020A4
:100DF0000000B44300000000014908707047000083
:100E00002C05002010B504460E48806F012807D03D
:100E1000042001F005FD02210B48A0F8CA1210E0E1
:100E2000012C07D1042001F0FBFC01210648A0F8A9
:100E3000CA1206E0042001F0E3FC00210248A0F8F9
:100E4000CA1210BD540000202801002010B5084827
:100E5000007801280AD10748006840F6E44188423A
:100E600004D300200249087002F09EFC10BD00006F
:100E7000040000200000002010B500241048006885
:100E8000401C0F49086000BF4AF6AA200D4908809F
:100E900000BF4FF47A70FFF7D5FDFFF7D7FF02F0E0
:100EA0001BFD02F0E3FF02F00FFA012802D102F06D
:100EB0007FF9044606F0EEF8FFF7D8FD10BD0000FC
:100EC000000000200030004070B5054600242A488C
:100ED0000078052844D2DFE800F0031A1E2B350005
:100EE0002648B0F8C80248B12448B0F8C802012822
:100EF00004D0062002F0E0FC012803D101201E49A5
:100F0000087003E000201C49087001242CE0022036
:100F10001949087028E00B2004F0B8F8012806D120
:100F20000B20164981F864020320134908701BE066
:100F30000620FFF761FF0120FFF764FF04200E4940
:100F4000087011E0012312220D494FF4405003F0C4
:100F500065FD012803D1002007490870012403E042
:100F600000200549087000BF00BF012C02D10020FD
:100F700001490870204670BDF104002028010020BE
:100F8000D4030020F0B502460D46FF21FF240020C7
:100F900009E0167886EA04030A4EF65C86EA010444
:100FA000094EF15C521C2E1EA5F10105F1D1084637
:100FB0004FF6FF7606EA002000F47F400619B0B233
:100FC000F0BD00001C8000081C81000870B50024E2
:100FD00000258348B0F81A02012801DD002070BD09
:100FE0007F48B0F81A0218B901207E4908700AE05B
:100FF0007B48B0F81A02012805DC794890F81A02FB
:10100000401E784908707848007830B101283CD0FB
:10101000022874D0032871D1A9E07148D0F84C029D
:101020006F49D1F84812884208D96D48D0F84C026F
:101030006B49D1F84812401A322810D26848D0F8CB
:101040004C026749D1F8481288421DD26448D0F852
:1010500048026349D1F84C12401A322814D361482F
:10106000007800EB8000614901EB001000F11404EE
:1010700000230A2221464FF40C5006F057FC5A4830
:101080000078401C58490870A6E05548D0F84C023A
:101090005349D1F84812884208D95148D0F84C0237
:1010A0004F49D1F84812401A322810D24C48D0F893
:1010B0004C024B49D1F8481288421DD24848D0F81A
:1010C00048024749D1F84C12401A322814D34548F7
:1010D000007800EB8000454901EB001000F1280486
:1010E00000230A2221464FF4105006F01FFC3E4810
:1010F0000078401C3C4908706EE000E067E038482A
:10110000D0F84C023649D1F84812884208D9344800
:10111000D0F84C023249D1F84812401A322810D285
:101120002F48D0F84C022E49D1F8481288421DD2DF
:101130002B48D0F848022A49D1F84C12401A3228DC
:1011400014D32848007800EB8000284901EB0010F8
:1011500000F13C0400230A2221464FF4085006F017
:10116000E5FB21480078401C1F49087034E01C480A
:10117000D0F84C021A49D1F84812884208D91848C8
:10118000D0F84C021649D1F84812401A322810D231
:101190001348D0F84C021249D1F84812884215D2AF
:1011A0000F48D0F848020E49D1F84C12401A3228A4
:1011B0000CD30F4C0023012221464FF4045006F0BB
:1011C000B5FB09480078401C0749087004E000207E
:1011D00005490870012500BF00BF2846FFE6000052
:1011E00028010020800400207F040020D009002076
:1011F000420300202DE9F041064600270024002587
:101200005EBB00BF26E0384601F056FA05460024D2
:1012100006E0002105F1340040F82410601CC4B23F
:101220000A2CF6DB002411E09FED210A05F1840071
:1012300000EB840080ED000A9FED1D0A05F1B0006F
:1012400000EB840080ED000A601CC4B20B2CEBDBC9
:10125000781CC7B2012FD6DB28E0012E26DC701ED9
:10126000C7B2384601F028FA0546002406E00021FE
:1012700005F1340040F82410601CC4B20A2CF6DBDF
:10128000002411E09FED0A0A05F1840000EB8400C0
:1012900080ED000A9FED060A05F1B00000EB840026
:1012A00080ED000A601CC4B20B2CEBDBBDE8F081C2
:1012B0000000000030B5024600210020E2B900BF66
:1012C00017E0002011E0002401EB8103184D05EB2D
:1012D0000313143323F8104001EB810305EB0313D0
:1012E000283323F81040431CD8B20A28EBDB4B1CF0
:1012F000D9B20229E5DB19E0012A17DC531ED9B265
:10130000002011E0002401EB8103094D05EB0313DC
:10131000143323F8104001EB810305EB031328334A
:1013200023F81040431CD8B20A28EBDB30BD000084
:10133000D0090020024989680143014A9160704741
:10134000002004E00249C9680143014AD1607047A6
:10135000002004E04FF0E020006920F004004FF08E
:10136000E02108610A4880680A49B0FBF1F0C0F347
:10137000CF00094908800846008800EB4001C1EB16
:10138000C0104FF6FF7101EAC000044908807047A1
:10139000B40A002040420F008A0500208C0500207E
:1013A00001460F4A12884A434FF0E0235A61002257
:1013B0009A611A46126922F00102521C1A6100BF9A
:1013C0004FF0E022106900F001021AB100F48032FF
:1013D000002AF5D000224FF0E0231A619A6170478D
:1013E0008C05002001460F4A12884A434FF0E02343
:1013F0005A6100229A611A46126922F00102521CB7
:101400001A6100BF4FF0E022106900F001021AB12A
:1014100000F48032002AF5D000224FF0E0231A6158
:101420009A6170478A050020436862F30F034360A6
:10143000C16070470021002200F080520AB10121F2
:1014400000E0002111B1034B186001E0024B58602D
:10145000704700000404024000000240002200F037
:1014600000420AB1024900E00249486070470000AA
:101470000004024000000240016821F00101016007
:101480000021016041686FF30F014160002181601C
:10149000C1603849884204D10F21364A083A516068
:1014A00067E034491431884204D1F021314A083AC6
:1014B00051605EE02F492831884205D14FF47061B8
:1014C0002C4A083A516054E02A493C31884205D1FF
:1014D0004FF47041274A083A51604AE0254950319B
:1014E000884205D14FF47021224A083A516040E009
:1014F00020496431884205D14FF470011D4A083AF1
:10150000516036E01B497831884205D14FF0706157
:10151000184A083A51602CE01749884203D10F213C
:10152000021F116025E014491431884204D1F021D2
:10153000114A121F11601CE00F492831884205D161
:101540004FF470610C4A121F116012E00A493C31DD
:10155000884205D14FF47041074A121F116008E01C
:1015600005495031884204D14FF47021024A121FBC
:10157000116070470800024008040240016821F031
:10158000010101607047016821F00101491C0160FF
:1015900070470000F0B503460024A446002500264D
:1015A000002701F0004401F0E0404FEA107C0CB14C
:1015B0000F4A00E00F4A146804EA010008B101264E
:1015C00000E00026ACF101008000C1401D6805F07C
:1015D0000E0501EA050008B1012700E00027012FF0
:1015E00003D1012E01D10120F0BD0020FCE7000055
:1015F000000402400000024008B50146486800901F
:10160000009880B208BD2DE9F04704460D46164605
:10161000DDE9099ADDF820800B9F2046FFF72CFFBB
:10162000206820F480402060206868F34510206026
:1016300020686AF304102060206820F08000803069
:101640002060206820F040002060206867F38B2035
:101650002060206867F309202060206869F30D305E
:101660002060606863F30F006060E560A660BDE81D
:10167000F08702680A430260704708B5036823F0E8
:101680000103036006E003680093009B03F001037D
:1016900003B900E0F7E700BFC160436862F30F03DE
:1016A0004360036823F001035B1C036008BD08B5B9
:1016B000036823F00103036006E003680093009BC6
:1016C00003F0010303B900E0F7E700BFC16043681E
:1016D00062F30F034360036823F001035B1C0360A4
:1016E00008BD000030B50446042500F061F8054649
:1016F000042D16D10C48006920F00200801C0A4914
:10170000086108464461006920F0400040300861EB
:1017100000F04EF805460448006920F00200024936
:101720000861284630BD0000002002400420094A1C
:10173000D16801F001020AB101200AE001F01002B3
:101740000AB1022005E001F004020AB1032000E022
:1017500004207047002002400348006920F0800008
:1017600080300149086170470020024030B50023F5
:1017700006E00388801C048843EA044410C1801CEE
:10178000141EA2F10105AAB2F3D130BD05490869C2
:1017900000F0800121B10449024A516003495160BF
:1017A000704700000020024023016745AB89EFCD60
:1017B00010B54FF0FF330424FFF7B8FF044603E0F1
:1017C000FFF7B4FF04465B1E012C01D1002BF7D1BB
:1017D00003B90524204610BD2DE9F04104460D460D
:1017E000164604274FF00008FFF7E2FF0746042FD4
:1017F0002CD11848006920F00100401C15490861EF
:1018000000BF28882080FFF7D3FF0746042F09D1A7
:1018100004F102082868000CA8F80000FFF7C8FFD0
:10182000074606E00B48006920F0010009490861FD
:1018300005E0701E86B2241D2D1D002EE1D100BFD3
:101840000448006920F00100024908613846BDE8FB
:10185000F081000000200240F0B5002300244D0775
:10186000ED0E02FA05F308290BDA4E07F70E0F26E4
:10187000BE40056AB5430562056A45EA0304046291
:101880000AE04E07F70E0F26BE40456AB543456293
:10189000456A45EA03044462F0BD2DE9F0430C4675
:1018A000079E00210025002700BF60E04FF0010CDB
:1018B0000CFA01F504EA0507AF4257D14FEA410996
:1018C0004FF0030808FA09F8D0F800C02CEA080C19
:1018D000C0F800C04FEA41094FF0030808FA09F8C0
:1018E000D0F804C02CEA080CC0F804C04FEA410943
:1018F0004FF0030808FA09F8D0F80CC02CEA080CDD
:10190000C0F80CC04FEA41094FF0030808FA09F883
:10191000D0F808C02CEA080CC0F808C04FEA41090A
:101920004FF0020808FA09F8D0F800C04CEA080C99
:10193000C0F800C003FA01F8D0F804C04CEA080C63
:10194000C0F804C04FEA410802FA08F8D0F80CC009
:101950004CEA080CC0F80CC04FEA410806FA08F837
:10196000D0F808C04CEA080CC0F808C0491C10297F
:101970009CD3BDE8F083F0B50B4600210024002580
:1019800000BF25E0012606FA01F403EA0405A5429A
:101990001DD14FEA410C032707FA0CF70668BE4336
:1019A00006604FEA410C032707FA0CF7C668BE43EE
:1019B000C6604FEA410C002707FA0CF706683E4361
:1019C00006604F0002FA07F7C6683E43C660491C2E
:1019D0001029D7D3F0BD2DE9F0430C46079E002116
:1019E0000025002700BF60E04FF0010C0CFA01F564
:1019F00004EA0507AF4257D14FEA41094FF0030807
:101A000008FA09F8D0F800C02CEA080CC0F800C0A9
:101A10004FEA41094FF0030808FA09F8D0F804C06A
:101A20002CEA080CC0F804C04FEA41094FF0030843
:101A300008FA09F8D0F80CC02CEA080CC0F80CC061
:101A40004FEA41094FF0030808FA09F8D0F808C036
:101A50002CEA080CC0F808C04FEA41094FF0010811
:101A600008FA09F8D0F800C04CEA080CC0F800C029
:101A700003FA01F8D0F804C04CEA080CC0F804C01E
:101A80004FEA410802FA08F8D0F80CC04CEA080CFA
:101A9000C0F80CC04FEA410806FA08F8D0F808C0B0
:101AA0004CEA080CC0F808C0491C10299CD3BDE8BA
:101AB000F083028B0A4302837047000045F25551C0
:101AC000064A11801146496821F00701C91C51607E
:101AD000114688604CF6CC411180704700300040C0
:101AE00000F01F02012191404211920002F1E02218
:101AF000C2F800117047000070B5034600200025B1
:101B00000F240B4E366806F4E066C6F5E066C6F3B1
:101B10000720C0F10406F5B2044101FA05F6F0B25F
:101B200002EA040630430607300E024EF05470BD40
:101B30000CED00E000E400E0024949690143014A7C
:101B400051617047001002400249C9690143014ACE
:101B5000D161704700100240024909698143014A7E
:101B60001161704700100240024909690143014AAE
:101B70001161704700100240024989690143014A1E
:101B800091617047001002400249C9688143014ACF
:101B9000D1607047001002400249C9680143014A00
:101BA000D160704700100240F0B5054600210022C8
:101BB000002300240020384E367906F00C0121B1B4
:101BC000042906D0082922D108E0344E344F7E6023
:101BD00021E0334E3668324F7E601CE02E4E746832
:101BE000C4F300447068C0F383400E2801D2801C07
:101BF00000E010202CB12A4E3668760806FB00F370
:101C000002E0264E46437308254E736003E0234EE0
:101C1000234F7E6000BF00BF1F4E3679C6F303110D
:101C2000204E725C1E4E7668D6401D4FBE601A4E26
:101C3000B688C6F302211C4E725C3E46B668D6409A
:101C4000FE60154EB688C6F3C221174E725C3E4642
:101C5000B668D6403E613E46B668FF68BE4204D1D3
:101C60000F4EF6680E4F7E6104E00D4EF66876006A
:101C70000B4F7E610A4EB668094F3F69BE4204D1E0
:101C8000074E3669064FBE6104E0054E36697600A0
:101C9000034FBE61F0BD00000010024000127A0048
:101CA000B40A0020D8060020E80600202DE9F04FF5
:101CB00082460F4690469946DDF824B00024002560
:101CC0000026A848006840F47000A6490860A648AD
:101CD000006840F00100A449086008464068A34934
:101CE0000840A149486008460068A14908409E494B
:101CF00008600846006820F48020086008464068B4
:101D000020F4FE0048600846C06A20F00F00C86258
:101D10000846006B97490840934908630020886093
:101D2000002F73D11220944908608F48006820F07A
:101D30000100401C8C49086000BF00BF00BF6D1C43
:101D40008948046804F002041CB98C480068854284
:101D5000F5D38548046804F0020414B90120BDE8F5
:101D6000F08F8148406820F0F00070307E49486074
:101D70000846406869F30A204860084640686BF3EB
:101D8000CD2048600846406820F4803048604046D6
:101D90004FEAE87108EB9171C1F38F06102E02DA59
:101DA000B01E86B200E00F266F48406866F395408B
:101DB0006D4948600846006820F0807000F180702E
:101DC00008600024002500BF6D1C6748046804F00B
:101DD00000741CB9694800688542F5D962480468F6
:101DE00004F000740CB90220B9E75F48406820F0A5
:101DF0000300801C5C494860002400BF5A484468C6
:101E000004F00804082CF9D19FE0FFE75648C06AA7
:101E100020F00F005449C8620846006820F47F0093
:101E2000086000240025BAF1010F06D108460068B9
:101E300020F4802000F5802008604B48006820F4E2
:101E4000803000F580304849086000BF6D1C46486E
:101E5000046804F400341CB9484800688542F5D38E
:101E600047487843474908603F48046804F4003411
:101E70000CB9012073E74048006820F010001030D2
:101E80003D4908600846006820F00700801C086093
:101E90003548406820F0F00070303349486008460B
:101EA000406869F30A204860084640686BF3CD201B
:101EB00048600846406820F4003000F50030486073
:101EC0000846406820F4803000F5803048600026E5
:101ED000384607EBD071491098FBF1F18EB2102E05
:101EE00002DAB01E86B200E00F261F48406866F393
:101EF00095401D4948600846006820F0807000F158
:101F0000807008600024002500BF6D1C164804681E
:101F100004F000741CB9194800688542F5D31248D2
:101F2000046804F000740CB9022018E70E484068F9
:101F300020F00300801C0C494860002400BF0A48C0
:101F4000446804F00804082CF9D1064980390A983D
:101F500008600D48091D08600A48FFF725FE0020AB
:101F6000FDE6000088ED00E0001002400CC07FF8A4
:101F7000FFFFF6FECCFC00FF00200240F006002030
:101F800040420F00B40A00200005FA0530B51C4697
:101F900011B90025058517E0164DA8420BD0164D46
:101FA000A84208D0154DA84205D0154DA84202D030
:101FB000144DA84202D1144DAB6901E0124D6B697A
:101FC000B3FBF1F56D1E0585B0F1804F01D1C26202
:101FD00001E095B2C562056825F4407505600568A5
:101FE00064F30415056000250561056825F0010509
:101FF000056030BD002C014000340140004001402C
:102000000044014000480140B40A0020CA4392B293
:102010000261704710B504463448844206D1401529
:10202000FFF7BAFD6015FFF7AFFD5EE0B4F1804F3A
:1020300006D10120FFF798FD0120FFF78DFD54E048
:102040002B48844206D10220FFF78EFD0220FFF7C5
:1020500083FD4AE02748844206D10420FFF784FD2F
:102060000420FFF779FD40E02348844206D1102088
:10207000FFF77AFD1020FFF76FFD36E01F4884421E
:1020800006D12020FFF770FD2020FFF765FD2CE032
:102090001B48844206D14014FFF77EFD6014FFF711
:1020A00073FD22E01748844208D14FF48030FFF7D7
:1020B00073FD4FF48030FFF767FD16E0124884424D
:1020C00008D14FF40030FFF767FD4FF40030FFF701
:1020D0005BFD0AE00D48844207D14FF48020FFF7F2
:1020E0005BFD4FF48020FFF74FFD10BD002C014039
:1020F00000040040000800400010004000140040B0
:1021000000340140004001400044014000480140CB
:10211000016821F00101491C01607047C2680A434F
:10212000C26070470162704710B5002200230A0C9C
:1021300001249440A3B2036210BD000010B5044610
:102140001D48844208D14FF48040FFF725FD4FF42D
:102150008040FFF719FD2EE01848844208D14FF463
:102160000030FFF701FD4FF40030FFF7F5FC22E0EF
:102170001348844208D14FF48020FFF7F5FC4FF458
:102180008020FFF7E9FC16E00E48844208D14FF4A6
:102190000020FFF7E9FC4FF40020FFF7DDFC0AE028
:1021A0000948844207D14FF48010FFF7DDFC4FF45B
:1021B0008010FFF7D1FC10BD003801400044004002
:1021C00000480040004C004000500040816821F071
:1021D0004001403181607047816821F08001803189
:1021E000816070470246D069084008B101207047FD
:1021F0000020FCE72DE9F04104460F4615461E4637
:10220000DDF81880206820F0010020600020A06028
:10221000606866F30D306060206868F34A202060D3
:10222000206820F00400001D2060206820F00800D5
:1022300008302060606820F4000000F50000606055
:10224000606900F07F402330606175B1012D15D0C9
:10225000022D1ED1206820F480502060206820F0DC
:10226000805000F18050206014E0206820F48050FD
:102270002060206820F0805020600BE0206820F46F
:10228000805000F580502060206820F08050206051
:1022900000E000BF00BF3946204600F055F84FF07F
:1022A000FF302062206820F00100401C2060BDE863
:1022B000F08130B5002300240022C1F30723CCB203
:1022C000012505FA04F2022B03D1456895434560C8
:1022D00008E0032B03D185689543856002E005681B
:1022E0009543056030BD30B5002300240022C1F3C2
:1022F0000723CCB2012505FA04F2022B03D145686D
:102300001543456008E0032B03D1856815438560BC
:1023100002E005681543056030BD10B50B4600218D
:1023200008E000BF047FC4F3C014002CFAD05C5C4A
:102330008462491C9142F4D310BD08B50146486A35
:1023400000900098C0B208BD70B5002200230024A0
:10235000056825F001050560184DA84202D1184D09
:102360002A6901E0164DEA680588C5F3C03545B114
:102370005500B5FBF1F35500B5FBF1F601FB165422
:1023800005E0B2FBF1F3B2FBF1F501FB1524B4EB70
:10239000510F00D35B1C0588C5F3C03535B1C3F3BD
:1023A00042044FF6F0751D4045EA04039DB2C56036
:1023B000056825F001056D1C056070BD0038014001
:1023C000B40A00208162704770B5064600240025DB
:1023D0009248806F012803D19148B0F8CA0218B121
:1023E0008E48806F012870D08E48007810B1102878
:1023F0006CD1F6E08A48B0F87C02C82804D00320EB
:1024000001F03AFA01282BD18448B0F85C0001B2FF
:102410008348A0F8C2128148B0F85C008049A1F856
:102420006A020846B0F9AC027C49D1F880108842B3
:1024300007D37B48B0F9AC127848D0F884008142C9
:1024400001D9002500E001257448D0F8800000285B
:102450007FD17248D0F8840000287AD1012578E035
:102460006F48B0F87C02B0F5967F04D0042001F0EC
:1024700003FA01282BD16948B0F8600001B268481E
:10248000A0F8C2126548B0F860006549A1F86A0278
:102490000846B0F9AC126148D0F88800814207D3F1
:1024A0005F48B0F9AC125D48D0F88C00814201D988
:1024B000002500E001255948D0F8880088BB57481E
:1024C000D0F88C0068BB012543E09EE097E05448BB
:1024D000B0F87C02B0F5C87F04D0052001F0CCF93B
:1024E00001282AD14D48B0F8640001B24C48A0F848
:1024F000C2124A48B0F864004949A1F86A02084685
:10250000B0F9AC124548D0F89000814207D3444856
:10251000B0F9AC124148D0F89400814202D90025AC
:1025200001E016E001253D48D0F8900088B93B480D
:10253000D0F8940068B901250BE04FF45E7138487B
:10254000A0F8C2123548B0F85C003549A1F86A021B
:102550000025012D3DD10121292002F0ABFC0021F5
:102560002F48A0F8AE12A0F8B012A0F8B212A0F84E
:10257000B41290F8E012A0F8B61290F8E112A0F8A8
:10258000B81290F8E212A0F8BA120021A0F8BC121A
:10259000A0F8BE12A0F8C012B0F8AC12A0F8C41295
:1025A0000321A0F8C6120021A0F8C8121B48806FB2
:1025B000012803D00220FEF725FC02E00020FEF7F0
:1025C00021FC01211648A0F8CC12102015490870F2
:1025D00006E020201349087001212A2002F06AFC3D
:1025E00012E00E2002F052FD012807D10E200C4906
:1025F00081F8640200200B490870012404E00020E7
:1026000008490870012400BF00E00124012C02D118
:10261000002004490870204670BD000054000020CE
:1026200028010020F404002070B5054600241F484E
:10263000007805282ED2DFE800F003070B181F00F2
:1026400001201A49087029E002201849087025E085
:10265000132002F01BFD012806D11320144981F834
:10266000640203201149087018E00620FEF7C4FB3D
:1026700004200E49087011E0012312220D494FF485
:10268000405002F0CBF9012803D10020074908701F
:10269000012403E000200549087000BF00BF012CA1
:1026A00002D1002001490870204670BDF0040020CE
:1026B00028010020D403002001460548012906DA3C
:1026C00001EB8102C2EB8112034603EB82007047EB
:1026D000F406002070B5054600241748007820B1A4
:1026E00001281AD002281AD118E01448806F78B156
:1026F0001348B0F8CA02012803D10020FEF782FB7C
:1027000006E00F48B0F8CA0210B90120FEF77AFBC4
:10271000002009490870012405E004E003E00020DE
:102720000549087000BF00BF012C02D100200249FA
:102730000870204670BD0000F20400205400002004
:10274000280100201CB50446032003464822082126
:10275000CDE900040020FFF7A9FA1CBD10B5FEF773
:10276000F9FD10BD0146084B53F82120074B33F803
:102770001100136903400BB1012300E000230BB9E2
:10278000002070470120FCE7AC05002068820008AB
:1027900038B500240EE0144951F82400FFF7CCF9B5
:1027A000124A32F81410124A52F824000022FFF79D
:1027B000E2F8641C082CEED3002411E00D4951F816
:1027C0002400FFF7B9F900200B4A009032F81410EA
:1027D0000A4A52F8240000230122FFF7FCF8641C87
:1027E000072CEBD338BD000048820008688200083F
:1027F000AC0500201C8200083882000890050020EB
:1028000000B50346044A32F81310044A52F8230074
:10281000FFF74FF900BD0000388200089005002046
:10282000054B53F82010054B33F810204B8B134306
:102830004B8300BF704700009005002038820008DD
:10284000054B53F82010054B33F810204B695340CB
:102850004B6100BF704700009005002038820008DF
:1028600010B504460F48FFF7D5FB1020FFF76CF9B1
:102870001020FEF75FFD621E00230B490948FFF799
:1028800085FB072200213620FFF736F93620FFF7B7
:1028900027F901210348FFF741FC0248FFF738FC04
:1028A00010BD00000010004040420F0070B504460B
:1028B0000D46164621780F4A52F821000E49FFF7BF
:1028C00033FC21780B4A52F821000C49FFF72CFC0D
:1028D0002178084A52F821004FF44071FFF724FC98
:1028E0002178074A52F8210032462946FEF7DFFEDA
:1028F00070BD0000CC0500201A010B000602080084
:102900002006002038B50446607808287DD2DFE82C
:1029100000F0042345649B9CF1EF2178C34A52F8F0
:102920002100FFF709F9012000902278C04B33F80D
:102930001210C04B53F8220000230122FEF7ADFF16
:102940002378BD4DEA5CBD4D35F81310B94D55F8EF
:102950002300FEF781FF66E12178B44A52F8210096
:10296000FFF7EAF8012000902278B14B33F81210FB
:10297000B04B53F8220000230122FEF78EFF23788C
:10298000AD4DEA5CAD4D35F81310AA4D55F8230056
:10299000FEF762FF204600F0E7FA44E12178A84AFA
:1029A00052F82100FFF7C8F8012000902278A54BCB
:1029B00033F81210A44B53F8220000230122FEF733
:1029C0006CFF23789C4DEA5CA04D35F813109E4DAA
:1029D00055F82300FEF740FF25E12178984A52F888
:1029E0002100FFF7A9F82178994A52F82100FFF752
:1029F000A3F8012000902278964B33F81210964BE2
:102A000053F822000023012200E00BE1FEF7E3FF70
:102A10000120009022788B4B33F81210854B53F82D
:102A2000220000230122FEF738FF2378824DEA5C62
:102A3000864D35F81310844D55F82300FEF70CFF32
:102A4000204600F0A5FAEEE000BF21787C4A52F85B
:102A50002100FFF771F82178744A52F82100FFF73E
:102A60006BF821787A4A52F82100FFF765F80120C7
:102A700000902278774B33F81210774B53F82200EE
:102A800000230122FEF7A7FF0120009022786D4B62
:102A900033F812106C4B53F8220000230122FEF78A
:102AA000FCFE012000902278614B33F81210614B3C
:102AB00053F8220000230122FEF7EFFE23785E4D3B
:102AC000EA5C624D35F813105F4D55F82300FEF7B0
:102AD000C3FE2378584DEA5C584D35F81310554D18
:102AE00055F82300FEF7B8FE204600F03DFA9AE0C4
:102AF0003DE0FFE72178524A52F82100FFF71CF829
:102B000021784A4A52F82100FFF716F80120009078
:102B100022784C4B33F812104B4B53F82200002311
:102B20000122FEF7BAFE012000902278404B33F8D4
:102B30001210404B53F8220000230122FEF7ADFE95
:102B400023783D4DEA5C414D35F813103E4D55F864
:102B50002300FEF781FE2378374DEA5C374D35F8C8
:102B60001310344D55F82300FEF776FE5BE0217814
:102B7000334A52F82100FEF7DFFF21782B4A52F842
:102B80002100FEF7D9FF2178314A52F82100FEF7E3
:102B9000D3FF0120009022782E4B33F812102E4BD9
:102BA00053F8220000230122FEF715FF01200090B8
:102BB0002278244B33F81210234B53F822000023C1
:102BC0000122FEF76AFE012000902278184B33F8AC
:102BD0001210184B53F8220000230122FEF75DFE6D
:102BE0002378154DEA5C194D35F81310164D55F83C
:102BF0002300FEF731FE23780F4DEA5C0F4D35F8C8
:102C000013100C4D55F82300FEF726FE00BF227866
:102C1000104B33F81210104B53F82200FEF749FF07
:102C200000BF00E000BF00BF38BD0000A482000864
:102C3000B0820008E405002087820008B682000800
:102C40008C82000898820008D80500209E82000827
:102C5000BC820008C8820008F00500207FB5044649
:102C60002046FFF74FFE2078884951F82000884918
:102C7000884206D12178874A52F82100FEF77CFF6E
:102C800005E02178834A52F82100FEF75DFF2178A4
:102C90007E4A52F82100FFF751FA607900902379BB
:102CA000E278A5787C4E56F825102578774E56F8B0
:102CB0002500FFF79FFA6078002855D0A0790228F8
:102CC0003AD12178754A52F82100FEF735FF0020ED
:102CD00001210222CDE90002CDE902102378354618
:102CE00055F8233003F1280223786D4D55F8230061
:102CF00000236169FEF787FC2178324652F82100F3
:102D0000FFF76AFA2178674A52F82100FEF7A6FB1E
:102D10002178654A505C01220021FEF7EDFE217802
:102D2000614A505CFEF7DCFE21782A4652F8210009
:102D30000221FEF79EFC17E0A079012814D121782A
:102D40005A4A505C00221146FEF7D6FE21784F4ABF
:102D500052F821005649FFF7E7F921784B4A52F81B
:102D600021005349FFF7BFFA6078022851D0A079BB
:102D700002284FD121784F4A52F82100FEF7DCFE9D
:102D800000200222CDE900020290039023783F4DFB
:102D900055F8233003F124022378474D55F82300DA
:102DA0000023A169FEF72FFC2178384A52F8210050
:102DB000FFF70CFAA28B2046A169FFF777FD217877
:102DC000324A52F821003D49FFF7AEF92178374ADF
:102DD000505C01220021FEF78FFE2178334A505CBF
:102DE000FEF77EFE2178294A52F821003349FFF789
:102DF0007AFA2178254A52F821004FF44071FFF702
:102E000093F92178214A52F821004FF44071FFF7DD
:102E10006AFA3AE0A079012837D12178234A505C38
:102E200001220021FEF768FE2178204A505CFEF75F
:102E300057FE2178154A52F821002149FFF774F90D
:102E40002178124A52F821001C49FFF76DF92178C8
:102E50000E4A52F821001A49FFF745FA21780B4A29
:102E600052F821001549FFF73EFA2178074A52F837
:102E700021004FF44071FFF757F92178034A52F8C7
:102E800021004FF44071FFF72EFA7FBDCC050020E2
:102E90000038014078820008F8820008D0820008DB
:102EA00008060020E0820008DC8200088482000816
:102EB00007010700EC820008200600201A010B0021
:102EC0000501050010B50446A079012807D1217835
:102ED000084A52F821000849FFF7EBF909E0A07908
:102EE000022806D12178034A52F821000349FFF74E
:102EF000E0F910BDCC050020050105001A010B000A
:102F000010B50446A079012807D12178084A52F863
:102F100021000849FFF7E7F909E0A079022806D166
:102F20002178034A52F821000349FFF7DCF910BD6C
:102F3000CC050020050105001A010B0070B5044600
:102F40000D460A2D0ADAA570A278054B53F8221017
:102F50002278044B53F82200FFF7F6F970BD000009
:102F6000F8820008CC05002010B50378054C54F811
:102F70002310054C34F813204B8B13434B8300BFB5
:102F800010BD0000F0050020C88200087047000056
:102F900010B504462278044B33F81210034B53F853
:102FA0002200FEF786FD10BDC8820008F005002053
:102FB0002DE9F04104460D461646E079012809D175
:102FC0002178394A52F82100FEF716FB10B1012092
:102FD000BDE8F0816078042802D06078052802D12D
:102FE0002046FFF7D5FFA07930BB0120E0712178A2
:102FF0002E4A52F8210032462946FFF78EF96078B2
:10300000042802D06078052813D100BF2178274A10
:1030100052F821004021FFF7E5F80028F6D12046BC
:10302000FFF7A2FF2178214A52F821004021FFF743
:1030300079F80020E07134E0A079012817D1002050
:10304000608126816069A84200D065612178174AB5
:1030500052F821001649FFF767F82178134A52F811
:1030600021001349FFF73FF90120E07119E02178B1
:10307000104A52F82100FEF7DDF945B9228923787C
:10308000094F57F823006169FEF7F7FA07E0217846
:10309000054A52F8210032462946FEF7EEFA012091
:1030A000E071002094E7000008060020CC05002015
:1030B00007010700E0820008F8B5314E0025002422
:1030C000002700BF04E000204DF82400601CC4B2BB
:1030D000012CF8DB002540E0192D39DA002405E049
:1030E000611DC8B2FFF79CFB601CC4B2012CF7DB6A
:1030F0000A20FEF777F9002405E0611DC8B2FFF74A
:103100007FFB601CC4B2012CF7DB0A20FEF76AF9D2
:10311000002410E05DF8240040004DF82400E11D7B
:10312000C8B2FFF71FFB07465DF8240038444DF88E
:103130002400601CC4B2012CECDB002405E0611DFE
:10314000C8B2FFF76DFB601CC4B2012CF7DB02E0D4
:103150001420FEF747F9681CC5B21B2DBCDB002408
:103160000BE05DF8241004EB8402C2EB841206EB42
:10317000820001F0FDFA601CC4B2012CF1DBF8BD45
:10318000F406002070B50024084DFFF795FF00BF3E
:1031900009E004EB8401C1EB841105EB810000F030
:1031A00083F9601CC4B2012CF3DB70BDF40600206F
:1031B00070B50024002500263F480078052873D20A
:1031C000DFE800F003071526650001203A49087082
:1031D0006EE0002405E0611DC8B2FFF711FB601C22
:1031E000C4B2012CF7DB02203349087060E00024F0
:1031F00005E0611DC8B2FFF713FB601CC4B2012CCF
:10320000F7DB03202C49087000202C4908804FE090
:103210002A480088401C294908800846008840F256
:103220008A21884208DB002024490880244908704C
:1032300001202149087029E000240DE02148005DAB
:10324000012807D1E11DC8B2FFF78CFA012801D18E
:10325000012503E0601CC4B2012CEFDB00BF012D8F
:1032600006D10320144908700020154908700DE0AC
:10327000134801780078401C114A10700A2905DDB6
:1032800004200D49087000201146087010E0FFF777
:1032900079FF032008490870002008490880084980
:1032A0000870012604E0FFE701200349087000BF11
:1032B00000BF304670BD00001A0000201C00002036
:1032C0001E0000200C0000202DE9F0412DED028BA6
:1032D000002600240025002769480088B0F5FA6F11
:1032E0007CDC67480088401C654908806548007898
:1032F000082874D2DFE800F0041230BCBC234591EA
:10330000002405E0611DC8B2FFF78AFA601CC4B250
:10331000012CF7DB01205B490870AAE0002405E0DE
:10332000611DC8B2FFF76CFA601CC4B2012CF7DB58
:1033300005205449087000205349088099E05248FC
:103340000088401C50490880084600880A2802DD91
:1033500002204C4908708CE0002409E0611DC8B2CD
:10336000FFF75EFA0020494921F81400601CC4B23E
:10337000012CF3DB062043490870002044490880F3
:1033800077E043480088401C4149088000240DE054
:10339000E11DC8B2FFF7E6F930B93C4830F8140037
:1033A000401C3A4921F81400601CC4B2012CEFDB28
:1033B0003748008840F28A2188422DDB002419E03A
:1033C000324830F8140032280ADB012004EB4401B3
:1033D000304A1144304A1278885409E04AE047E004
:1033E000002004EB44012B4A11442B4A12788854E4
:1033F000601CC4B2012CE3DB27480078401C26493E
:10340000087008460078032803DB07201D49087070
:1034100002E000201B4908702BE0002422E0002677
:10342000002508E004EB44001A490844405D30449C
:10343000C6B2681CC5B2032DF4DB304604F04CFC68
:1034400041EC180B9FED150B53EC102B04F092FD83
:1034500003D801201349085502E0002011490855FE
:10346000601CC4B2012CDADB08200649087000E0B9
:1034700000BF00E001273846BDEC028BBDE8F081BB
:103480000E0000200D00002010000020140000207D
:10349000120000201600002019000020CCCCCCCC5B
:1034A000CCCC00400C00002030B52DED028B87B055
:1034B000044600259FED320AB0EE408AA07801282C
:1034C0005AD100BF06E0201D50F825004DF8250018
:1034D000681CC5B2072DF6DB07216846FCF74BFFD9
:1034E00000202062022506E05DF82510206A0844CD
:1034F0002062681CC5B2052DF6DB0321206A90FB13
:10350000F1F06062002514E0D4F8E00038B904F16D
:10351000340050F82500616A814208DC0BE004F1B8
:10352000340050F82500616A814200DB03E0681C2A
:10353000C5B20A2DE8DB00BF04F1840000EB850072
:1035400090ED000AB0EE408A94ED090AB8EEC00A88
:1035500020EE080AB0EE408A04F1B00000EB8500CE
:1035600090ED000A30EE080AB0EE408A94ED390A78
:1035700084ED3A0A84ED398A07B0BDEC028B30BD88
:103580000000000001460020054A012906DA01EB8F
:103590008103C3EB811302EB8303586A7047000079
:1035A000F406002070B52DED068B04469FED1E0A33
:1035B000B0EE408A1D49886804F077FB41EC1A0B95
:1035C0009FED1B0B53EC102B04F0D6FB41EC190BB9
:1035D00004F02EFB08EE900A174D012C11DA04EBD3
:1035E0008400C0EB841005EB800090ED390A04EBF9
:1035F0008400C0EB841005EB8000D0ED370A30EE7C
:10360000608AB4EEE88AF1EE10FA01DBB0EE688A67
:103610000A48005D18B99FED040AB0EE408AB0EE8A
:10362000480ABDEC068B70BD00000000540000206D
:103630009A9999999999F13FF40600200C0000207D
:1036400030B5544900200023002200BF9EE000EB6B
:103650008004C4EB801401F82400002400EB8005F2
:10366000C5EB801501EB8505AC7000EB8005C5EB63
:10367000801501EB8505EC7000EB8005C5EB80152E
:1036800001EB85052C6200EB8005C5EB801501EB95
:1036900085056C6200230BE0002500EB8004C4EB81
:1036A000801401EB8404241D44F823505C1CE3B215
:1036B0000A2BF1DB002216E0374C54F8225000EBC5
:1036C0008004C4EB801401EB84045C3444F8225081
:1036D000002500EB8004C4EB801401EB8404283443
:1036E000A554541CE2B20A2AE6DB00221BE09FED3F
:1036F0002B0A00EB8004C4EB801401EB84048434B7
:1037000004EB820484ED000A9FED250A00EB80049F
:10371000C4EB801401EB8404B03404EB820484ED28
:10372000000A541CE2B20B2AE1DB9FED1E0A00EBFB
:103730008004C4EB801401EB840484ED370A002478
:1037400000EB8005C5EB801501EB8505C5F8E04071
:103750009FED140A00EB8004C4EB801401EB840499
:1037600084ED390A9FED0F0A00EB8004C4EB80144E
:1037700001EB840484ED3A0A012400EB8005C5EBDB
:10378000801501EB85056C70441CE0B20128FFF642
:103790005EAF30BDF4060020F47F0008124DA03A61
:1037A000E1DA85C3000000000C49002000BF11E0F1
:1037B00000EB8002C2EB801201EB820292ED390A2B
:1037C00000EB8002C2EB801201EB820282ED370A2D
:1037D000421CD0B20128EBDB70470000F406002049
:1037E00010B500241348D0F84C021249D1F8481201
:1037F000884208D90F48D0F84C020E49D1F8481237
:10380000401A322810D20B48D0F84C020949D1F89E
:10381000481288420CD20748D0F848020549D1F82E
:103820004C12401A322803D3112001F02FFC01243E
:10383000204610BD2801002010B5032400BF07E07A
:10384000204600F009F8204600F026F8601CC4B2BB
:10385000072CF5DB10BD0000032809DB072807DA79
:103860000022C11EC1EBC101024B03EB41010A72F0
:1038700070470000E007002001460020032908DB14
:10388000072906DACA1EC2EBC202024B03EB420250
:10389000107A7047E0070020032809DB072807DAC1
:1038A0000022C11EC1EBC101024B03EB41010A73AF
:1038B00070470000E007002001460020032908DBD4
:1038C000072906DACA1EC2EBC202024B03EB420210
:1038D000107B7047E007002010B500F001F810BD24
:1038E00070B50024464D00BF85E0C4EBC40115F857
:1038F0001100FEF737FFC4EBC40105EB410148712D
:10390000C4EBC40005EB40000079C4EBC40105EB37
:1039100041014979884236D1C4EBC40005EB40002F
:103920004088401CC4EBC40105EB41014880C4EB56
:10393000C40005EB40004089401CC4EBC40105EB0A
:1039400041014881C4EBC40005EB40004079E8BB6D
:10395000C4EBC40005EB40004089B0F5FA6F3EDBD4
:103960000120C4EBC40105EB410148800020C4EBF9
:10397000C40105EB410148810120C4EBC40105EB02
:10398000410108732BE0C4EBC40005EB4000007953
:10399000C0B9C4EBC40005EB40004088C4EBC401CF
:1039A00005EB4101498988420CD1C4EBC40005EB09
:1039B00040004088322805DB0120C4EBC40105EB40
:1039C000410108720020C4EBC40100E007E005EBF0
:1039D00041014880C4EBC40105EB41014881C4EBBF
:1039E000C40005EB40004079C4EBC40105EB410184
:1039F0000871601CC4B2042CFFF677AF70BD0000E4
:103A0000E00700200020144900BF21E0C21CC0EBE9
:103A1000C00301F813200022C0EBC00301EB4303F5
:103A20005A800122C0EBC00301EB43031A71C0EBC3
:103A3000C00301EB43035A71C0EBC00301EB430326
:103A40009A71C0EBC00301EB43035A70421CD0B221
:103A50000428DBDB70470000E007002003F0BCFE19
:103A6000FFF7D0FF00F078FAFFF7EAFD02F0D4FB91
:103A700000F09CFA00F054FB01210848FCF77EFDA1
:103A800007480068FCF754FD00F06EF8FDF7CAF82F
:103A90000120FDF7B7F900BFFEE700004408002051
:103AA000240000202DE9F04106460C4615461F462D
:103AB0000E480078B04204D00C480670304600F042
:103AC00027F80B480078A04204D00948047020462B
:103AD00000F012F807480088A84204D00548058085
:103AE000284600F02FF8BDE8F0810000D406002041
:103AF000D5060020D606002010B504461CB90320C8
:103B0000FEF78EFE02E00320FEF77AFE10BD0000F5
:103B100070B505460A4C3DB90220FEF781FE2068CB
:103B200020F0010020600AE00220FEF769FE32204A
:103B3000FDF758FC206820F00100401C206070BD9B
:103B4000004001400146064841B1064A92FBF1F2AD
:103B5000C262C26A52088263002242627047000059
:103B60000040014040420F0038B52F4C4FF48020F8
:103B7000FDF7E2FF4FF48030FDF7FEFF0120002348
:103B80000246C10300902948FDF787FE01220F215C
:103B90002648FDF761FE2046FEF73CFA4FF48030E0
:103BA000FDF7EAFF0420FDF7CDFB6420E0623F2033
:103BB0002085206820F440702060206820F01000EC
:103BC0002060206820F0800080302060206920F094
:103BD00001002061206A20F020002062206A20F08D
:103BE000100010302062A06920F4407000F5807051
:103BF000A061A06920F4E04000F5C040A061A06988
:103C000020F4006000F50060A061E06A4008A06355
:103C1000606C20F4004000F500406064206820F0F3
:103C20000100401C206038BD0040014000040048F5
:103C300001460348026861F3000202607047000019
:103C40000040014010B5012800DD10BD0A2907DA47
:103C500000EB8003034C04EB0313283323F81120FB
:103C600000BFF2E7D009002070B5012800DD70BD6B
:103C70000A2916DA012400EB80050B4E06EB051528
:103C800025F8114000EB8004354605EB041414348C
:103C900024F8112000EB800405EB0414283424F8E8
:103CA000113000BFE3E70000D009002070B5002408
:103CB00000254C48B0F81A02012801DD002070BD33
:103CC0004848B0F81A0218B90120474908700AE0BC
:103CD0004448B0F81A02012805DC424890F81A025C
:103CE000401E414908704148007810B1012871D147
:103CF00037E03C48D0F84C023A49D1F848128842A3
:103D000008D93848D0F84C023649D1F84812401A40
:103D1000322810D23348D0F84C023249D1F8481238
:103D200088421DD22F48D0F848022E49D1F84C12B3
:103D3000401A322814D32C48007800EB80002C491C
:103D400001EB001000F1140401230A2221464FF474
:103D50000C5003F0EBFD25480078401C2349087007
:103D60003DE02048D0F84C021E49D1F84812884264
:103D700008D91C48D0F84C021A49D1F84812401A08
:103D8000322810D21748D0F84C021649D1F8481200
:103D900088421DD21348D0F848021249D1F84C127B
:103DA000401A322814D31048007800EB80001049E4
:103DB00001EB001000F1280401230A2221464FF4F0
:103DC000105003F0B3FD09480078401C0749087003
:103DD00005E0FFE7002005490870012500BF00BF8E
:103DE00028466CE7280100207A040020790400208E
:103DF000D009002010B5012800DD10BD0A2907DA1E
:103E000000EB8003034C04EB03133C3323F8112035
:103E100000BFF2E7D0090020032807DA002102469C
:103E2000C2EBC202024B03EB420211727047000068
:103E30001808002001460020032906DA0A46C2EBD2
:103E4000C202024B03EB4202107A704718080020AE
:103E500001460120032906DA0A46C2EBC202024BE0
:103E600003EB4202907970471808002010B500F06B
:103E700001F810BD70B50024364D00BF67E0C4EBFB
:103E8000C40115F81100FEF76DFCC4EBC40105EB8D
:103E900041014871C4EBC40005EB40000079C4EB5C
:103EA000C40105EB41014979884222D1C4EBC40029
:103EB00005EB40004088401CC4EBC40105EB410108
:103EC0004880C4EBC40005EB40004088142816DB92
:103ED0001420C4EBC40105EB41014880C4EBC400CD
:103EE00005EB40004079C4EBC40105EB410188714A
:103EF00005E00020C4EBC40105EB41014880C4EBA0
:103F0000C40005EB40004079C4EBC40105EB41015E
:103F10000871C4EBC40005EB4000C079C4EBC401D8
:103F200005EB4101897988420FD0C4EBC40005EB51
:103F300040008079C4EBC40105EB4101C871012048
:103F4000C4EBC40105EB41010872601CC4B2032C30
:103F500095DB70BD180800200020134900BF20E049
:103F6000C0EBC00301F813000022C0EBC00301EB5B
:103F700043035A800122C0EBC00301EB43031A71D3
:103F8000C0EBC00301EB43035A71C0EBC00301EB6C
:103F900043039A71C0EBC00301EB43035A70421C08
:103FA000D0B20328DCDB7047180800202DE9F04F61
:103FB000AFB00026B42102A8FCF77AF90027B0467A
:103FC0000020019081460024002582462D2202A96E
:103FD0005248FDF7CBFB2E980190B02102A8FCF7C8
:103FE000D1FF0199884273D100BF00BF00BF8DE0AF
:103FF00009F0FF00FEF760FB06464FF0000A2C4672
:1040000004F10A0085B206F1340717E002A850F85F
:10401000240001C702AB53F824B04FEAEB730BEB5B
:10402000D3535B121AB251460AF1010C0CF0FF0A8D
:1040300009F0FF00FFF706FE601C84B2AC42E5DB2E
:104040004FF0000A2C4604F10A0085B206F15C0725
:1040500012E002A850F8240001C702AB33F8243064
:104060001AB251460AF1010C0CF0FF0A09F0FF00E8
:10407000FFF7C0FE601C84B2AC42EADB2C4604F1C0
:104080000B0085B206F1840808E002A800EB84006A
:1040900090ED000AA8EC010A601C84B2AC42F4DB8B
:1040A0002C4604F10B0085B206F1B00808E002A826
:1040B00000EB840090ED000AA8EC010A601C84B2B9
:1040C000AC42F4DB2C46601C85B206F1DC0809E04A
:1040D00020E002A800EB840090ED000AA8EC010AA1
:1040E000601C84B2AC42F4DB2C46601C85B206F145
:1040F000E00705E002A850F8240001C7601C84B264
:10410000AC42F7DB09F101001FFA80F9B9F1010FA8
:10411000FFF66EAF2FB0BDE8F08F000000F003088F
:10412000F0B5B3B0CC216846FCF7C2F800250024F6
:104130000026002733226946BA48FDF717FB329D57
:10414000C8216846FCF71EFFA8427DD100BF21466A
:10415000641C5DF82100B44908602146641C5DF8C8
:104160002100B24908602146641C5DF82100AF4976
:1041700048602146641C5DF82100AC4988602146F6
:10418000641C684600EB810090ED000AA74880EDB2
:10419000030A2146641C5DF82100A44908612146F8
:1041A000641C5DF82100A1494861261D00BF0AE09A
:1041B0005DF824203846791CCFB29C49183141F86B
:1041C0002020601C84B2B442F2DB2046611C8CB219
:1041D000694601EB800090ED000A944880ED0A0AE0
:1041E0002046611C8CB25DF820009049C8622046D0
:1041F000611C8CB25DF820008C4908632046611C6C
:104200008CB25DF82000894948632046611C8CB25D
:104210005DF82000854988632046611C8CB25DF8FA
:1042200020008249C8632046611C8CB25DF82000E2
:104230007E4908642046611C8CB25DF820007B49F1
:1042400048642046611C00E0EAE08CB25DF8200082
:10425000764988642046611C8CB25DF82000734961
:10426000C8652046611C8CB25DF820106F4801665D
:104270002046611C8CB25DF820106C4841662046D7
:10428000611C8CB25DF82000684988662046611C7C
:104290008CB25DF820006549C8662046611C8CB26E
:1042A0005DF82000614908672046611C8CB25DF80A
:1042B00020005E4948672046611C8CB25DF82000F2
:1042C0005B49C8602046611C8CB25DF820005849EB
:1042D000C8612046611C8CB25DF820005349886794
:1042E0002046611C8CB25DF820005049C1F8800066
:1042F0002046611C8CB25DF820104C48C0F8841038
:104300002046611C8CB25DF820104848C0F8881027
:104310002046611C8CB25DF820104448C0F88C1017
:104320002046611C8CB25DF820104048C0F8901007
:104330002046611C8CB25DF820103C48C0F89410F7
:104340002046611C8CB25DF820003849C1F8980005
:104350002046611C8CB25DF820003449C1F89C00F5
:104360002046611C8CB25DF820003049C1F8A000E5
:104370002046611C8CB25DF820002C49C1F8A400D5
:104380002046611C8CB25DF820002849C1F8A800C5
:104390002046611C8CB25DF820002449C1F8AC00B5
:1043A0002046611C8CB25DF820002049C1F8B000A5
:1043B0002046611C8CB25DF820001C49C1F8B40095
:1043C0002046611C8CB25DF820001849C1F8B80085
:1043D0002046611C8CB25DF820001449C1F8BC0075
:1043E0002046611C8CB25DF820001049C1F8C00065
:1043F0002046611C8CB25DF820000C49C1F8C40055
:104400002046611C8CB25DF820000849C1F8C80044
:104410002046611C8CB25DF820000449C1F8CC0034
:1044200033B0F0BD00E00308240000205400002059
:104430002C05002070B5002400254C48B0F81A0265
:10444000012801DD002070BD4848B0F81A0218B9F3
:1044500000204749087009E04448B0F81A020128D2
:1044600004DC424890F81A0241490870414800783B
:1044700010B1012871D137E03C48D0F84C023B49DB
:10448000D1F84812884208D93848D0F84C02374948
:10449000D1F84812401A322810D23448D0F84C02D1
:1044A0003249D1F8481288421DD23048D0F848022B
:1044B0002E49D1F84C12401A322814D32C480078D7
:1044C00000EB80002C4901EB001000F114040023E4
:1044D0000A2221464FF40C5003F028FA25480078B0
:1044E000401C244908703DE02048D0F84C021F4988
:1044F000D1F84812884208D91C48D0F84C021B4910
:10450000D1F84812401A322810D21848D0F84C027C
:104510001649D1F8481288421DD21448D0F84802F2
:104520001249D1F84C12401A322814D3104800789E
:1045300000EB8000104901EB001000F1280400237B
:104540000A2221464FF4105003F0F0F90948007890
:10455000401C0849087005E0FFE700200549087085
:10456000012500BF00BF28466DE70000280100209C
:104570007E0400207D040020D00900207CB50025A9
:10458000002442A103C9CDE900014248007820B1CE
:10459000012806D002286DD16BE001203D4908704A
:1045A0006CE03D4890F8E7020A2190FBF1F0F02121
:1045B00001EA00108DF80500374890F8E7020A215B
:1045C00090FBF1F201FB120000F00F009DF80510C6
:1045D0000844C0B28DF805002F4890F8E8020A217F
:1045E00090FBF1F0F02101EA00108DF806002A4856
:1045F00090F8E8020A2190FBF1F201FB120000F0B2
:104600000F009DF806100844C0B28DF8060022483D
:1046100090F8E9020A2190FBF1F0F02101EA001084
:104620008DF807001C4890F8E9020A2190FBF1F28E
:1046300001FB120000F00F009DF807100844C0B203
:104640008DF807000123082269461F2000F056F963
:1046500001280DD100200F4908700125002405E034
:104660000E48015DC01F0155601CC4B2072CF7DB6A
:1046700004E003E000200749087000BF00BF012DDF
:1046800002D100200349087028467CBD5A22052526
:1046900003185600F5040020280100200B04002018
:1046A00070B5054600242F48007820B101283CD081
:1046B000022849D147E02C48B0F8CC02012818D193
:1046C0002948B0F9B00264282BDA00212648A0F866
:1046D000CC120321A0F8C612A0F8C8120120FCF7E2
:1046E00091FB0220FCF788FB01211F2000F0E2FB78
:1046F00017E01D48B0F8CC0298B901211A48A0F87B
:10470000CC120321A0F8C6120121A0F8C812002083
:10471000FCF778FB0620FCF76FFB0121202000F05E
:10472000C9FB01200F49087013E0012312220F4931
:104730004FF4405000F072F9012803D100200949DC
:104740000870012405E004E00020064908700124F7
:1047500000BF00BF012C02D1002002490870204692
:1047600070BD0000F304002028010020D4030020C5
:1047700010B5C278072A03DB0022C27001228270C2
:10478000B1F1807F09D36FF07E42521A521C53421E
:10479000C478021D42F8243003E0C378021D42F8B9
:1047A0002310C278521CC27010BD000038B50446F8
:1047B00000251548007820B1012806D0022817D11D
:1047C00015E001201049087016E00A2094FBF0F073
:1047D000C0B2009001231A466946022000F08EF80C
:1047E000012803D1002008490870012504E003E0F6
:1047F00000200549087000BF00BF012D02D1002034
:1048000001490870284638BDEE0400202DE9F04724
:1048100004460D4616464FF000080027B9463548B5
:10482000D0F84C023349D1F84812884208D93148AF
:10483000D0F84C022F49D1F84812401A322810D231
:104840002C48D0F84C022B49D1F8481288424DD25E
:104850002848D0F848022749D1F84C12401A32288B
:1048600044D3FF2C40DC601900283DDD6019FF288F
:104870003ADCA5201F4981F804015A211D4880F81F
:104880000511012E03D1052180F8061103E0032153
:10489000184880F806118121164880F8071180F821
:1048A000084180F80951012E0FD1032100F20710B1
:1048B000FCF768FB07460F4880F80A7138120D496B
:1048C00081F80B014FF0080801E04FF00608094994
:1048D000086809684246CB6A074998470548D0F8F6
:1048E00048020449C1F84C024FF0010909F0FF00E9
:1048F000BDE8F087280100202C0200202DE9F84FA8
:1049000005460E4614461F464FF00008C246C346F1
:104910000020009081463F48D0F84C023D49D1F834
:104920004812884208D93B48D0F84C023949D1F89E
:104930004812401A322810D23648D0F84C02354975
:10494000D1F84812884261D23248D0F84802314941
:10495000D1F84C12401A322858D3FF2D54DC2819B4
:10496000002851DD2819FF284EDCA520294981F8AF
:1049700004015A21274880F80511012F05D1201D77
:10498000C1B2244880F8061104E0A01CC1B221483D
:1049900080F8061180211F4880F8071180F808511F
:1049A0004FF0000809E016F801AB08F105001A49BC
:1049B00001F800A0001F00F0FF08A045F3DB012F65
:1049C00012D1A11C1448C01CFCF7DCFA8146601D02
:1049D000114901F800904FEA2921A01D0E4A1154F7
:1049E000E01D00F0FF0B02E0601D00F0FF0B094925
:1049F000086809685A46CB6A074998470548D0F8BD
:104A000048020449C1F84C02012000900098BDE81A
:104A1000F88F0000280100202C0200202DE9F84F1B
:104A200005460F46144698460026B14600200090E1
:104A3000824683464948D0F84C024849D1F848128A
:104A4000884208D94548D0F84C024449D1F8481268
:104A5000401A322810D24148D0F84C023F49D1F8D0
:104A60004812884275D23D48D0F848023B49D1F8F7
:104A70004C12401A32286CD34FF6FF70854266DA2A
:104A80002819002863DD28194FF6FF7188425EDA85
:104A9000A520324981F804015A21304880F80511D7
:104AA000B8F1010F06D16000401DC1B22B4880F85B
:104AB000061105E06000C01CC1B2284880F806114C
:104AC0008221264880F80711290A80F8081180F809
:104AD000095100260EE037F8029B4FEA29217000A9
:104AE000801D1F4A11547000C01D114601F800902E
:104AF000701C86B2A642EEDBB8F1010F16D1600041
:104B0000C11C1748C01CFCF73DFA82466000801D9E
:104B1000134901F800A04FEA2A216000C01D104A85
:104B200011546000083080B2009003E06000801DE6
:104B300080B20090094908680968CB6A0849009A60
:104B400098470648D0F848020449C1F84C024FF093
:104B5000010B0BF0FF00BDE8F88F000028010020DA
:104B60002C02002010B5234890F864020E283CD196
:104B7000204890F80E03B0B91E48B0F9B00264287E
:104B800011DB01201B4981F80E030020FCF73AF9E4
:104B900001211848A0F8CC120321A0F8C612012167
:104BA000A0F8C81225E0134890F80E03012820D180
:104BB0001048B0F9B0021049C96F0844642818D2EF
:104BC00000200C4981F80E030120FCF71BF902209C
:104BD000FCF712F900210748A0F8CC120321A0F835
:104BE000C6120021A0F8C81203E00020014981F894
:104BF0000E0310BD28010020540000200146A1F141
:104C00001F00014A105C70471204002010B52820D4
:104C1000FFF7F4FF012809D1282001F051FB0128FA
:104C200003D10021282000F045F93AE12920FFF7BF
:104C3000E5FF012809D1292001F042FB0128F4D128
:104C40000021292000F036F92BE12A20FFF7D6FFBA
:104C5000012809D12A2001F033FB0128E5D10021E8
:104C60002A2000F027F91CE11F20FFF7C7FF0128C9
:104C700009D11F2001F024FB0128D6D100211F20DB
:104C800000F018F90DE12020FFF7B8FF012809D145
:104C9000202001F015FB0128C7D10021202000F0C1
:104CA00009F9FEE07F4890F80C03012813D17E48F3
:104CB00090F8CC0000F0010068B1262001F000FB64
:104CC0000128B2D10021262000F0F4F80020754917
:104CD00081F80C03E5E0734890F80C03022813D127
:104CE000714890F8CC0000F0010068B1272001F075
:104CF000E7FA012899D10021272000F0DBF80020F5
:104D0000684981F80C03CCE0664890F864020E28EC
:104D10008BD16448B0F9B00264282DDB2520FFF761
:104D20006DFF01280CD1252001F0CAFA01288BD192
:104D30000021252000F0BEF800205C490860B0E0AA
:104D40005A4801680068401C584A10605648D0F81C
:104D5000C400814287D35448D0F8C0005449096840
:104D6000884208D90121252000F0A4F850480068A5
:104D7000401C4F49086094E04A48B0F9B0024A49E3
:104D8000C96FC1F16401884206D20121252000F0DB
:104D900091F80020464908604248B0F9B0025F2807
:104DA00000DB7EE03F48B0F9B0023F49C96FC1F176
:104DB0005F01884203D20121242000F07BF83948AA
:104DC000B0F9B0025A2813DB2320FFF717FF0128A0
:104DD00067D13548D0F8A000012862D1232001F026
:104DE0006FFA01285DD10021232000F063F858E01C
:104DF0002C48B0F9B0022C49C96FC1F15A01884260
:104E000003D20121232000F055F82648B0F9B00262
:104E1000502813DB2220FFF7F1FE012841D1224860
:104E2000D0F89C0001283CD1222001F049FA012849
:104E300037D10021222000F03DF832E01948B0F9C6
:104E4000B0021949C96FC1F15001884203D2012152
:104E5000222000F02FF81348B0F9B002322813DBFB
:104E60002120FFF7CBFE01281BD10F48D0F8980076
:104E7000012816D1212001F023FA012811D10021A7
:104E8000212000F017F80CE00648B0F9B0020649FE
:104E9000C96FC1F13201884203D20121212000F003
:104EA00009F810BD280100205400002088040020CB
:104EB0008C040020A0F11F02014B995470470000A0
:104EC000120400202DE9F04106460024664F07F148
:104ED000240800250020FEF765FB644880ED000AE9
:104EE0006348806EA0B1614890ED000ADFED610A71
:104EF00020EE200A80ED000A5D4890ED1A0AB8EE17
:104F0000C00A5A48D0ED000A80EE801A80ED001ADF
:104F1000564890ED000AF6EE000A30EE200A80EDC9
:104F2000000A90ED000ABDEEC00A10EE100A01B2B0
:104F30005148A0F8AC1290F864020E2848D14E48AF
:104F4000B0F8AC12B0F8C402081A01B24A48A0F88E
:104F5000AE12B0F9AE02002820DB4748B0F8AE022E
:104F6000642110FB01F04449B1F86A1290FBF1F0A2
:104F700085B23F48C06F41193F48B0F98C02814269
:104F800004D33D48B0F98C02A8420DDC29B23A485E
:104F9000A0F8B01229B2A0F8B21205E000213648FC
:104FA000A0F8AE12A0F8B0123348B0F9B2026428EB
:104FB00004DB64213048A0F8B21211E02E48B0F9A9
:104FC000B20200280CDA00212B48A0F8B21207E048
:104FD00000212948A0F8AE12A0F8B012A0F8B21231
:104FE0002648006826490968401AB04216D323486B
:104FF00000682349086000240EE037F9140038F9EE
:105000001410884202D001201E49088038F814008C
:1050100027F81400601C04B2122CEEDB194800883B
:1050200001280FD10123122239464FF44050FFF7D7
:10503000F5FC012802D10020124908800020124905
:1050400008800EE010480088401C0F49088070005E
:105050000988884205DC01200A49088000200A49A5
:105060000880BDE8F0810000B0030020E0040020CB
:105070005400002000007A44280100200000002095
:10508000E8040020DC040020DE04002038B50446DB
:10509000200A8DF80000E0B28DF801000123022201
:1050A00069460320FFF72AFC38BD000070B52DEDDE
:1050B000028B04460D4616469FEDAD0AB0EE408ABF
:1050C0000020FEF76FFAAB48B0F9C40200EE900A78
:1050D000F8EEE00AB4EEE00AF1EE10FA0EDB002082
:1050E000FEF760FAA348B0F9C40200EE900AF8EEA9
:1050F000E00A30EE600AB0EE408A03E09FED9C0AC1
:10510000B0EE408A9C480068401C9B490860994862
:1051100090F864020E287DD1964890F80E0300287E
:10512000F9D1964890ED0A0AB4EEC80AF1EE10FAE9
:1051300070D29048B0F8CC020028ECD190480068BA
:10514000401C8F4908608F480088FC284DD0FD28FE
:1051500014D0FE287ED10020FEF77AFE012803D16C
:1051600000208949088002E0012087490880FD204D
:1051700084490880002085490880ADE00020FEF7C2
:1051800067FE8149098888422ED10020FEF70AFA7D
:105190007848B0F9C40200EE900AF8EEE00A30EE6A
:1051A000600A7B487949098800EB810080ED000A9C
:1051B000734800687749754A128841F8220072489E
:1051C0000078401C00F001006F4908806F4800889B
:1051D000401C6E49088008460088062804DB002031
:1051E0000880FC206749088076E0694890ED040A51
:1051F000D0ED000A30EE600A674880ED000A90EDBD
:10520000000ADFED660A20EE200A80ED000A614800
:10521000006900E061E05F490968401A00EE100A89
:10522000B8EE400A5C48D0ED000A80EE801A80EDAE
:10523000001A90ED000ADFED5A0A20EE200A80EDF8
:10524000000A534890ED050AD0ED010A30EE600ADD
:10525000514800E03CE080ED010A90ED010ADFEDED
:105260004F0A20EE200A80ED010A4A484069494968
:105270004968401A00EE100AB8EE400A4648D0EDE0
:10528000010A80EE801A80ED011A90ED010ADFED2F
:10529000440A20EE200A80ED010A90ED010AD0EDCB
:1052A000000A30EE200AF0EE000A80EE201ABDEE71
:1052B000C10A304880EDC20A0146D1F8080300F067
:1052C000CBF8012037490860FE202E49088003E012
:1052D000FE202C49088000BF12E0FE2029490880EA
:1052E000002025490860234890F864020E2807D062
:1052F0000020234908601F49C1F804031E490860C3
:105300001F48006850B31C4800684FF4FA71B0FBA6
:10531000F1F201FB120008BB2248006801281DD1F0
:10532000BDEEC80A134880EDC10AD0F80403490055
:1053300048431049C1F804030846D0F80403104953
:105340000968B0FBF1F00B49C1F804030846D0F836
:105350000403C0EB00108000C1F804030548B0F856
:10536000040301B20348A0F8B412BDEC028B70BD77
:105370000000000028010020B40400205400002098
:10538000A0040020AC040020AE040020B0040020E3
:105390009C0A0020840A0020A404002000007A4413
:1053A00000007042B80400200220254991F80D1336
:1053B000A9B3244991F8CC1001F0020179B301217D
:1053C000214A116021490968214A1268B1FBF2F3B0
:1053D00002FB1311E9B91A4991F80D13012900D103
:1053E00000BF174991F80D13022900D10320194974
:1053F0000978012900D100201149A1F8CE021549F0
:10540000097819B90121134A117002E00021114AEB
:1054100011700E490968491C0C4A11600FE0FFE742
:105420000949096801290AD10021074A1160074A80
:105430001160084A117000220149A1F8CE2270477C
:10544000280100205400002098040020900400202F
:10545000940400209C040020154991F864120E2940
:1054600025D11349B1F8CC1209BB0021104A82F8AA
:105470000D131049096F41B10E49096F814204DCD7
:10548000012182F80C1382F80D130A49496F71B19A
:105490000849496F81420ADB0649496F4942814206
:1054A00005DC0221024A82F80C1382F80D137047C2
:1054B00028010020540000202548D0F8D4022549B6
:1054C0000968081AB0F57A7F41D32248006820495C
:1054D000C1F8D402084690F8E202401CC1B21C4850
:1054E00080F8E21290F8E2023C280ADB184890F8B3
:1054F000E102401CC1B2164880F8E112002180F898
:10550000E212134890F8E1023C280ADB104890F8B8
:10551000E002401CC1B20E4880F8E012002180F881
:10552000E1120B4890F8E002182803DB002108483C
:1055300080F8E112064890F8E012A0F8B61290F850
:10554000E112A0F8B81290F8E212A0F8BA1270476F
:1055500028010020000000202DE9FF5F0026B3464F
:10556000002700200390029001900025804681468C
:105570000090594C94F80602012870D12079A52892
:105580006ED160795A28FBD1B4F80402062868DB92
:10559000B4F80402C01EA179884262D1B4F80402B2
:1055A000401E211D085C4FF47F4101EA002000905D
:1055B000B4F80402801E211D095C0098084480B2E2
:1055C0000090B4F80402411FE01DFBF7DBFC8246AB
:1055D0000099514568D1E079802806D0812805D00E
:1055E000822821D083285DD11FE05CE094F809B0C7
:1055F000A079401F584516D100200390207A0390CF
:1056000000270EE000200290B81D211D085C0290CA
:10561000DDE902123A44D0B200F0CCFE0643781C19
:1056200087B25F45EEDB3EE03DE0A07A0190A179D4
:10563000881F00EBD0720199B1EB620F31D14FF0AE
:10564000000894F808804FF6FF7000EA082808F474
:105650007F48607A40441FFA80F800251EE039E058
:105660002FE021E04FF000096800C01D211D11F856
:1056700000904FF6FF7000EA092909F47F4968009D
:105680000830085C48441FFA80F908EB050188B22D
:10569000494600F01BFF0643681C85B2019885420D
:1056A000E0DB00E000BF00BF41F28831D4F84802DF
:1056B00088420CD906F0010020B101F0B5FD01F0DF
:1056C0005DFE04E006F0020008B101F057FE002084
:1056D00084F80602BDE8FF9F2801002000202A4927
:1056E00091F864120E2949D12749B1F8CC12E9BBCF
:1056F0002549D1F8D812491C234AC2F8D8121146BC
:10570000D1F8D8124FF47A72B1FBF2F302FB131105
:1057100061BB1D49D1F8D812B1FBF2F04FF46161C1
:10572000B0FBF1F11822B1FBF2F302FB13110AB244
:105730001549A1F8BC224FF46161B0FBF1F201FB05
:1057400012013C22B1FBF2F1B1FBF2F302FB1311A7
:105750000AB20D49A1F8BE224FF46161B0FBF1F22B
:1057600001FB12013C22B1FBF2F300E00AE002FB74
:1057700013110AB20449A1F8C02203E00021024A31
:10578000C2F8D812704700002801002010B519484F
:1057900090F864020E2826D117480078A0B9154861
:1057A000B0F9B0021549C96E88420DDB1148B0F955
:1057B000B002642808DA0620FBF71EFB01200E4920
:1057C000087000200E4908700D48007880B909481B
:1057D000B0F9B00264280BDB0220FBF70DFB0120BF
:1057E0000749087004E00020034908700449087064
:1057F00010BD000028010020CC040020540000202F
:10580000CD04002010B515480078012809D11448AE
:10581000007800F099FD01281ED100200F49087082
:105820001AE010480088012809D10F480088FEF7C7
:10583000BDFF012810D100200A4908800CE00B4868
:105840000088012808D10A48008800F039FD0128A5
:1058500002D100200549088010BD00000505002088
:1058600006050020080500200A0500200C05002080
:105870000E05002010B50446344890F864020E2846
:1058800054D13248B0F9AC12B0F9C402814224DAE2
:1058900000202F4908802F4908802F480188008860
:1058A000401C2D4A10802D48008881424DDD2B4838
:1058B00000881146088001202449A1F866020020D2
:1058C000A1F868022648008800283ED1012024491A
:1058D00008800620FBF790FA37E01C48B0F8660213
:1058E000012832D100201C4908801D490880184831
:1058F00001880088401C164A10801A48008881429E
:1059000023DD184800881146088000200F49A1F8BF
:1059100066020120A1F868020E480088A8B901209B
:105920000C4908800220FBF767FA0EE000200749C7
:10593000A1F8660208490880094908800349A1F8CE
:105940006802034908800349088010BD280100202F
:10595000C4040020CA040020BC040020BE040020AF
:10596000C2040020C604002010B50446364890F852
:10597000640213285FD13548D0F8AC103248B0F932
:10598000AC02814205D832480068401C30490860AA
:1059900007E02F48006820B12D480068401E2C49C0
:1059A0000860B4B104EB4400C0EBC4102849096896
:1059B000B1EBC00F0DD34FF47A70604324490860F7
:1059C0002448006828B90220FBF716FA0120214973
:1059D00008601E48D0ED0A0A1B48B0F9AC0200EE80
:1059E000100AB8EEC00AF4EEC00AF1EE10FA05DBB8
:1059F00019480068401C1849086007E0164800680C
:105A000020B115480068401E13490860D4B11248FF
:105A10000068B0F5FA7F15D34FF4FA700E490860AC
:105A20000C48006801280DD10620FBF7E5F900209D
:105A30000849086006E0002005490860064908603A
:105A40000449086010BD0000280100205400002017
:105A5000D0040020D8040020D404002030B589B040
:105A6000E54C002594F86202052870D2DFE800F0CA
:105A70000310213E460094F8630228B964220F21E6
:105A8000012001F03FFB02E0012084F86202B0E156
:105A900094F8D10260B9012207212020FEF7B6FE5A
:105AA000012805D10020D5490860022084F862024F
:105AB0009FE194F8D102012806D10020CF49086067
:105AC000032084F8620210E0CC480068B0F5FA6F59
:105AD00005D2CA480068401CC849086005E000209B
