:020000040800F2
:1000000038230020690200087702000879020008FE
:100010007B0200087D0200087F020008000000004B
:100020000000000000000000000000008102000845
:100030008302000800000000850200088702000813
:100040008902000889020008890200088902000864
:100050008902000889020008890200088902000854
:100060008902000889020008890200088902000844
:10007000C903000805040008410400087D040008C5
:10008000B9040008F5040008890200088902000884
:100090008902000889020008890200088902000814
:1000A0008902000889020008890200088902000804
:1000B00089020008890200088902000889020008F4
:1000C00089020008890200088902000889020008E4
:1000D00089020008B905000849070008D10800088E
:1000E00089020008890200088902000889020008C4
:1000F00089020008890200088902000889020008B4
:10010000000000000000000000000000890200085C
:100110008902000889020008A50500088902000874
:100120008902000889020008890200088902000883
:100130008902000889020008000000000000000099
:1001400089020008890200088902000800000000F6
:10015000000000000000000000000000000000009F
:100160000000000000000000890200088902000869
:1001700089020008000000000000000000000000EC
:10018000000000008902000800F002F800F05CF8AE
:100190000AA090E8000C82448344AAF10107DA45E2
:1001A00001D100F051F8AFF2090EBAE80F0013F0D8
:1001B000010F18BFFB1A43F001031847EC6600005B
:1001C0000C6700000A444FF0000C10F8013B13F0DC
:1001D000070408BF10F8014B1D1108BF10F8015BA0
:1001E000641E05D010F8016B641E01F8016BF9D193
:1001F00013F0080F1EBF10F8014BAD1C0C1B09D1EA
:100200006D1E58BF01F801CBFAD505E014F8016B5B
:1002100001F8016B6D1EF9D59142D6D370470000ED
:100220000023002400250026103A28BF78C1FBD8FF
:10023000520728BF30C148BF0B6070471FB506F09A
:1002400093F91FBD10B510BD00F05CF81146FFF723
:10025000F5FF03F043F800F07AF803B4FFF7F2FF7C
:1002600003BC00F081F800000B48016841F4700104
:1002700001600A480047FEE7FEE7FEE7FEE7FEE70B
:10028000FEE7FEE7FEE7FEE7FEE70000044805495B
:10029000054A064B7047000088ED00E08901000820
:1002A000380B002038230020381700203817002092
:1002B0004FF0000200B5134694469646203922BFFF
:1002C000A0E80C50A0E80C50B1F12001BFF4F7AF4A
:1002D000090728BFA0E80C5048BF0CC05DF804EB2C
:1002E000890028BF40F8042B08BF704748BF20F89A
:1002F000022B11F0804F18BF00F8012B7047704798
:1003000070477047754600F02BF8AE460500694609
:10031000534620F00700854618B020B5FFF7B6FF1A
:10032000BDE820404FF000064FF000074FF00008F6
:100330004FF0000B21F00701AC46ACE8C009ACE877
:10034000C009ACE8C009ACE8C0098D46704710B5DB
:100350000446AFF300802046BDE81040FFF77DBFA4
:1003600000487047D40A002001491820ABBEFEE7C0
:10037000260002007047F0B502460024002300204A
:10038000002500BF1CE00024012012E052F820707C
:10039000461E52F82660B74209DA461E52F8265029
:1003A00052F8207042F8267042F820500124461C72
:1003B000F0B2CE1A8642E9DC04B9F0BD5E1CF3B29D
:1003C0008B42E0DB00BFF8E710B50A4A11680A4A21
:1003D000106800F04BFF60B10749086800F03AFF71
:1003E00006490868064901F0EAFD0249086800F07C
:1003F000A1FE10BD6868000804060020C8050020A2
:100400000601060010B50A4A11680A4A106800F091
:100410002DFF60B10749086800F01CFF0649086815
:10042000064901F0CCFD0249086800F083FE10BDCA
:100430006868000804060020C805002006010600C0
:1004400010B50A4A91680A4A906800F00FFF60B13F
:100450000749886800F0FEFE06498868064901F0F1
:10046000AEFD0249886800F065FE10BD68680008AE
:1004700004060020C80500200601060010B50A4A3F
:1004800091680A4A906800F0F1FE60B107498868F7
:1004900000F0E0FE06498868064901F090FD024937
:1004A000886800F047FE10BD686800080406002058
:1004B000C80500200601060010B50A4A51680A4A1C
:1004C000506800F0D3FE60B10749486800F0C2FEF2
:1004D00006494868064901F072FD0249486800F083
:1004E00029FE10BD6868000804060020C805002029
:1004F0000601060010B50A4A51680A4A506800F021
:10050000B5FE60B10749486800F0A4FE0649486896
:10051000064901F054FD0249486800F00BFE10BD89
:100520006868000804060020C805002006010600CF
:1005300010B5014600200D4B1B880C4CA4882344A9
:100540000A4C248923449AB2094B1A6040F2E5739D
:100550005343C3F30B02914206D1064B196042F29A
:10056000CD03054C2360012010BD00004008002091
:1005700020000020240000202800002070B1084A3C
:1005800052F8212012680260054A52F82120526870
:100590004260034A52F8212092688260704700004E
:1005A0002C00002010B50121024801F09BFB00F057
:1005B00063FC10BD0010004038B55C488068C0691D
:1005C00000900098C0F3C02038B358498868584953
:1005D00001F016FC5749886800F03CFE55498868D0
:1005E00000F076FE5449B1F88C10081A81B25248D6
:1005F000C06F018001215048D0F8800001704E4B3F
:10060000B3F88C20D3F888104A4B986800F078FD36
:100610004849886800F023FE87E00098C0F3401046
:10062000A0B142498868454901F0EAFB3F49886822
:1006300001F0EFFC4049CB6FC96F891C3E4AD1677E
:100640001A883D49D1F8881088546EE00098C0F3AC
:10065000C01020B90098C0F3801000284DD0009839
:10066000C0F38010B0B131498868354901F0C8FB4A
:100670000021314880F8771090F87100042804D0E8
:100680002D4890F8710005284FD12B48703002F0AA
:1006900027F94AE00098C0F3C010002845D023494C
:1006A0008868284901F0ACFB2348B0F87A10B0F80C
:1006B000780081420FDB1D498868224901F065FC02
:1006C0001A4988681E4901F09BFB184988681C4933
:1006D00001F075FC29E0184AB2F87A30B2F87A20B5
:1006E000521C94B2144AA2F87A40D2F88420D15C09
:1006F0000E4A906801F0D2FC17E0009800F001006B
:1007000078B90098C0F3400058B90098C0F3800051
:1007100038B90098C0F3C00018B90098C0F30020A1
:1007200018B10548703001F055FF38BDC8050020EC
:100730001A010B001C0600202806002005010500F8
:10074000060106000701070038B55A484068C0692D
:1007500000900098C0F3C02028B356494868564915
:1007600001F04EFB5549486800F074FD5349486854
:1007700000F0AEFD5249B1F85410081A81B2504849
:10078000406C018001214E48806C01704C4BB3F8E5
:100790005420196D494B586800F0B2FC474948682D
:1007A00000F05DFD85E00098C0F3401098B141492C
:1007B0004868444901F024FB3E49486801F029FC9F
:1007C0003F494B6C496C891C3D4A51641A883C492D
:1007D000096D88546DE00098C0F3C01020B90098EE
:1007E000C0F3801000284CD00098C0F38010B0B146
:1007F00030494868344901F003FB0021304880F853
:100800003F1090F83900042804D02D4890F83900A2
:1008100005284ED12A48383002F062F849E00098A5
:10082000C0F3C010002844D022494868274901F08D
:10083000E7FA2348B0F84210B0F8400081420FDBDD
:100840001C494868214901F0A0FB1A4948681E4923
:1008500001F0D6FA174948681B4901F0B0FB28E0BF
:10086000174AB2F84230B2F84220521C94B2144AED
:10087000A2F84240D26CD15C0E4A506801F00EFCE6
:1008800017E0009800F0010078B90098C0F340002C
:1008900058B90098C0F3800038B90098C0F3C00080
:1008A00018B90098C0F3002018B10548383001F09D
:1008B00091FE38BDC80500201A010B001C0600205F
:1008C00028060020050105000601060007010700B3
:1008D00038B555480068C06900900098C0F3C02042
:1008E00010B351490868514901F08AFA5049086823
:1008F00000F0B0FC4E49086800F0EAFC4D49898BD5
:10090000081A4C49C968088001204A4909690870D9
:10091000484B9A8B9969464B186800F0F1FB4449A3
:10092000086800F09CFC7EE00098C0F34010A0B185
:100930003D490868404901F063FA3B49086801F005
:1009400068FB3C49C9680A883A49C968891C394B1F
:10095000D96019468969885465E00098C0F3C010D1
:1009600020B90098C0F38010002845D00098C0F34B
:10097000801098B12C490868304901F041FA0020F4
:100980002C49C87108464078042803D008464078AE
:10099000052848D1274801F0A3FF44E00098C0F3A0
:1009A000C01000283FD020490868254901F028FAE6
:1009B000204840891F49098988420FDB1A49086885
:1009C0001F4901F0E2FA184908681C4901F018FAB9
:1009D00015490868194901F0F2FA24E0154A5389CB
:1009E0005289521C134C628122465269D15C0E4AD4
:1009F000106801F053FB16E0009800F0010078B990
:100A00000098C0F3400058B90098C0F3800038B98E
:100A10000098C0F3C00018B90098C0F3002010B1CE
:100A2000044801F0D7FD38BDC80500201A010B00AD
:100A30001C0600202806002005010500060106000E
:100A40000701070010B50446074801680068401C0C
:100A5000054A1060B1FBF4F004FB101010B900203F
:100A600001F0AAFB10BD00000800002010B5684886
:100A70000088012813D1674801880088401C654A16
:100A8000108040F6AC50814209DB002060490880AC
:100A90000620614908700020887002F059FD5E4808
:100AA0000078082871D2DFE800F0040C718283839B
:100AB000144B002002F0FCFC0020574981F846004E
:100AC00077E0002002F0F4FC0120534981F8460051
:100AD0006FE00120504981F846000846B0F84A000E
:100AE000062190FBF1F04C49A1F8480008468078B7
:100AF00010BB012002F0DCFC002002F037FD0128D1
:100B00000AD1002002F024FD002002F03DFD012862
:100B100002D19620414908704048007800280EDD37
:100B20003E480078401E3D4908700846007830B9BC
:100B300001203949887002E0002002F0B9FC38E059
:100B40003548807890B9002002F010FD01280DD1C1
:100B5000002002F0FDFC002002F016FD012813D158
:100B60002D49887096202D4908700DE02A4880781C
:100B7000012809D129480078401EC0B227490870D1
:100B800010B901202449087013E011E0012002F09F
:100B90008FFC0120204981F846002148B0F8A400CC
:100BA000A1F84800002088700320087001E000E0F0
:100BB00000BF00BF022002F0D9FC01280CD10220A6
:100BC00002F0C6FC022002F0DFFCB0B9002012499E
:100BD00081F84700086510E0012002F0C7FC0128F9
:100BE0000BD102F0B5FC012002F0CEFC28B90120A7
:100BF000094981F8470000200865074BB3F84820F1
:100C000093F8471093F84600002302F08BFB10BDC9
:100C10008205002084050020280500208005002092
:100C20005400002010B5714890ED010A80ED040ACF
:100C3000D0ED040A008900EE100AB8EE400A20EE5A
:100C4000800A6A4880ED040A90ED040ADFED680A24
:100C500080EE201A80ED041AD0ED040A90ED030A0C
:100C6000B8EEC00A20EE800A80ED040A90ED070A73
:100C7000B8EEC00AD0ED050A20EE200ABCEEC00A8C
:100C800010EE100A59490884084690ED070AB8EE9C
:100C9000C00AD0ED060A20EE200ABCEEC00A10EE13
:100CA000100A4884084690ED040AF0EE000A20EE8F
:100CB000200A80ED090A408C098C401A4B49C96909
:100CC000084400EE100AB8EEC00A4848D0ED090A00
:100CD00080EE801A80ED091AD0ED090A008C00EE32
:100CE000100AB8EE400A80EE801A404880ED0A1AD9
:100CF0009FED400A80ED0B0A008C3C4908860846AF
:100D000090ED090ABCEEC00A10EE100A81B2374815
:100D1000418690ED090ABCEEC00A10EE100A80B2BE
:100D2000401C00EE100AB8EEC00A3048D0ED090AA7
:100D300070EE600A408C2D49098C401A00EE100AB2
:100D4000B8EEC00A20EE800ABCEEC00A10EE100A0F
:100D500081B226488186018C808E084481B2234866
:100D6000C18690ED090ABCEEC00A10EE100A401CC4
:100D700081B21E480187408C1C49098C411A1B48CE
:100D8000808E081A81B219484187C0691749498C79
:100D9000401A00EE100AB8EEC00A1448D0ED090A55
:100DA00080EE801AB1EE410A80ED0F0A90ED0F0A35
:100DB000F1EE400A90ED070AB8EEC00A20EE800A74
:100DC00080ED100A0020094981F8460081F84700AB
:100DD0003220A1F848000B46B3F8482093F847109A
:100DE00093F84600002302F09DFA10BD280500206C
:100DF0000000B44300000000014908707047000083
:100E00002805002010B504460E48806F012807D041
:100E1000042001F0C1F902210B48A0F8CA1210E029
:100E2000012C07D1042001F0B7F901210648A0F8F0
:100E3000CA1206E0042001F09FF900210248A0F840
:100E4000CA1210BD540000202801002010B5084827
:100E5000007801280AD10748006840F6E44188423A
:100E600004D300200249087002F05AF910BD0000B6
:100E7000040000200000002010B500241048006885
:100E8000401C0F49086000BF4AF6AA200D4908809F
:100E900000BF4FF47A70FFF7D5FDFFF7D7FF02F0E0
:100EA0005BF902F07FFB01F0CBFE012802D101F0DB
:100EB0003BFE044604F0C8FCFFF7D8FD10BD00005F
:100EC0000000002000300040F0B502460D46FF2132
:100ED000FF24002009E0167886EA04030A4EF65C37
:100EE00086EA0104094EF15C521C2E1EA5F1010593
:100EF000F1D108464FF6FF7606EA002000F47F4065
:100F00000619B0B2F0BD0000A4650008A466000890
:100F10002DE9F04106460027002400255EBB00BFF6
:100F200026E0384601F0BCF80546002406E0002122
:100F300005F1340040F82410601CC4B20A2CF6DB22
:100F4000002411E09FED210A05F1840000EB8400EC
:100F500080ED000A9FED1D0A05F1B00000EB840052
:100F600080ED000A601CC4B20B2CEBDB781CC7B20E
:100F7000012FD6DB28E0012E26DC701EC7B23846D2
:100F800001F08EF80546002406E0002105F134004A
:100F900040F82410601CC4B20A2CF6DB002411E0D7
:100FA0009FED0A0A05F1840000EB840080ED000A41
:100FB0009FED060A05F1B00000EB840080ED000A09
:100FC000601CC4B20B2CEBDBBDE8F081000000001C
:100FD00030B5024600210020E2B900BF17E0002032
:100FE00011E0002401EB8103184D05EB03131433CA
:100FF00023F8104001EB810305EB0313283323F89A
:101000001040431CD8B20A28EBDB4B1CD9B2022992
:10101000E5DB19E0012A17DC531ED9B2002011E0EC
:10102000002401EB8103094D05EB0313143323F86E
:10103000104001EB810305EB0313283323F8104024
:10104000431CD8B20A28EBDB30BD0000CC090020DD
:10105000024989680143014A91607047002004E019
:101060000249C9680143014AD1607047002004E089
:101070004FF0E020006920F004004FF0E02108610B
:101080000A4880680A49B0FBF1F0C0F3CF00094973
:1010900008800846008800EB4001C1EBC0104FF605
:1010A000FF7101EAC000044908807047B00A0020BF
:1010B00040420F00860500208805002001460F4AA7
:1010C00012884A434FF0E0235A6100229A611A467F
:1010D000126922F00102521C1A6100BF4FF0E02297
:1010E000106900F001021AB100F48032002AF5D034
:1010F00000224FF0E0231A619A61704786050020B4
:10110000436862F30F034360C1607047002100220F
:1011100000F080520AB1012100E0002111B1034B1F
:10112000186001E0024B5860704700000404024060
:1011300000000240002200F000420AB1024900E033
:10114000024948607047000000040240000002406D
:10115000016821F0010101600021016041686FF325
:101160000F01416000218160C1603849884204D18B
:101170000F21364A083A516067E0344914318842F9
:1011800004D1F021314A083A51605EE02F492831FC
:10119000884205D14FF470612C4A083A516054E0FE
:1011A0002A493C31884205D14FF47041274A083A18
:1011B00051604AE025495031884205D14FF47021F1
:1011C000224A083A516040E020496431884205D102
:1011D0004FF470011D4A083A516036E01B497831DE
:1011E000884205D14FF07061184A083A51602CE0EE
:1011F0001749884203D10F21021F116025E01449CD
:101200001431884204D1F021114A121F11601CE0F0
:101210000F492831884205D14FF470610C4A121FE2
:10122000116012E00A493C31884205D14FF4704107
:10123000074A121F116008E005495031884204D165
:101240004FF47021024A121F1160704708000240DB
:1012500008040240016821F0010101607047016843
:1012600021F00101491C016070470000F0B5034600
:101270000024A44600250026002701F0004401F0C8
:10128000E0404FEA107C0CB10F4A00E00F4A1468AE
:1012900004EA010008B1012600E00026ACF10100DB
:1012A0008000C1401D6805F00E0501EA050008B187
:1012B000012700E00027012F03D1012E01D10120D9
:1012C000F0BD0020FCE700000004024000000240E6
:1012D00008B5014648680090009880B208BD2DE925
:1012E000F04704460D461646DDE9099ADDF82080F0
:1012F0000B9F2046FFF72CFF206820F480402060E1
:10130000206868F34510206020686AF304102060AC
:10131000206820F0800080302060206820F04000AD
:101320002060206867F38B202060206867F3092025
:101330002060206869F30D302060606863F30F005F
:101340006060E560A660BDE8F08702680A4302605D
:10135000704708B5036823F00103036006E00368E3
:101360000093009B03F0010303B900E0F7E700BF1F
:10137000C160436862F30F034360036823F0010315
:101380005B1C036008BD08B5036823F0010303601C
:1013900006E003680093009B03F0010303B900E03B
:1013A000F7E700BFC160436862F30F03436003685F
:1013B00023F001035B1C036008BD000030B5044648
:1013C000042500F061F80546042D16D10C4800698B
:1013D00020F00200801C0A49086108464461006947
:1013E00020F040004030086100F04EF80546044807
:1013F000006920F0020002490861284630BD000063
:10140000002002400420094AD16801F001020AB11B
:1014100001200AE001F010020AB1022005E001F00B
:1014200004020AB1032000E00420704700200240BB
:101430000348006920F0800080300149086170474E
:101440000020024030B5002306E00388801C048899
:1014500043EA044410C1801C141EA2F10105AAB283
:10146000F3D130BD0549086900F0800121B104497C
:10147000024A516003495160704700000020024059
:1014800023016745AB89EFCD10B54FF0FF3304243E
:10149000FFF7B8FF044603E0FFF7B4FF04465B1E06
:1014A000012C01D1002BF7D103B90524204610BD32
:1014B0002DE9F04104460D46164604274FF000087A
:1014C000FFF7E2FF0746042F2CD11848006920F0EF
:1014D0000100401C1549086100BF28882080FFF7E3
:1014E000D3FF0746042F09D104F102082868000C35
:1014F000A8F80000FFF7C8FF074606E00B480069A0
:1015000020F001000949086105E0701E86B2241D23
:101510002D1D002EE1D100BF0448006920F001001C
:10152000024908613846BDE8F08100000020024011
:10153000F0B5002300244D07ED0E02FA05F308294B
:101540000BDA4E07F70E0F26BE40056AB54305625B
:10155000056A45EA030404620AE04E07F70E0F2607
:10156000BE40456AB5434562456A45EA03044462A4
:10157000F0BD2DE9F0430C46079E00210025002711
:1015800000BF60E04FF0010C0CFA01F504EA05071A
:10159000AF4257D14FEA41094FF0030808FA09F862
:1015A000D0F800C02CEA080CC0F800C04FEA41098E
:1015B0004FF0030808FA09F8D0F804C02CEA080C28
:1015C000C0F804C04FEA41094FF0030808FA09F8CF
:1015D000D0F80CC02CEA080CC0F80CC04FEA410946
:1015E0004FF0030808FA09F8D0F808C02CEA080CF4
:1015F000C0F808C04FEA41094FF0020808FA09F89C
:10160000D0F800C04CEA080CC0F800C003FA01F89A
:10161000D0F804C04CEA080CC0F804C04FEA4108F6
:1016200002FA08F8D0F80CC04CEA080CC0F80CC05C
:101630004FEA410806FA08F8D0F808C04CEA080C4E
:10164000C0F808C0491C10299CD3BDE8F083F0B550
:101650000B4600210024002500BF25E0012606FAE4
:1016600001F403EA0405A5421DD14FEA410C03270A
:1016700007FA0CF70668BE4306604FEA410C0327E1
:1016800007FA0CF7C668BE43C6604FEA410C002754
:1016900007FA0CF706683E4306604F0002FA07F7A8
:1016A000C6683E43C660491C1029D7D3F0BD2DE95A
:1016B000F0430C46079E00210025002700BF60E094
:1016C0004FF0010C0CFA01F504EA0507AF4257D1BF
:1016D0004FEA41094FF0030808FA09F8D0F800C0B2
:1016E0002CEA080CC0F800C04FEA41094FF003088B
:1016F00008FA09F8D0F804C02CEA080CC0F804C0B5
:101700004FEA41094FF0030808FA09F8D0F80CC075
:101710002CEA080CC0F80CC04FEA41094FF003084E
:1017200008FA09F8D0F808C02CEA080CC0F808C07C
:101730004FEA41094FF0010808FA09F8D0F800C053
:101740004CEA080CC0F800C003FA01F8D0F804C055
:101750004CEA080CC0F804C04FEA410802FA08F845
:10176000D0F80CC04CEA080CC0F80CC04FEA410895
:1017700006FA08F8D0F808C04CEA080CC0F808C00F
:10178000491C10299CD3BDE8F083028B0A430283D5
:101790007047000045F25551064A118011464968CC
:1017A00021F00701C91C5160114688604CF6CC41FC
:1017B000118070470030004000F01F02012191406D
:1017C0004211920002F1E022C2F8001170470000BD
:1017D00070B50346002000250F240B4E366806F432
:1017E000E066C6F5E066C6F30720C0F10406F5B270
:1017F000044101FA05F6F0B202EA04063043060796
:10180000300E024EF05470BD0CED00E000E400E03C
:10181000024949690143014A516170470010024081
:101820000249C9690143014AD16170470010024071
:10183000024909698143014A116170470010024061
:10184000024909690143014A1161704700100240D1
:10185000024989690143014A9161704700100240C1
:101860000249C9688143014AD160704700100240B3
:101870000249C9680143014AD16070470010024023
:10188000F0B5054600210022002300240020384E38
:10189000367906F00C0121B1042906D0082922D19D
:1018A00008E0344E344F7E6021E0334E3668324FCC
:1018B0007E601CE02E4E7468C4F300447068C0F370
:1018C00083400E2801D2801C00E010202CB12A4E4B
:1018D0003668760806FB00F302E0264E464373089E
:1018E000254E736003E0234E234F7E6000BF00BF90
:1018F0001F4E3679C6F30311204E725C1E4E766879
:10190000D6401D4FBE601A4EB688C6F302211C4E4B
:10191000725C3E46B668D640FE60154EB688C6F389
:10192000C221174E725C3E46B668D6403E613E46C6
:10193000B668FF68BE4204D10F4EF6680E4F7E6156
:1019400004E00D4EF66876000B4F7E610A4EB668D5
:10195000094F3F69BE4204D1074E3669064FBE614A
:1019600004E0054E36697600034FBE61F0BD00000D
:101970000010024000127A00B00A0020D4060020B5
:10198000E40600202DE9F04F82460F469046994626
:10199000DDF824B0002400250026A848006840F4A3
:1019A0007000A6490860A648006840F00100A449FC
:1019B000086008464068A3490840A14948600846B5
:1019C0000068A14908409E4908600846006820F464
:1019D000802008600846406820F4FE004860084601
:1019E000C06A20F00F00C8620846006B97490840A3
:1019F0009349086300208860002F73D11220944916
:101A000008608F48006820F00100401C8C49086085
:101A100000BF00BF00BF6D1C8948046804F00204C9
:101A20001CB98C4800688542F5D38548046804F0E9
:101A3000020414B90120BDE8F08F8148406820F00D
:101A4000F00070307E4948600846406869F30A201B
:101A50004860084640686BF3CD20486008464068FF
:101A600020F48030486040464FEAE87108EB9171FD
:101A7000C1F38F06102E02DAB01E86B200E00F26E8
:101A80006F48406866F395406D49486008460068B5
:101A900020F0807000F1807008600024002500BFF5
:101AA0006D1C6748046804F000741CB9694800683C
:101AB0008542F5D96248046804F000740CB902202C
:101AC000B9E75F48406820F00300801C5C4948602B
:101AD000002400BF5A48446804F00804082CF9D1D7
:101AE0009FE0FFE75648C06A20F00F005449C862E3
:101AF0000846006820F47F00086000240025BAF141
:101B0000010F06D10846006820F4802000F58020EF
:101B100008604B48006820F4803000F58030484968
:101B2000086000BF6D1C4648046804F400341CB90A
:101B3000484800688542F5D34748784347490860DC
:101B40003F48046804F400340CB9012073E74048AE
:101B5000006820F0100010303D4908600846006819
:101B600020F00700801C08603548406820F0F00035
:101B70007030334948600846406869F30A2048607D
:101B8000084640686BF3CD2048600846406820F462
:101B9000003000F5003048600846406820F480308E
:101BA00000F5803048600026384607EBD0714910B8
:101BB00098FBF1F18EB2102E02DAB01E86B200E070
:101BC0000F261F48406866F395401D494860084647
:101BD000006820F0807000F180700860002400250B
:101BE00000BF6D1C1648046804F000741CB9194845
:101BF00000688542F5D31248046804F000740CB9FB
:101C0000022018E70E48406820F00300801C0C49B1
:101C10004860002400BF0A48446804F00804082C07
:101C2000F9D1064980390A9808600D48091D0860F5
:101C30000A48FFF725FE0020FDE6000088ED00E0E1
:101C4000001002400CC07FF8FFFFF6FECCFC00FF46
:101C500000200240EC06002040420F00B00A0020A5
:101C60000005FA0530B51C4611B90025058517E0B9
:101C7000164DA8420BD0164DA84208D0154DA842CB
:101C800005D0154DA84202D0144DA84202D1144DE2
:101C9000AB6901E0124D6B69B3FBF1F56D1E058573
:101CA000B0F1804F01D1C26201E095B2C562056812
:101CB00025F440750560056864F30415056000258A
:101CC0000561056825F00105056030BD002C014067
:101CD0000034014000400140004401400048014000
:101CE000B00A0020CA4392B20261704710B50446A0
:101CF0003448844206D14015FFF7BAFD6015FFF75E
:101D0000AFFD5EE0B4F1804F06D10120FFF798FDF2
:101D10000120FFF78DFD54E02B48844206D10220BC
:101D2000FFF78EFD0220FFF783FD4AE0274884423B
:101D300006D10420FFF784FD0420FFF779FD40E081
:101D40002348844206D11020FFF77AFD1020FFF7C8
:101D50006FFD36E01F48844206D12020FFF770FD5A
:101D60002020FFF765FD2CE01B48844206D140147B
:101D7000FFF77EFD6014FFF773FD22E017488442F1
:101D800008D14FF48030FFF773FD4FF48030FFF738
:101D900067FD16E01248844208D14FF40030FFF787
:101DA00067FD4FF40030FFF75BFD0AE00D48844209
:101DB00007D14FF48020FFF75BFD4FF48020FFF741
:101DC0004FFD10BD002C0140000400400008004001
:101DD0000010004000140040003401400040014069
:101DE0000044014000480140016821F00101491C04
:101DF00001607047C2680A43C26070470162704761
:101E000010B5002200230A0C01249440A3B20362FF
:101E100010BD000010B504461D48844208D14FF49F
:101E20008040FFF725FD4FF48040FFF719FD2EE0BD
:101E30001848844208D14FF40030FFF701FD4FF4F9
:101E40000030FFF7F5FC22E01348844208D14FF43C
:101E50008020FFF7F5FC4FF48020FFF7E9FC16E047
:101E60000E48844208D14FF40020FFF7E9FC4FF4FC
:101E70000020FFF7DDFC0AE00948844207D14FF457
:101E80008010FFF7DDFC4FF48010FFF7D1FC10BD90
:101E9000003801400044004000480040004C004031
:101EA00000500040816821F040014031816070475E
:101EB000816821F080018031816070470246D069DD
:101EC000084008B1012070470020FCE72DE9F041EF
:101ED00004460F4615461E46DDF81880206820F09F
:101EE000010020600020A060606866F30D30606033
:101EF000206868F34A202060206820F00400001D5C
:101F00002060206820F0080008302060606820F41D
:101F1000000000F500006060606900F07F40233041
:101F2000606175B1012D15D0022D1ED1206820F4FD
:101F300080502060206820F0805000F180502060A8
:101F400014E0206820F480502060206820F0805049
:101F500020600BE0206820F4805000F58050206065
:101F6000206820F08050206000E000BF00BF3946AC
:101F7000204600F055F84FF0FF302062206820F036
:101F80000100401C2060BDE8F08130B50023002432
:101F90000022C1F30723CCB2012505FA04F2022B7B
:101FA00003D145689543456008E0032B03D185685C
:101FB0009543856002E005689543056030BD30B506
:101FC000002300240022C1F30723CCB2012505FA27
:101FD00004F2022B03D145681543456008E0032B4A
:101FE00003D185681543856002E0056815430560E7
:101FF00030BD10B50B46002108E000BF047FC4F3DC
:10200000C014002CFAD05C5C8462491C9142F4D369
:1020100010BD08B50146486A00900098C0B208BDDE
:1020200070B5002200230024056825F00105056035
:10203000184DA84202D1184D2A6901E0164DEA68F0
:102040000588C5F3C03545B15500B5FBF1F3550022
:10205000B5FBF1F601FB165405E0B2FBF1F3B2FB60
:10206000F1F501FB1524B4EB510F00D35B1C05887F
:10207000C5F3C03535B1C3F342044FF6F0751D40CA
:1020800045EA04039DB2C560056825F001056D1C95
:10209000056070BD00380140B00A002081627047C1
:1020A00001460548012906DA01EB8102C2EB8112E3
:1020B000034603EB82007047F00600201CB504467F
:1020C0000320034648220821CDE900040020FFF741
:1020D00059FC1CBD10B5FEF7CBFF10BD0146084BE7
:1020E00053F82120074B33F81100136903400BB15B
:1020F000012300E000230BB9002070470120FCE71A
:10210000A8050020F067000838B500240EE0144947
:1021100051F82400FFF77CFB124A32F81410124ADF
:1021200052F824000022FFF792FA641C082CEED328
:10213000002411E00D4951F82400FFF769FB00204D
:102140000B4A009032F814100A4A52F82400002377
:102150000122FFF7ACFA641C072CEBD338BD00005A
:10216000D0670008F0670008A8050020A4670008F1
:10217000C06700088C05002000B50346044A32F809
:102180001310044A52F82300FFF7FFFA00BD0000C5
:10219000C06700088C050020054B53F82010054B44
:1021A00033F810204B8B13434B8300BF7047000064
:1021B0008C050020C0670008054B53F82010054B24
:1021C00033F810204B6953404B6100BF704700004B
:1021D0008C050020C067000810B504460F48FFF7C3
:1021E00085FD1020FFF71CFB1020FEF731FF621E5B
:1021F00000230B490948FFF735FD0722002136204F
:10220000FFF7E6FA3620FFF7D7FA01210348FFF778
:10221000F1FD0248FFF7E8FD10BD0000001000408E
:1022200040420F0070B504460D46164621780F4A0D
:1022300052F821000E49FFF7E3FD21780B4A52F8CE
:1022400021000C49FFF7DCFD2178084A52F82100F3
:102250004FF44071FFF7D4FD2178074A52F821006E
:1022600032462946FFF78FF870BD0000C8050020F0
:102270001A010B00060208001C06002038B50446AF
:10228000607808287DD2DFE800F0042345649B9C39
:10229000F1EF2178C34A52F82100FFF7B9FA012083
:1022A00000902278C04B33F81210C04B53F8220034
:1022B00000230122FFF75DF92378BD4DEA5CBD4D97
:1022C00035F81310B94D55F82300FFF731F966E1E1
:1022D0002178B44A52F82100FFF79AFA01200090C1
:1022E0002278B14B33F81210B04B53F82200002380
:1022F0000122FFF73EF92378AD4DEA5CAD4D35F88C
:102300001310AA4D55F82300FFF712F9204600F0EC
:10231000E7FA44E12178A84A52F82100FFF778FA59
:10232000012000902278A54B33F81210A44B53F8EB
:10233000220000230122FFF71CF923789C4DEA5C60
:10234000A04D35F813109E4D55F82300FFF7F0F817
:1023500025E12178984A52F82100FFF759FA2178AF
:10236000994A52F82100FFF753FA01200090227891
:10237000964B33F81210964B53F82200002301229B
:1023800000E00BE1FFF793F90120009022788B4BDE
:1023900033F81210854B53F8220000230122FFF777
:1023A000E8F82378824DEA5C864D35F81310844DA9
:1023B00055F82300FFF7BCF8204600F0A5FAEEE040
:1023C00000BF21787C4A52F82100FFF721FA2178DA
:1023D000744A52F82100FFF71BFA21787A4A52F822
:1023E0002100FFF715FA012000902278774B33F88F
:1023F0001210774B53F8220000230122FFF757F900
:102400000120009022786D4B33F812106C4B53F87A
:10241000220000230122FFF7ACF80120009022786F
:10242000614B33F81210614B53F822000023012254
:10243000FFF79FF823785E4DEA5C624D35F8131084
:102440005F4D55F82300FFF773F82378584DEA5C89
:10245000584D35F81310554D55F82300FFF768F81F
:10246000204600F03DFA9AE03DE0FFE72178524A2D
:1024700052F82100FFF7CCF921784A4A52F821009E
:10248000FFF7C6F90120009022784C4B33F8121068
:102490004B4B53F8220000230122FFF76AF801207A
:1024A00000902278404B33F81210404B53F8220032
:1024B00000230122FFF75DF823783D4DEA5C414D92
:1024C00035F813103E4D55F82300FFF731F8237807
:1024D000374DEA5C374D35F81310344D55F823006D
:1024E000FFF726F85BE02178334A52F82100FFF726
:1024F0008FF921782B4A52F82100FFF789F92178CA
:10250000314A52F82100FFF783F901200090227828
:102510002E4B33F812102E4B53F8220000230122C9
:10252000FFF7C5F8012000902278244B33F81210F1
:10253000234B53F8220000230122FFF71AF8012051
:1025400000902278184B33F81210184B53F82200E1
:1025500000230122FFF70DF82378154DEA5C194D91
:1025600035F81310164D55F82300FEF7E1FF2378D8
:102570000F4DEA5C0F4D35F813100C4D55F8230044
:10258000FEF7D6FF00BF2278104B33F81210104B25
:1025900053F82200FFF7F9F800BF00E000BF00BFCA
:1025A00038BD00002C68000838680008E0050020ED
:1025B0000F6800083E6800081468000820680008DA
:1025C000D405002026680008446800085068000808
:1025D000EC0500207FB504462046FFF74FFE20782B
:1025E000884951F820008849884206D12178874AD5
:1025F00052F82100FFF72CF905E02178834A52F8C0
:102600002100FFF70DF921787E4A52F82100FFF7EB
:1026100001FC607900902379E278A5787C4E56F829
:1026200025102578774E56F82500FFF74FFC607887
:10263000002855D0A07902283AD12178754A52F85D
:102640002100FFF7E5F8002001210222CDE9000278
:10265000CDE902102378354655F8233003F12802DE
:1026600023786D4D55F8230000236169FEF737FE8E
:102670002178324652F82100FFF71AFC2178674A88
:1026800052F82100FEF756FD2178654A505C012280
:102690000021FFF79DF82178614A505CFFF78CF824
:1026A00021782A4652F821000221FEF74EFE17E05B
:1026B000A079012814D121785A4A505C0022114691
:1026C000FFF786F821784F4A52F821005649FFF764
:1026D00097FB21784B4A52F821005349FFF76FFCD2
:1026E0006078022851D0A07902284FD121784F4A32
:1026F00052F82100FFF78CF800200222CDE90002F9
:102700000290039023783F4D55F8233003F12402C3
:102710002378474D55F823000023A169FEF7DFFD1C
:102720002178384A52F82100FFF7BCFBA28B2046E3
:10273000A169FFF777FD2178324A52F821003D491F
:10274000FFF75EFB2178374A505C01220021FFF73A
:102750003FF82178334A505CFFF72EF82178294A58
:1027600052F821003349FFF72AFC2178254A52F814
:1027700021004FF44071FFF743FB2178214A52F8C2
:1027800021004FF44071FFF71AFC3AE0A0790128CC
:1027900037D12178234A505C01220021FFF718F835
:1027A0002178204A505CFFF707F82178154A52F843
:1027B00021002149FFF724FB2178124A52F8210019
:1027C0001C49FFF71DFB21780E4A52F821001A49D7
:1027D000FFF7F5FB21780B4A52F821001549FFF766
:1027E000EEFB2178074A52F821004FF44071FFF7C1
:1027F00007FB2178034A52F821004FF44071FFF79C
:10280000DEFB7FBDC80500200038014000680008DD
:1028100080680008586800080406002068680008FE
:10282000646800080C680008070107007468000865
:102830001C0600201A010B000501050010B5044616
:10284000A079012807D12178084A52F821000849C7
:10285000FFF79BFB09E0A079022806D12178034A03
:1028600052F821000349FFF790FB10BDC805002076
:10287000050105001A010B0010B50446A0790128D6
:1028800007D12178084A52F821000849FFF797FB41
:1028900009E0A079022806D12178034A52F82100E4
:1028A0000349FFF78CFB10BDC8050020050105009A
:1028B0001A010B0070B504460D460A2D0ADAA57000
:1028C000A278054B53F822102278044B53F82200CB
:1028D000FFF7A6FB70BD000080680008C805002057
:1028E00010B50378054C54F82310054C34F8132028
:1028F0004B8B13434B8300BF10BD0000EC05002041
:10290000506800087047000010B504462278044B58
:1029100033F81210034B53F82200FEF736FF10BDB8
:1029200050680008EC0500202DE9F04104460D46F2
:102930001646E079012809D12178394A52F8210058
:10294000FEF7C6FC10B10120BDE8F08160780428D4
:1029500002D06078052802D12046FFF7D5FFA07984
:1029600030BB0120E07121782E4A52F82100324616
:102970002946FFF73EFB6078042802D060780528DE
:1029800013D100BF2178274A52F821004021FFF7D8
:1029900095FA0028F6D12046FFF7A2FF2178214AB8
:1029A00052F821004021FFF729FA0020E07134E0BD
:1029B000A079012817D10020608126816069A84292
:1029C00000D065612178174A52F821001649FFF7B7
:1029D00017FA2178134A52F821001349FFF7EFFA4A
:1029E0000120E07119E02178104A52F82100FEF729
:1029F0008DFB45B922892378094F57F82300616977
:102A0000FEF7A7FC07E02178054A52F8210032467C
:102A10002946FEF79EFC0120E071002094E70000AB
:102A200004060020C80500200701070068680008A8
:102A3000F8B5314E00250024002700BF04E0002037
:102A40004DF82400601CC4B2012CF8DB002540E0E6
:102A5000192D39DA002405E0611DC8B2FFF79CFB8F
:102A6000601CC4B2012CF7DB0A20FEF727FB002410
:102A700005E0611DC8B2FFF77FFB601CC4B2012CEA
:102A8000F7DB0A20FEF71AFB002410E05DF82400B3
:102A900040004DF82400E11DC8B2FFF71FFB0746B8
:102AA0005DF8240038444DF82400601CC4B2012CA9
:102AB000ECDB002405E0611DC8B2FFF76DFB601C74
:102AC000C4B2012CF7DB02E01420FEF7F7FA681C11
:102AD000C5B21B2DBCDB00240BE05DF8241004EB19
:102AE0008402C2EB841206EB820001F03FF8601C06
:102AF000C4B2012CF1DBF8BDF006002070B5002453
:102B0000084DFFF795FF00BF09E004EB8401C1EB1E
:102B1000841105EB810000F083F9601CC4B2012C24
:102B2000F3DB70BDF006002070B500240025002600
:102B30003F480078052873D2DFE800F00307152628
:102B4000650001203A4908706EE0002405E0611D2F
:102B5000C8B2FFF711FB601CC4B2012CF7DB0220E6
:102B60003349087060E0002405E0611DC8B2FFF73A
:102B700013FB601CC4B2012CF7DB03202C49087046
:102B800000202C4908804FE02A480088401C294931
:102B900008800846008840F28A21884208DB00202D
:102BA000244908802449087001202149087029E03F
:102BB00000240DE02148005D012807D1E11DC8B2C5
:102BC000FFF78CFA012801D1012503E0601CC4B293
:102BD000012CEFDB00BF012D06D103201449087042
:102BE0000020154908700DE0134801780078401C5A
:102BF000114A10700A2905DD04200D4908700020D3
:102C00001146087010E0FFF779FF032008490870AB
:102C100000200849088008490870012604E0FFE701
:102C200001200349087000BF00BF304670BD00009E
:102C30001A0000201C0000201E0000200C000020B4
:102C40002DE9F0412DED028B002600240025002700
:102C500069480088B0F5FA6F7CDC67480088401C42
:102C60006549088065480078082874D2DFE800F0DC
:102C7000041230BCBC234591002405E0611DC8B29C
:102C8000FFF78AFA601CC4B2012CF7DB01205B4914
:102C90000870AAE0002405E0611DC8B2FFF76CFAD5
:102CA000601CC4B2012CF7DB0520544908700020D9
:102CB0005349088099E052480088401C50490880D8
:102CC000084600880A2802DD02204C4908708CE082
:102CD000002409E0611DC8B2FFF75EFA00204949EF
:102CE00021F81400601CC4B2012CF3DB0620434918
:102CF000087000204449088077E043480088401C61
:102D00004149088000240DE0E11DC8B2FFF7E6F953
:102D100030B93C4830F81400401C3A4921F81400FE
:102D2000601CC4B2012CEFDB3748008840F28A21D6
:102D300088422DDB002419E0324830F81400322894
:102D40000ADB012004EB4401304A1144304A127876
:102D5000885409E04AE047E0002004EB44012B4A94
:102D600011442B4A12788854601CC4B2012CE3DB56
:102D700027480078401C2649087008460078032838
:102D800003DB07201D49087002E000201B49087082
:102D90002BE0002422E00026002508E004EB44009C
:102DA0001A490844405D3044C6B2681CC5B2032DC0
:102DB000F4DB304603F054FA41EC180B9FED150B91
:102DC00053EC102B03F09AFB03D80120134908554C
:102DD00002E0002011490855601CC4B2012CDADB66
:102DE00008200649087000E000BF00E001273846CF
:102DF000BDEC028BBDE8F0810E0000200D0000202C
:102E000010000020140000201200002016000020F6
:102E100019000020CCCCCCCCCCCC00400C00002045
:102E200030B52DED028B87B0044600259FED320AA8
:102E3000B0EE408AA07801285AD100BF06E0201DDC
:102E400050F825004DF82500681CC5B2072DF6DBAB
:102E500007216846FDF78FFA00202062022506E070
:102E60005DF82510206A08442062681CC5B2052D53
:102E7000F6DB0321206A90FBF1F06062002514E08C
:102E8000D4F8E00038B904F1340050F82500616A44
:102E9000814208DC0BE004F1340050F82500616A3F
:102EA000814200DB03E0681CC5B20A2DE8DB00BFED
:102EB00004F1840000EB850090ED000AB0EE408A3A
:102EC00094ED090AB8EEC00A20EE080AB0EE408A76
:102ED00004F1B00000EB850090ED000A30EE080A26
:102EE000B0EE408A94ED390A84ED3A0A84ED398ACD
:102EF00007B0BDEC028B30BD000000000146002091
:102F0000054A012906DA01EB8103C3EB811302EBC9
:102F10008303586A70470000F006002070B52DED5D
:102F2000068B04469FED1E0AB0EE408A1D49886854
:102F300003F07FF941EC1A0B9FED1B0B53EC102BA8
:102F400003F0DEF941EC190B03F036F908EE900AB4
:102F5000174D012C11DA04EB8400C0EB841005EB53
:102F6000800090ED390A04EB8400C0EB841005EB7F
:102F70008000D0ED370A30EE608AB4EEE88AF1EED8
:102F800010FA01DBB0EE688A0A48005D18B99FEDBF
:102F9000040AB0EE408AB0EE480ABDEC068B70BD64
:102FA00000000000540000209A9999999999F13FE6
:102FB000F00600200C00002030B55449002000230A
:102FC000002200BF9EE000EB8004C4EB801401F8F7
:102FD0002400002400EB8005C5EB801501EB85057E
:102FE000AC7000EB8005C5EB801501EB8505EC703E
:102FF00000EB8005C5EB801501EB85052C6200EB2D
:103000008005C5EB801501EB85056C6200230BE0A4
:10301000002500EB8004C4EB801401EB8404241D24
:1030200044F823505C1CE3B20A2BF1DB002216E0CB
:10303000374C54F8225000EB8004C4EB801401EBB1
:1030400084045C3444F82250002500EB8004C4EB77
:10305000801401EB84042834A554541CE2B20A2ADB
:10306000E6DB00221BE09FED2B0A00EB8004C4EBA3
:10307000801401EB8404843404EB820484ED000AA0
:103080009FED250A00EB8004C4EB801401EB84045F
:10309000B03404EB820484ED000A541CE2B20B2A23
:1030A000E1DB9FED1E0A00EB8004C4EB801401EB12
:1030B000840484ED370A002400EB8005C5EB8015FD
:1030C00001EB8505C5F8E0409FED140A00EB800494
:1030D000C4EB801401EB840484ED390A9FED0F0AE0
:1030E00000EB8004C4EB801401EB840484ED3A0A05
:1030F000012400EB8005C5EB801501EB85056C70A4
:10310000441CE0B20128FFF65EAF30BDF00600209F
:103110007C650008124DA03AE1DA85C3000000008A
:103120000C49002000BF11E000EB8002C2EB8012CE
:1031300001EB820292ED390A00EB8002C2EB8012B1
:1031400001EB820282ED370A421CD0B20128EBDB90
:1031500070470000F006002010B500F001F810BD27
:1031600070B50024464D00BF85E0C4EBC40115F8DE
:103170001100FEF7B3FFC4EBC40105EB4101487138
:10318000C4EBC40005EB40000079C4EBC40105EBBF
:1031900041014979884236D1C4EBC40005EB4000B7
:1031A0004088401CC4EBC40105EB41014880C4EBDE
:1031B000C40005EB40004089401CC4EBC40105EB92
:1031C00041014881C4EBC40005EB40004079E8BBF5
:1031D000C4EBC40005EB40004089B0F5FA6F3EDB5C
:1031E0000120C4EBC40105EB410148800020C4EB81
:1031F000C40105EB410148810120C4EBC40105EB8A
:10320000410108732BE0C4EBC40005EB40000079DA
:10321000C0B9C4EBC40005EB40004088C4EBC40156
:1032200005EB4101498988420CD1C4EBC40005EB90
:1032300040004088322805DB0120C4EBC40105EBC7
:10324000410108720020C4EBC40100E007E005EB77
:1032500041014880C4EBC40105EB41014881C4EB46
:10326000C40005EB40004079C4EBC40105EB41010B
:103270000871601CC4B2042CFFF677AF70BD00006B
:10328000DC0700200020144900BF21E0C21CC0EB75
:10329000C00301F813200022C0EBC00301EB43037D
:1032A0005A800122C0EBC00301EB43031A71C0EB4B
:1032B000C00301EB43035A71C0EBC00301EB4303AE
:1032C0009A71C0EBC00301EB43035A70421CD0B2A9
:1032D0000428DBDB70470000DC07002002F0C2FDA1
:1032E000FFF7D0FF00F0D4F9FFF766FE01F06EFBA8
:1032F00000F0F8F900F0B0FA01210848FDF73EF9B6
:1033000007480068FDF714F900F06EF8FDF78AFC35
:103310000120FDF777FD00BFFEE700004008002018
:10332000240000202DE9F04106460C4615461F46B4
:103330000E480078B04204D00C480670304600F0C9
:1033400027F80B480078A04204D0094804702046B2
:1033500000F012F807480088A84204D0054805800C
:10336000284600F02FF8BDE8F0810000D0060020CC
:10337000D1060020D206002010B504461CB9032057
:10338000FEF70AFF02E00320FEF7F6FE10BD000084
:1033900070B505460A4C3DB90220FEF7FDFE2068D7
:1033A00020F0010020600AE00220FEF7E5FE322056
:1033B000FDF784FE206820F00100401C206070BDF5
:1033C000004001400146064841B1064A92FBF1F235
:1033D000C262C26A520882630022426270470000E1
:1033E0000040014040420F0038B52F4C4FF4802080
:1033F000FEF70EFA4FF48030FEF72AFA0120002380
:103400000246C10300902948FEF7B3F801220F21BC
:103410002648FEF78DF82046FEF768FC4FF4803012
:10342000FEF716FA0420FDF71BFE6420E0623F2041
:103430002085206820F440702060206820F0100073
:103440002060206820F0800080302060206920F01B
:1034500001002061206A20F020002062206A20F014
:10346000100010302062A06920F4407000F58070D8
:10347000A061A06920F4E04000F5C040A061A0690F
:1034800020F4006000F50060A061E06A4008A063DD
:10349000606C20F4004000F500406064206820F07B
:1034A0000100401C206038BD00400140000400487D
:1034B00001460348026861F30002026070470000A1
:1034C0000040014010B5012800DD10BD0A2907DACF
:1034D00000EB8003034C04EB0313283323F8112083
:1034E00000BFF2E7CC09002070B5012800DD70BDF7
:1034F0000A2916DA012400EB80050B4E06EB0515B0
:1035000025F8114000EB8004354605EB0414143413
:1035100024F8112000EB800405EB0414283424F86F
:10352000113000BFE3E70000CC09002010B50128EE
:1035300000DD10BD0A2907DA00EB8003034C04EB21
:1035400003133C3323F8112000BFF2E7CC0900201D
:10355000032807DA00210246C2EBC202024B03EB4A
:10356000420211727047000014080020014600203A
:10357000032906DA0A46C2EBC202024B03EB4202FF
:10358000107A70471408002001460120032906DA4A
:103590000A46C2EBC202024B03EB4202907970472B
:1035A0001408002010B500F001F810BD70B500241B
:1035B000364D00BF67E0C4EBC40115F81100FEF7FB
:1035C0008DFDC4EBC40105EB41014871C4EBC4009F
:1035D00005EB40000079C4EBC40105EB41014979DA
:1035E000884222D1C4EBC40005EB40004088401C57
:1035F000C4EBC40105EB41014880C4EBC40005EBFA
:1036000040004088142816DB1420C4EBC40105EBED
:1036100041014880C4EBC40005EB40004079C4EB95
:10362000C40105EB4101887105E00020C4EBC40131
:1036300005EB41014880C4EBC40005EB4000407934
:10364000C4EBC40105EB41010871C4EBC40005EBF8
:103650004000C079C4EBC40105EB4101897988427F
:103660000FD0C4EBC40005EB40008079C4EBC4016B
:1036700005EB4101C8710120C4EBC40105EB410118
:103680000872601CC4B2032C95DB70BD14080020C6
:103690000020134900BF20E0C0EBC00301F8130075
:1036A0000022C0EBC00301EB43035A800122C0EBB0
:1036B000C00301EB43031A71C0EBC00301EB4303EA
:1036C0005A71C0EBC00301EB43039A71C0EBC00316
:1036D00001EB43035A70421CD0B20328DCDB704775
:1036E000140800202DE9F04FAFB00026B42102A845
:1036F000FCF7DEFD0027B046002001908146002443
:10370000002582462D2202A95248FDF79BFE2E98E5
:103710000190B02102A8FDF7D7FB0199884273D12F
:1037200000BF00BF00BF8DE009F0FF00FEF7B8FC4E
:1037300006464FF0000A2C4604F10A0085B206F155
:10374000340717E002A850F8240001C702AB53F871
:1037500024B04FEAEB730BEBD3535B121AB2514612
:103760000AF1010C0CF0FF0A09F0FF00FFF7AAFEB6
:10377000601C84B2AC42E5DB4FF0000A2C4604F139
:103780000A0085B206F15C0712E002A850F8240096
:1037900001C702AB33F824301AB251460AF1010CCA
:1037A0000CF0FF0A09F0FF00FFF7C0FE601C84B2B6
:1037B000AC42EADB2C4604F10B0085B206F184082A
:1037C00008E002A800EB840090ED000AA8EC010AD2
:1037D000601C84B2AC42F4DB2C4604F10B0085B2D1
:1037E00006F1B00808E002A800EB840090ED000AA2
:1037F000A8EC010A601C84B2AC42F4DB2C46601CCD
:1038000085B206F1DC0809E020E002A800EB8400A4
:1038100090ED000AA8EC010A601C84B2AC42F4DB13
:103820002C46601C85B206F1E00705E002A850F8BE
:10383000240001C7601C84B2AC42F7DB09F101002F
:103840001FFA80F9B9F1010FFFF66EAF2FB0BDE896
:10385000F08F000000F00308F0B5B3B0CC2168464B
:10386000FCF726FD002500240026002733226946A8
:10387000BA48FDF7E7FD329DC8216846FDF724FBF5
:10388000A8427DD100BF2146641C5DF82100B449E7
:1038900008602146641C5DF82100B2490860214699
:1038A000641C5DF82100AF4948602146641C5DF846
:1038B0002100AC4988602146641C684600EB810009
:1038C00090ED000AA74880ED030A2146641C5DF8CC
:1038D0002100A44908612146641C5DF82100A1492A
:1038E0004861261D00BF0AE05DF824203846791C97
:1038F000CFB29C49183141F82020601C84B2B442F8
:10390000F2DB2046611C8CB2694601EB800090ED31
:10391000000A944880ED0A0A2046611C8CB25DF8CA
:1039200020009049C8622046611C8CB25DF82000DE
:103930008C4908632046611C8CB25DF820008949DF
:1039400048632046611C8CB25DF82000854988637D
:103950002046611C8CB25DF820008249C863204675
:10396000611C8CB25DF820007E4908642046611C11
:103970008CB25DF820007B4948642046611C00E061
:10398000EAE08CB25DF82000764988642046611C2C
:103990008CB25DF820007349C8652046611C8CB26A
:1039A0005DF820106F4801662046611C8CB25DF8FE
:1039B00020106C4841662046611C8CB25DF82000E6
:1039C000684988662046611C8CB25DF82000654914
:1039D000C8662046611C8CB25DF82000614908670A
:1039E0002046611C8CB25DF820005E494867204685
:1039F000611C8CB25DF820005B49C8602046611CE8
:103A00008CB25DF820005849C8612046611C8CB218
:103A10005DF82000534988672046611C8CB25DF830
:103A200020005049C1F880002046611C8CB25DF82E
:103A300020104C48C0F884102046611C8CB25DF800
:103A400020104848C0F888102046611C8CB25DF8F0
:103A500020104448C0F88C102046611C8CB25DF8E0
:103A600020104048C0F890102046611C8CB25DF8D0
:103A700020103C48C0F894102046611C8CB25DF8C0
:103A800020003849C1F898002046611C8CB25DF8CE
:103A900020003449C1F89C002046611C8CB25DF8BE
:103AA00020003049C1F8A0002046611C8CB25DF8AE
:103AB00020002C49C1F8A4002046611C8CB25DF89E
:103AC00020002849C1F8A8002046611C8CB25DF88E
:103AD00020002449C1F8AC002046611C8CB25DF87E
:103AE00020002049C1F8B0002046611C8CB25DF86E
:103AF00020001C49C1F8B4002046611C8CB25DF85E
:103B000020001849C1F8B8002046611C8CB25DF84D
:103B100020001449C1F8BC002046611C8CB25DF83D
:103B200020001049C1F8C0002046611C8CB25DF82D
:103B300020000C49C1F8C4002046611C8CB25DF81D
:103B400020000849C1F8C8002046611C8CB25DF80D
:103B500020000449C1F8CC0033B0F0BD00E00308F8
:103B600024000020540000202805002010B5C27851
:103B7000072A03DB0022C27001228270B1F1807F2C
:103B800009D36FF07E42521A521C5342C478021D70
:103B900042F8243003E0C378021D42F82310C278B3
:103BA000521CC27010BD000038B5044600251548EF
:103BB000007820B1012806D0022817D115E0012095
:103BC0001049087016E00A2094FBF0F0C0B2009093
:103BD00001231A466946022000F016F8012803D195
:103BE000002008490870012504E003E00020054991
:103BF000087000BF00BF012D02D1002001490870EC
:103C0000284638BDEA0400202DE9F84F05460E4647
:103C100014461F464FF00008C246C34600200090DD
:103C200081463F48D0F84C023D49D1F848128842BD
:103C300008D93B48D0F84C023949D1F84812401A0B
:103C4000322810D23648D0F84C023549D1F8481203
:103C5000884261D23248D0F848023149D1F84C123A
:103C6000401A322858D3FF2D54DC2819002851DD82
:103C70002819FF284EDCA520294981F804015A2182
:103C8000274880F80511012F05D1201DC1B2244815
:103C900080F8061104E0A01CC1B2214880F806118A
:103CA00080211F4880F8071180F808514FF0000864
:103CB00009E016F801AB08F105001A4901F800A067
:103CC000001F00F0FF08A045F3DB012F12D1A11C5B
:103CD0001448C01CFDF7F8F88146601D114901F831
:103CE00000904FEA2921A01D0E4A1154E01D00F05A
:103CF000FF0B02E0601D00F0FF0B0949086809682E
:103D00005A46CB6A074998470548D0F84802044903
:103D1000C1F84C02012000900098BDE8F88F000027
:103D2000280100202C02002010B5234890F86402DE
:103D30000E283CD1204890F80E03B0B91E48B0F9C7
:103D4000B002642811DB01201B4981F80E0300201A
:103D5000FDF758F801211848A0F8CC120321A0F86B
:103D6000C6120121A0F8C81225E0134890F80E03EE
:103D7000012820D11048B0F9B0021049C96F084499
:103D8000642818D200200C4981F80E030120FDF7A9
:103D900039F80220FDF730F800210748A0F8CC12CE
:103DA0000321A0F8C6120021A0F8C81203E00020E9
:103DB000014981F80E0310BD2801002054000020A5
:103DC0000146A1F11F00014A105C70471204002057
:103DD00010B52820FFF7F4FF012809D1282000F0B2
:103DE00049FE012803D10021282000F045F93AE1DD
:103DF0002920FFF7E5FF012809D1292000F03AFE2C
:103E00000128F4D10021292000F036F92BE12A20E5
:103E1000FFF7D6FF012809D12A2000F02BFE012848
:103E2000E5D100212A2000F027F91CE11F20FFF72F
:103E3000C7FF012809D11F2000F01CFE0128D6D1A0
:103E400000211F2000F018F90DE12020FFF7B8FF36
:103E5000012809D1202000F00DFE0128C7D1002142
:103E6000202000F009F9FEE07F4890F80C030128BB
:103E700013D17E4890F8CC0000F0010068B12620F4
:103E800000F0F8FD0128B2D10021262000F0F4F85E
:103E90000020754981F80C03E5E0734890F80C03A5
:103EA000022813D1714890F8CC0000F0010068B1ED
:103EB000272000F0DFFD012899D10021272000F004
:103EC000DBF80020684981F80C03CCE0664890F8E4
:103ED00064020E288BD16448B0F9B00264282DDB4F
:103EE0002520FFF76DFF01280CD1252000F0C2FD31
:103EF00001288BD10021252000F0BEF800205C496C
:103F00000860B0E05A4801680068401C584A1060D8
:103F10005648D0F8C400814287D35448D0F8C00036
:103F200054490968884208D90121252000F0A4F8E5
:103F300050480068401C4F49086094E04A48B0F976
:103F4000B0024A49C96FC1F16401884206D2012119
:103F5000252000F091F80020464908604248B0F959
:103F6000B0025F2800DB7EE03F48B0F9B0023F4975
:103F7000C96FC1F15F01884203D20121242000F002
:103F80007BF83948B0F9B0025A2813DB2320FFF739
:103F900017FF012867D13548D0F8A000012862D169
:103FA000232000F067FD01285DD10021232000F0CF
:103FB00063F858E02C48B0F9B0022C49C96FC1F140
:103FC0005A01884203D20121232000F055F82648E7
:103FD000B0F9B002502813DB2220FFF7F1FE0128D0
:103FE00041D12248D0F89C0001283CD1222000F089
:103FF00041FD012837D10021222000F03DF832E0B8
:104000001948B0F9B0021949C96FC1F1500188428D
:1040100003D20121222000F02FF81348B0F9B0029A
:10402000322813DB2120FFF7CBFE01281BD10F48DC
:10403000D0F89800012816D1212000F01BFD01289E
:1040400011D10021212000F017F80CE00648B0F94A
:10405000B0020649C96FC1F13201884203D2012181
:10406000212000F009F810BD280100205400002094
:10407000880400208C040020A0F11F02014B9954F9
:10408000704700001204002070B504460D46164625
:1040900096480068401C95490860954890F864026D
:1040A0000E287DD1924890F80E030028F9D190484F
:1040B000B0F8CC020028F4D18E480068401C8D492D
:1040C00008608D480088FC284DD0FD2814D0FE28BB
:1040D00067D10020FFF758FA012803D10020874953
:1040E000088002E0012085490880FD20824908807F
:1040F000002083490880A9E00020FFF745FA7F49A6
:10410000098888422ED10020FEF708FF7848B0F9D0
:10411000C40200EE900AF8EEE00A30EE600A794838
:104120007749098800EB810080ED000A714800683A
:104130007549734A128841F8220070480078401C83
:1041400000F001006D4908806D480088401C6C49F2
:10415000088008460088062804DB00200880FC2030
:104160006549088072E0674890ED040AD0ED000AC6
:1041700030EE600A654880ED000A90ED000ADFED40
:10418000640A20EE200A80ED000A5F4800695E495B
:104190000968401A00EE100AB8EE400A5B4801E0D8
:1041A00055E04FE0D0ED000A80EE801A80ED001A55
:1041B00090ED000ADFED570A20EE200A80ED000A9C
:1041C000504890ED050AD0ED010A30EE600A4F48E4
:1041D00080ED010A90ED010ADFED4D0A20EE200A84
:1041E00080ED010A4848406947494968401A00EE95
:1041F000100AB8EE400A4548D0ED010A80EE801A58
:1042000080ED011A90ED010ADFED420A20EE200A4E
:1042100080ED010A90ED010AD0ED000A30EE200A8F
:10422000F0EE000A80EE201ABDEEC10A304880EDA3
:10423000C20A0146D1F8080300F0C6F8FE202E4954
:10424000088003E0FE202C49088000BF0FE0FE201C
:1042500029490880264890F864020E2807D00020DB
:10426000244908602249C1F8040320490860214814
:10427000006898B31D4800684FF4FA71B0FBF1F282
:1042800001FB120050BB0020FEF748FE1848B0F9B1
:10429000C40200EE900AF8EEE00A30EE600ABDEECD
:1042A000C00A134880EDC10AD0F804034FF47A71B4
:1042B00048430F49C1F804030846D0F804030D49E8
:1042C0000968B0FBF1F00A49C1F804030846D0F8C8
:1042D0000403C0EB00108000C1F804030448B0F8E8
:1042E000040301B20248A0F8B41270BDB404002067
:1042F00028010020A0040020AC040020AE0400200F
:10430000B0040020980A0020800A0020A4040020A5
:1043100000007A44000070420220254991F80D13F4
:10432000A9B3244991F8CC1001F0020179B301211D
:10433000214A116021490968214A1268B1FBF2F350
:1043400002FB1311E9B91A4991F80D13012900D1A3
:1043500000BF174991F80D13022900D10320194914
:104360000978012900D100201149A1F8CE02154990
:10437000097819B90121134A117002E00021114A8C
:1043800011700E490968491C0C4A11600FE0FFE7E3
:104390000949096801290AD10021074A1160074A21
:1043A0001160084A117000220149A1F8CE2270471D
:1043B00028010020540000209804002090040020D0
:1043C000940400209C040020154991F864120E29E1
:1043D00025D11349B1F8CC1209BB0021104A82F84B
:1043E0000D131049096F41B10E49096F814204DC78
:1043F000012182F80C1382F80D130A49496F71B13B
:104400000849496F81420ADB0649496F49428142A6
:1044100005DC0221024A82F80C1382F80D13704762
:1044200028010020540000202548D0F8D402254956
:104430000968081AB0F57A7F41D3224800682049FC
:10444000C1F8D402084690F8E202401CC1B21C48F0
:1044500080F8E21290F8E2023C280ADB184890F853
:10446000E102401CC1B2164880F8E112002180F838
:10447000E212134890F8E1023C280ADB104890F859
:10448000E002401CC1B20E4880F8E012002180F822
:10449000E1120B4890F8E002182803DB00210848DD
:1044A00080F8E112064890F8E012A0F8B61290F8F1
:1044B000E112A0F8B81290F8E212A0F8BA12704710
:1044C00028010020000000202DE9FF5F0026B346F0
:1044D000002700200390029001900025804681462D
:1044E0000090594C94F80602012870D12079A52833
:1044F0006ED160795A28FBD1B4F80402062868DB33
:10450000B4F80402C01EA179884262D1B4F8040252
:10451000401E211D085C4FF47F4101EA00200090FD
:10452000B4F80402801E211D095C0098084480B282
:104530000090B4F80402411FE01DFCF7C5FC824660
:104540000099514568D1E079802806D0812805D0AE
:10455000822821D083285DD11FE05CE094F809B067
:10456000A079401F584516D100200390207A03906F
:1045700000270EE000200290B81D211D085C02906B
:10458000DDE902123A44D0B200F0EEFA0643781C9C
:1045900087B25F45EEDB3EE03DE0A07A0190A17975
:1045A000881F00EBD0720199B1EB620F31D14FF04F
:1045B000000894F808804FF6FF7000EA082808F415
:1045C0007F48607A40441FFA80F800251EE039E0F9
:1045D0002FE021E04FF000096800C01D211D11F8F7
:1045E00000904FF6FF7000EA092909F47F4968003E
:1045F0000830085C48441FFA80F908EB050188B2CE
:10460000494600F03DFB0643681C85B2019885428F
:10461000E0DB00E000BF00BF41F28831D4F848027F
:1046200088420CD906F0010020B101F043F901F0F5
:10463000EBF904E006F0020008B101F0E5F9002012
:1046400084F80602BDE8FF9F2801002000202A49C7
:1046500091F864120E2949D12749B1F8CC12E9BB6F
:104660002549D1F8D812491C234AC2F8D81211465C
:10467000D1F8D8124FF47A72B1FBF2F302FB1311A6
:1046800061BB1D49D1F8D812B1FBF2F04FF4616162
:10469000B0FBF1F11822B1FBF2F302FB13110AB2E5
:1046A0001549A1F8BC224FF46161B0FBF1F201FBA6
:1046B00012013C22B1FBF2F1B1FBF2F302FB131148
:1046C0000AB20D49A1F8BE224FF46161B0FBF1F2CC
:1046D00001FB12013C22B1FBF2F300E00AE002FB15
:1046E00013110AB20449A1F8C02203E00021024AD2
:1046F000C2F8D812704700002801002010B51948F0
:1047000090F864020E2826D117480078A0B9154801
:10471000B0F9B0021549C96E88420DDB1148B0F9F5
:10472000B002642808DA0620FCF766FB01200E4977
:10473000087000200E4908700D48007880B90948BB
:10474000B0F9B00264280BDB0220FCF755FB012016
:104750000749087004E00020034908700449087004
:1047600010BD000028010020C804002054000020D3
:10477000C904002010B515480078012809D1144853
:10478000007800F0BBF901281ED100200F49087005
:104790001AE010480088012809D10F480088FFF767
:1047A00003FA012810D100200A4908800CE00B48C8
:1047B0000088012808D10A48008800F05BF9012828
:1047C00002D100200549088010BD0000010500202D
:1047D0000205002004050020060500200805002031
:1047E0000A05002010B50446344890F864020E28EB
:1047F00054D13248B0F9AC12B0F9C402814224DA83
:1048000000202F4908802F4908802F480188008800
:10481000401C2D4A10802D48008881424DDD2B48D8
:1048200000881146088001202449A1F86602002072
:10483000A1F868022648008800283ED101202449BA
:1048400008800620FCF7D8FA37E01C48B0F866026A
:10485000012832D100201C4908801D4908801848D1
:1048600001880088401C164A10801A48008881423E
:1048700023DD184800881146088000200F49A1F860
:1048800066020120A1F868020E480088A8B901203C
:104890000C4908800220FCF7AFFA0EE0002007491F
:1048A000A1F8660208490880094908800349A1F86F
:1048B0006802034908800349088010BD28010020D0
:1048C000C0040020C6040020B8040020BA04002060
:1048D000BE040020C204002010B50446364890F8FB
:1048E000640213285FD13548D0F8AC103248B0F9D3
:1048F000AC02814205D832480068401C304908604B
:1049000007E02F48006820B12D480068401E2C4960
:104910000860B4B104EB4400C0EBC4102849096836
:10492000B1EBC00F0DD34FF47A7060432449086097
:104930002448006828B90220FCF75EFA01202149CA
:1049400008601E48D0ED0A0A1B48B0F9AC0200EE20
:10495000100AB8EEC00AF4EEC00AF1EE10FA05DB58
:1049600019480068401C1849086007E016480068AC
:1049700020B115480068401E13490860D4B11248A0
:104980000068B0F5FA7F15D34FF4FA700E4908604D
:104990000C48006801280DD10620FCF72DFA0020F4
:1049A0000849086006E000200549086006490860DB
:1049B0000449086010BD00002801002054000020B8
:1049C000CC040020D4040020D004002010B5002422
:1049D00023482449086001F501700968C860801CFB
:1049E000204909680861A0F20220011F0968486196
:1049F000011F0968886100201A49A1F8040281F8A2
:104A000006024FF6FF70A1F808020020A1F80A0282
:104A1000A1F80C02A1F818025820A1F81A020020EF
:104A2000A1F81C02A1F8140200BF07E00E4850F8DC
:104A300024100E4840F82410601CC4B20A2CF5DB88
:104A4000002405E0FF200A4921F81400601CC4B2CC
:104A5000022CF7DB034A10681268116A884710BD00
:104A600060060020280100207C6500084803002023
:104A70005C04002070B5044600251D48007820B174
:104A8000012806D0022826D124E001201849087008
:104A900025E05B20174908702046E11704EB11510F
:104AA0000913A4EB01318CB2200A124948708C70B2
:104AB0005A20C870104890F82C0008710123052274
:104AC0005020FFF7A1F8012803D100200849087001
:104AD000012504E003E000200549087000BF00BF85
:104AE000012D02D1002002490870284670BD000047
:104AF00086040020810400205400002038B50446BC
:104B000000251848007820B1012806D002281DD1C0
:104B10001BE00120134908701CE05A208DF80000AA
:104B2000652094FBF0F100FB1140C0B28DF801004C
:104B30000123022269465320FFF766F8012803D1BA
:104B4000002008490870012504E003E00020054921
:104B5000087000BF00BF012D02D10020014908707C
:104B6000284638BDE904002070B502460B460020F7
:104B70004249A1F80822A1F80C32B1F80842203CC1
:104B8000072C77D2DFE804F004122232425262008E
:104B900091F80C4204F00F0491F80C52C5F3031580
:104BA0000A2616FB054481F8DC4264E091F80C42C9
:104BB00004F00F0491F80C52C5F303150A2616FBF6
:104BC0000544E5B240F2DD24655454E091F80C420E
:104BD00004F00F0491F80C52C5F303150A2616FBD6
:104BE0000544E5B240F2DE24655444E091F80C42FD
:104BF00004F00F0491F80C52C5F303150A2616FBB6
:104C00000544E5B240F2DF24655434E091F80C42EB
:104C100004F00F0491F80C52C5F303150A2616FB95
:104C20000544E5B24FF43874655424E091F80C4221
:104C300004F00F0491F80C52C5F303150A2616FB75
:104C40000544E5B240F2E124655414E091F80C42C9
:104C500004F00F0491F80C52C5F303150A2616FB55
:104C60000544E5B240F2E2246554012481F8D142C2
:104C700001E0FFE700BF00BF70BD00002801002079
:104C80002DE9F84F81468A46002500260020009035
:104C900000278046FA4CA4F808920FFA8AF0A4F88C
:104CA0000C02B4F808024FF6FF71884275D0B4F8D0
:104CB0000802B0F5205F09D1B4F90C02B0F5205F0D
:104CC00004D101202146A1F8860208E2B4F80802C6
:104CD000B0F5185F18D1B4F90C02B0F5185F13D114
:104CE000E848D0F8980020B90120E649C1F89800BA
:104CF00003E00020E349C1F8980045F002050120D7
:104D0000DF49A1F88402E0E7B4F8080242F2016149
:104D1000884217D1B4F90C02884213D1D948D0F88F
:104D20009C0020B90120D749C1F89C0003E0002075
:104D3000D449C1F89C0045F002050120D049A1F8F2
:104D40008402C2E7B4F8080242F20261884217D135
:104D5000B4F90C02884213D1CA48D0F8A00020B997
:104D60000120C849C1F8A00003E00020C549C1F8EE
:104D7000A00045F002050120C149A1F88402AEE17E
:104D8000B4F80802B0F51C5F08D1B4F90C02BD49B3
:104D9000C1F8800045F00205A1E1FAE3B4F8080289
:104DA00042F20171884207D1B4F90C12B548C0F83B
:104DB000841045F0020592E1B4F8080242F2027153
:104DC000884207D1B4F90C12AE48C0F8881045F0FB
:104DD000020584E1B4F8080242F20371884207D167
:104DE000B4F90C12A748C0F88C1045F0020576E122
:104DF000B4F8080242F20471884207D1B4F90C12E7
:104E0000A048C0F8901045F0020568E1B4F8080227
:104E100042F20571884207D1B4F90C129948C0F8E2
:104E2000941045F002055AE1B4F8080243F201512A
:104E3000884203D1B4F90C028842A0D0B4F8080229
:104E400043F20251884208D1B4F90C02884204D1DD
:104E500001218B48A0F8721241E1B4F8080243F234
:104E60000351884211D1B4F90C0288420DD1844813
:104E700090F864020B288FD18248806F01288BD173
:104E800001217F48A0F87612EFE3B4F8080243F25C
:104E90000451884208D1B4F90C02884204D101219E
:104EA0007748A0F87A12E0E3B4F8080243F205511B
:104EB000884209D1B4F80C027149A1F87C020121A1
:104EC0006F48A0F87E12D0E3B4F8080243F206510E
:104ED000884209D1B4F80C026949A1F88002012185
:104EE0006748A0F88212C0E3B4F8080243F2050153
:104EF000884217D1B4F90C02182190FBF1F201FBA2
:104F00001200C1B25E4880F8E71290F8E11280F812
:104F1000E81290F8E21280F8E9120120584981F86D
:104F2000D002A2E3B4F8080243F20601884218D185
:104F3000534890F8E01280F8E712B4F90C023C21D3
:104F400090FBF1F201FB1200C1B24D4880F8E8126B
:104F500090F8E21280F8E9120120494981F8D00264
:104F600083E3B4F8080243F20701884218D14448A9
:104F700090F8E01280F8E71290F8E11280F8E81259
:104F8000B4F90C023C2190FBF1F201FB1200C1B21A
:104F90003B4880F8E9120120394981F8D00264E3E6
:104FA000B4F80802B0F5585F06D1B4F90C023549DF
:104FB000C86545F0020558E3B4F8080243F2016100
:104FC000884206D1B4F90C122E48016645F002055C
:104FD0004BE3B4F8080243F20261884206D1B4F907
:104FE0000C122848416645F002053EE3B4F8080279
:104FF00043F20461884206D1B4F90C022249C86028
:1050000045F0020531E3B4F8080243F20361884237
:105010000BD1B4F90C021C49C861B4F90C0219494E
:10502000C1F8A40045F002051FE3B4F8080243F2FA
:105030001061884207D1B4F90C021249C1F8A800E6
:1050400045F0020511E3B4F8080243F21161884209
:1050500007D1B4F90C020B49C1F8AC0045F00205C8
:1050600003E3B4F8080243F2126188420ED1B4F9A6
:105070000C020449C1F8B00045F00205F5E2000059
:10508000280100205400002028050020B4F8080260
:1050900043F21361884207D1B4F90C02F849C1F810
:1050A000B40045F00205E0E2B4F8080243F21461EE
:1050B000884207D1B4F90C02F149C1F8B80045F0B3
:1050C0000205D2E2B4F8080243F21561884207D122
:1050D000B4F90C02EA49C1F8BC0045F00205C4E28B
:1050E000B4F8080243F21661884207D1B4F90C0201
:1050F000E349C1F8C00045F00205B6E2B4F8080281
:1051000043F21761884207D1B4F90C02DC49C1F8B7
:10511000C40045F00205A8E2B4F8080243F21861A1
:10512000884207D1B4F90C02D549C1F8C80045F04E
:1051300002059AE2B4F8080243F21961884207D1E5
:10514000B4F90C02CE49C1F8CC0045F002058CE25E
:10515000B4F8080243F20561884206D1B4F90C02A2
:10516000C749886645F002057FE2B4F8080243F2B9
:105170000661884206D1B4F90C02C149C86645F0FF
:10518000020572E2B4F8080243F20761884206D1D0
:10519000B4F90C02BA49086745F0020565E2B4F8B3
:1051A000080243F20861884206D1B4F90C02B449FE
:1051B000486745F0020558E2B4F8080243F2096175
:1051C000884206D1B4F90C02AD49C86245F0020527
:1051D0004BE2B4F8080243F20A61884206D1B4F9FE
:1051E0000C02A749886445F002053EE2B4F80802C3
:1051F00043F20B6188420BD1B4F90C0200EE100AA5
:10520000B8EEC00A9E4880ED030A45F002052CE284
:10521000B4F8080243F20C61884206D1B4F90C02DA
:105220009749886045F002051FE2B4F8080243F28E
:105230000D61884206D1B4F90C029149486045F0ED
:10524000020512E2B4F8080243F20E6188420BD163
:10525000B4F90C0200EE100AB8EEC00A884880EDDE
:105260000A0A45F0020500E2B4F8080242F202110F
:1052700088420AD1B4F80C0280B24AF25A518842EC
:105280008CD10120A4F80E02EFE1B4F8080243F239
:105290000D61884206D1B4F90C027949486045F0A5
:1052A0000205E2E1B4F8080243F20C61884206D13B
:1052B000B4F90C027249886045F00205D5E1B4F8F2
:1052C000080243F20B6188420BD1B4F90C0200EEE4
:1052D000100AB8EEC00A6A4880ED030A45F00205DC
:1052E000C3E1B4F8080243F20E6188420BD1B4F96D
:1052F0000C0200EE100AB8EEC00A614880ED0A0AFE
:1053000045F00205B1E1B4F8080243F20A618842AF
:105310000AD1B4F90C025A49886401205949A1F80C
:10532000600245F00205A0E1B4F8080241F215015F
:10533000884206D1B4F90C025149486445F002058F
:1053400093E1B4F8080243F20961884206D1B4F946
:105350000C024B49086445F0020586E1B4F80802E6
:1053600043F20F6188420DD1B4F90C0244498867B9
:10537000B4F80C02012802D00220FBF743FD45F0EF
:10538000020572E1B4F8080241F20311884208D123
:10539000B4F80C0280B2884290D10120A4F85C02DB
:1053A00063E1B4F8080241F20211884208D1B4F86E
:1053B0000C0280B2884293D10120A4F85A0254E131
:1053C000B4F8080241F20111884208D1B4F80C0285
:1053D00080B2884284D10120A4F8580245E1B4F893
:1053E0000802B0F5045F14D10020A4F81402B4F848
:1053F0001A02B4F90C12884284D00120A4F81602D3
:10540000B4F90C0201288EDCB4F80C02A4F81A02DC
:105410002BE1B4F8080242F20111884214D1B4F829
:105420000C0280B240F2E571884289D10120A4F8D3
:105430001202A4F8140294F81A02FBF7C9FD94F8BA
:105440001A02FBF765FD10E1B4F8080242F20311FD
:10545000884219D1B4F80C0280B240F2E57188425A
:1054600003D10120A4F85002FFE0B4F80C0280B28E
:1054700040F2B241884202D10120A4F85602F4E081
:105480005400002028010020B4F8080242F2041160
:1054900088420AD1B4F80C0280B240F2F23188425C
:1054A00002D10120A4F85E02DFE0B4F8080242F263
:1054B0000511884208D1B4F80C0280B2884202D1AA
:1054C0000120A4F85202D0E0B4F8080241F21051D1
:1054D000884205D1B4F80C1288B2FBF729F8C4E071
:1054E000B4F8080242F2021188420AD1B4F80C0260
:1054F00080B24AF25A51884202D10120A4F80E0229
:10550000B3E0B4F80802B0F5085F43DBB4F8080272
:1055100042F20A2188423DDA0125B4F80802A0F5DA
:105520000850A4F81C0294F81C020090B4F90C2254
:1055300004F50870009940F82120B4F90C72B4F811
:105540001A02A8B900260BE03A463046009900F04E
:10555000CFF83AB230460099FDF7E8FF701CC6B2AA
:10556000012EF1DB3AB230460099FDF7DFFF7CE017
:1055700094F81A12491EC8B23A46009900F0B8F8D9
:1055800094F81A12491EC8B23AB20099FDF7CEFF3C
:105590006BE06EE0B4F8140201285ED1B4F80802A2
:1055A000B0F5145F59DBB4F8080242F20A518842A0
:1055B00053DAB4F90C0241F2FE21884255D10120A0
:1055C000A4F81002012594F808020090B4F81A0219
:1055D00008BB002615E03046FDF790FC8346C01757
:1055E0000BEBD0504FEA60283046009900F0E4FC05
:1055F0000FFA88F3012230460099FDF775FF701C01
:10560000C6B2012EE7DB0FFA88F30122104600999B
:10561000FDF76AFF29E0B4F81A02012825DC94F8A6
:105620001A12491EC8B2FDF769FC8346C0170BEB7E
:10563000D0504FEA602894F81A12491EC8B2009957
:1056400000F0BAFC94F81A12491EC8B20FFA88F397
:1056500001220099FDF748FF07E0B4F80802A128ED
:1056600003D194F80C02044908704FF6FF70A4F8B7
:1056700008022846BDE8F88F7804002038B50446B3
:10568000002518A00068009060B200901648D0F87D
:105690004C021549D1F84812884208D91248D0F86E
:1056A0004C021149D1F84812401A322810D20E4843
:1056B000D0F84C020C49D1F84812884210D20A485E
:1056C000D0F848020849D1F84C12401A322807D3C2
:1056D0000023012269460548007800F0D7FB012528
:1056E000284638BD40000000280100207C0400202E
:1056F00030B5084B01280CDA0A290ADA00EB8004DD
:10570000C4EB80141D4605EB840303F15C0444F8EC
:10571000212030BDF006002010B5424890F8640208
:105720000E2868D13F4890F80E03012863D13D4808
:10573000B0F9B00264285EDB3B48D0F8BC00012819
:1057400059D13A4908603A4800683A490968B0FBBB
:10575000F1F201FB120078B9374801783148A0F81E
:10576000CE1235480078012803D100203249087054
:1057700002E00120304908702D480068401C2C4987
:1057800008602948D0F8C4002749D1F8C010891C06
:1057900048432A49096888420BD3284800682549AC
:1057A0000968B0FBF1F201FB120010B92820FFF7E5
:1057B00065FF22480068401C2049086020480068B6
:1057C000401C1F49086008460068B0F57A7F28D35E
:1057D0001C48006828BB01201A4908601248D0F80C
:1057E000C800012803D10220FBF706FB19E00620C0
:1057F000FBF702FB15E00D480068012811D10020DD
:105800000F4908600F4908600C49086008490860A2
:105810000649086001200849087000210148A0F8E5
:10582000CE1210BD28010020540000200C050020DD
:105830001005002014050020240500201805002074
:105840001C0500202005002010B5184CD4F8480293
:10585000401CC4F8480240F6AC51D4F848028842D3
:1058600023D9FEF787FFFEF72FFE1148D0F8B820A6
:10587000D0F8B4104FF47A70FEF706FCFEF7E6FE9F
:10588000FEF74AFDFEF7D0FDFEF7A2FAFEF74CFA4E
:10589000FFF742FF4FF4FA60FEF7A4FF0449D1F886
:1058A000B000FFF719F8FEF729FF10BD280100200E
:1058B000540000202DE9F84F0027504EBB46B84653
:1058C000B9460020009082460024002500BF72E007
:1058D0000AF0FF00FCF7E4FB07462C4604F10A003F
:1058E00085B207F1340807E02C2C03DA58F8040BD2
:1058F00046F82400601C84B2AC42F5DB2C4604F16F
:105900000A0085B207F15C0807E02C2C03DA58F88E
:10591000040B46F82400601C84B2AC42F5DB2C4634
:1059200004F10B0085B207F1840909E02C2C05DA9B
:10593000B9EC010A06EB840080ED000A601C84B219
:10594000AC42F3DB2C4604F10B0085B207F1B00941
:1059500009E02C2C05DAB9EC010A06EB840080ED95
:10596000000A601C84B2AC42F3DB2C46601C85B29A
:1059700007F1DC0909E02C2C05DAB9EC010A06EB89
:10598000840080ED000A601C84B2AC42F3DB2C463C
:10599000601C85B207F1E00807E02C2C03DA58F808
:1059A000040B46F82400601C84B2AC42F5DB0AF11B
:1059B00001001FFA80FABAF1010F89DBB346A1009A
:1059C0005846FBF781FA0090009846F82400601CC6
:1059D00084B22D2C10DC0A480088401C084908803D
:1059E000FBF740FD0748FBF7E9FC22463146054836
:1059F000FBF75EFDFBF71CFDBDE8F88F4C080020AF
:105A00002401002000F003082DE9F047FC4F4FF07F
:105A100000090026B046B24600240025F948406B34
:105A2000401CF84948632C46651CF74E04E001CE43
:105A300047F82400601C84B2AC42F8DB2C46601CA2
:105A400085B2F04E04E001CE47F82400601C84B219
:105A5000AC42F8DB2C46601C85B2EA4E361D04E0F1
:105A600001CE47F82400601C84B2AC42F8DB2C461F
:105A7000601C85B2E34E083604E001CE47F82400EE
:105A8000601C84B2AC42F8DB2C46601C85B2DFF8A7
:105A9000748308F10C0807E0B8EC010A07EB8400F6
:105AA00080ED000A601C84B2AC42F5DB2C46601C21
:105AB00085B2D44E103604E001CE47F82400601CB5
:105AC00084B2AC42F8DB2C46601C85B2CD4E143655
:105AD00004E001CE47F82400601C84B2AC42F8DB3D
