:020000040800F2
:10000000D82200206902000877020008790200085F
:100010007B0200087D0200087F020008000000004B
:100020000000000000000000000000008102000845
:100030008302000800000000850200088702000813
:100040008902000889020008890200088902000864
:100050008902000889020008890200088902000854
:100060008902000889020008890200088902000844
:10007000C903000805040008410400087D040008C5
:10008000B9040008F5040008890200088902000884
:100090008902000889020008890200088902000814
:1000A0008902000889020008890200088902000804
:1000B00089020008890200088902000889020008F4
:1000C00089020008890200088902000889020008E4
:1000D00089020008B905000849070008D10800088E
:1000E00089020008890200088902000889020008C4
:1000F00089020008890200088902000889020008B4
:10010000000000000000000000000000890200085C
:100110008902000889020008A50500088902000874
:100120008902000889020008890200088902000883
:100130008902000889020008000000000000000099
:1001400089020008890200088902000800000000F6
:10015000000000000000000000000000000000009F
:100160000000000000000000890200088902000869
:1001700089020008000000000000000000000000EC
:10018000000000008902000800F002F800F05CF8AE
:100190000AA090E8000C82448344AAF10107DA45E2
:1001A00001D100F051F8AFF2090EBAE80F0013F0D8
:1001B000010F18BFFB1A43F001031847207C000011
:1001C000407C00000A444FF0000C10F8013B13F093
:1001D000070408BF10F8014B1D1108BF10F8015BA0
:1001E000641E05D010F8016B641E01F8016BF9D193
:1001F00013F0080F1EBF10F8014BAD1C0C1B09D1EA
:100200006D1E58BF01F801CBFAD505E014F8016B5B
:1002100001F8016B6D1EF9D59142D6D370470000ED
:100220000023002400250026103A28BF78C1FBD8FF
:10023000520728BF30C148BF0B6070471FB507F099
:100240002DFC1FBD10B510BD00F05CF81146FFF786
:10025000F5FF03F00FFC00F07AF803B4FFF7F2FFAC
:1002600003BC00F081F800000B48016841F4700104
:1002700001600A480047FEE7FEE7FEE7FEE7FEE70B
:10028000FEE7FEE7FEE7FEE7FEE70000044805495B
:10029000054A064B7047000088ED00E08901000820
:1002A000D80A0020D8220020D8160020D816002016
:1002B0004FF0000200B5134694469646203922BFFF
:1002C000A0E80C50A0E80C50B1F12001BFF4F7AF4A
:1002D000090728BFA0E80C5048BF0CC05DF804EB2C
:1002E000890028BF40F8042B08BF704748BF20F89A
:1002F000022B11F0804F18BF00F8012B7047704798
:1003000070477047754600F02BF8AE460500694609
:10031000534620F00700854618B020B5FFF7B6FF1A
:10032000BDE820404FF000064FF000074FF00008F6
:100330004FF0000B21F00701AC46ACE8C009ACE877
:10034000C009ACE8C009ACE8C0098D46704710B5DB
:100350000446AFF300802046BDE81040FFF77DBFA4
:1003600000487047780A002001491820ABBEFEE71C
:10037000260002007047F0B502460024002300204A
:10038000002500BF1CE00024012012E052F820707C
:10039000461E52F82660B74209DA461E52F8265029
:1003A00052F8207042F8267042F820500124461C72
:1003B000F0B2CE1A8642E9DC04B9F0BD5E1CF3B29D
:1003C0008B42E0DB00BFF8E710B50A4A11680A4A21
:1003D000106801F0DFF860B10749086801F0CEF855
:1003E00006490868064901F07EFF0249086801F0E5
:1003F00035F810BD9C7D0008BC050020800500205C
:100400000601060010B50A4A11680A4A106801F090
:10041000C1F860B10749086801F0B0F806490868FA
:10042000064901F060FF0249086801F017F810BDA5
:100430009C7D0008BC050020800500200601060008
:1004400010B50A4A91680A4A906801F0A3F860B1B1
:100450000749886801F092F806498868064901F062
:1004600042FF0249886800F0F9FF10BD9C7D00083A
:10047000BC050020800500200601060010B50A4AD0
:1004800091680A4A906801F085F860B10749886868
:1004900001F074F806498868064901F024FF024912
:1004A000886800F0DBFF10BD9C7D0008BC050020C3
:1004B000800500200601060010B50A4A51680A4A64
:1004C000506801F067F860B10749486801F056F8D4
:1004D00006494868064901F006FF0249486800F0ED
:1004E000BDFF10BD9C7D0008BC05002080050020DC
:1004F0000601060010B50A4A51680A4A506801F020
:1005000049F860B10749486801F038F80649486879
:10051000064901F0E8FE0249486800F09FFF10BD5F
:100520009C7D0008BC050020800500200601060017
:1005300010B5014600200D4B1B880C4CA4882344A9
:100540000A4C248923449AB2094B1A6040F2E5739D
:100550005343C3F30B02914206D1064B196042F29A
:10056000CD03054C2360012010BD0000F8070020DA
:1005700020000020240000202800002070B1084A3C
:1005800052F8212012680260054A52F82120526870
:100590004260034A52F8212092688260704700004E
:1005A0002C00002010B50121024801F02FFD00F0C1
:1005B00063FC10BD0010004038B55C488068C0691D
:1005C00000900098C0F3C02038B358498868584953
:1005D00001F0AAFD5749886800F0D0FF55498868A6
:1005E00001F00AF85449B1F88C10081A81B2524847
:1005F000C06F018001215048D0F8800001704E4B3F
:10060000B3F88C20D3F888104A4B986800F00CFFA0
:100610004849886800F0B7FF87E00098C0F34010B1
:10062000A0B142498868454901F07EFD3F4988688C
:1006300001F083FE4049CB6FC96F891C3E4AD167E8
:100640001A883D49D1F8881088546EE00098C0F3AC
:10065000C01020B90098C0F3801000284DD0009839
:10066000C0F38010B0B131498868354901F05CFDB4
:100670000021314880F8771090F87100042804D0E8
:100680002D4890F8710005284FD12B48703002F0AA
:1006900077FC4AE00098C0F3C010002845D02349F9
:1006A0008868284901F040FD2348B0F87A10B0F876
:1006B000780081420FDB1D498868224901F0F9FD6D
:1006C0001A4988681E4901F02FFD184988681C499D
:1006D00001F009FE29E0184AB2F87A30B2F87A201F
:1006E000521C94B2144AA2F87A40D2F88420D15C09
:1006F0000E4A906801F066FE17E0009800F00100D5
:1007000078B90098C0F3400058B90098C0F3800051
:1007100038B90098C0F3C00018B90098C0F30020A1
:1007200018B10548703002F0A5FA38BD80050020E8
:100730001A010B00D4050020E0050020050105008A
:10074000060106000701070038B55A484068C0692D
:1007500000900098C0F3C02028B356494868564915
:1007600001F0E2FC5549486800F008FF5349486829
:1007700000F042FF5249B1F85410081A81B25048B3
:10078000406C018001214E48806C01704C4BB3F8E5
:100790005420196D494B586800F046FE4749486897
:1007A00000F0F1FE85E00098C0F3401098B1414997
:1007B0004868444901F0B8FC3E49486801F0BDFD75
:1007C0003F494B6C496C891C3D4A51641A883C492D
:1007D000096D88546DE00098C0F3C01020B90098EE
:1007E000C0F3801000284CD00098C0F38010B0B146
:1007F00030494868344901F097FC0021304880F8BE
:100800003F1090F83900042804D02D4890F83900A2
:1008100005284ED12A48383002F0B2FB49E0009852
:10082000C0F3C010002844D022494868274901F08D
:100830007BFC2348B0F84210B0F8400081420FDB47
:100840001C494868214901F034FD1A4948681E498D
:1008500001F06AFC174948681B4901F044FD28E093
:10086000174AB2F84230B2F84220521C94B2144AED
:10087000A2F84240D26CD15C0E4A506801F0A2FD51
:1008800017E0009800F0010078B90098C0F340002C
:1008900058B90098C0F3800038B90098C0F3C00080
:1008A00018B90098C0F3002018B10548383002F09C
:1008B000E1F938BD800500201A010B00D4050020A5
:1008C000E0050020050105000601060007010700FC
:1008D00038B555480068C06900900098C0F3C02042
:1008E00010B351490868514901F01EFC504908688D
:1008F00000F044FE4E49086800F07EFE4D49898BA9
:10090000081A4C49C968088001204A4909690870D9
:10091000484B9A8B9969464B186800F085FD44490D
:10092000086800F030FE7EE00098C0F34010A0B1EF
:100930003D490868404901F0F7FB3B49086801F070
:10094000FCFC3C49C9680A883A49C968891C394B8A
:10095000D96019468969885465E00098C0F3C010D1
:1009600020B90098C0F38010002845D00098C0F34B
:10097000801098B12C490868304901F0D5FB00205F
:100980002C49C87108464078042803D008464078AE
:10099000052848D1274802F0F3FA44E00098C0F354
:1009A000C01000283FD020490868254901F0BCFB51
:1009B000204840891F49098988420FDB1A49086885
:1009C0001F4901F076FC184908681C4901F0ACFB8E
:1009D00015490868194901F086FC24E0154A538935
:1009E0005289521C134C628122465269D15C0E4AD4
:1009F000106801F0E7FC16E0009800F0010078B9FB
:100A00000098C0F3400058B90098C0F3800038B98E
:100A10000098C0F3C00018B90098C0F3002010B1CE
:100A2000044802F027F938BD800500201A010B00A8
:100A3000D4050020E00500200501050006010600A0
:100A40000701070010B50446074801680068401C0C
:100A5000054A1060B1FBF4F004FB101010B900203F
:100A600001F0FAFE10BD00000800002010B5684833
:100A70000088012813D1674801880088401C654A16
:100A8000108040F6AC50814209DB002060490880AC
:100A90000620614908700020887003F0CBF95E4899
:100AA0000078082871D2DFE800F0040C718283839B
:100AB000144B002003F0CAF80020574981F8460083
:100AC00077E0002003F0C2F80120534981F8460086
:100AD0006FE00120504981F846000846B0F84A000E
:100AE000062190FBF1F04C49A1F8480008468078B7
:100AF00010BB012003F0AAF8002003F0A9F9012897
:100B00000AD1002003F096F9002003F0AFF9012884
:100B100002D19620414908704048007800280EDD37
:100B20003E480078401E3D4908700846007830B9BC
:100B300001203949887002E0002003F087F838E08E
:100B40003548807890B9002003F082F901280DD152
:100B5000002003F06FF9002003F088F9012813D179
:100B60002D49887096202D4908700DE02A4880781C
:100B7000012809D129480078401EC0B227490870D1
:100B800010B901202449087013E011E0012003F09E
:100B90005DF80120204981F846002148B0F8A40002
:100BA000A1F84800002088700320087001E000E0F0
:100BB00000BF00BF022003F04BF901280CD1022036
:100BC00003F038F9022003F051F9B0B900201249BE
:100BD00081F84700086510E0012003F039F9012889
:100BE0000BD103F027F9012003F040F928B90120C7
:100BF000094981F8470000200865074BB3F84820F1
:100C000093F8471093F84600002302F057FF10BDF9
:100C10003A0500203C050020E004002038050020B3
:100C20005400002010B5714890ED010A80ED040ACF
:100C3000D0ED040A008900EE100AB8EE400A20EE5A
:100C4000800A6A4880ED040A90ED040ADFED680A24
:100C500080EE201A80ED041AD0ED040A90ED030A0C
:100C6000B8EEC00A20EE800A80ED040A90ED070A73
:100C7000B8EEC00AD0ED050A20EE200ABCEEC00A8C
:100C800010EE100A59490884084690ED070AB8EE9C
:100C9000C00AD0ED060A20EE200ABCEEC00A10EE13
:100CA000100A4884084690ED040AF0EE000A20EE8F
:100CB000200A80ED090A408C098C401A4B49C96909
:100CC000084400EE100AB8EEC00A4848D0ED090A00
:100CD00080EE801A80ED091AD0ED090A008C00EE32
:100CE000100AB8EE400A80EE801A404880ED0A1AD9
:100CF0009FED400A80ED0B0A008C3C4908860846AF
:100D000090ED090ABCEEC00A10EE100A81B2374815
:100D1000418690ED090ABCEEC00A10EE100A80B2BE
:100D2000401C00EE100AB8EEC00A3048D0ED090AA7
:100D300070EE600A408C2D49098C401A00EE100AB2
:100D4000B8EEC00A20EE800ABCEEC00A10EE100A0F
:100D500081B226488186018C808E084481B2234866
:100D6000C18690ED090ABCEEC00A10EE100A401CC4
:100D700081B21E480187408C1C49098C411A1B48CE
:100D8000808E081A81B219484187C0691749498C79
:100D9000401A00EE100AB8EEC00A1448D0ED090A55
:100DA00080EE801AB1EE410A80ED0F0A90ED0F0A35
:100DB000F1EE400A90ED070AB8EEC00A20EE800A74
:100DC00080ED100A0020094981F8460081F84700AB
:100DD0003220A1F848000B46B3F8482093F847109A
:100DE00093F84600002302F069FE10BDE0040020E5
:100DF0000000B44300000000014908707047000083
:100E0000E004002010B504460E48806F012807D08A
:100E1000042001F011FD02210B48A0F8C81210E0D7
:100E2000012C07D1042001F007FD01210648A0F89C
:100E3000C81206E0042001F0EFFC00210248A0F8EF
:100E4000C81210BD540000201401002010B508483D
:100E5000007801280AD10748006840F6E44188423A
:100E600004D300200249087002F0AAFC10BD000063
:100E7000040000200000002010B500241048006885
:100E8000401C0F49086000BF4AF6AA200D4908809F
:100E900000BF4FF47A70FFF7D5FDFFF7D7FF02F0E0
:100EA00027FD02F0F1FF02F01BFA012802D102F047
:100EB0008BF9044605F026FFFFF7D8FD10BD0000B2
:100EC000000000200030004070B5054600242A488C
:100ED0000078052844D2DFE800F0031A1E2B350005
:100EE0002648B0F8C60248B12448B0F8C602012826
:100EF00004D0062002F0ECFC012803D101201E4999
:100F0000087003E000201C49087001242CE0022036
:100F10001949087028E00B2004F0CAF8012806D10E
:100F20000B20164981F864020320134908701BE066
:100F30000620FFF761FF0120FFF764FF04200E4940
:100F4000087011E0012311220D494FF4405003F0C5
:100F500073FD012803D1002007490870012403E034
:100F600000200549087000BF00BF012C02D10020FD
:100F700001490870204670BDC10400201401002002
:100F8000BE030020F0B502460D46FF21FF240020DD
:100F900009E0167886EA04030A4EF65C86EA010444
:100FA000094EF15C521C2E1EA5F10105F1D1084637
:100FB0004FF6FF7606EA002000F47F400619B0B233
:100FC000F0BD0000D87A0008D87B000870B5002476
:100FD00000258348B0F81A02012801DD002070BD09
:100FE0007F48B0F81A0218B901207E4908700AE05B
:100FF0007B48B0F81A02012805DC794890F81A02FB
:10100000401E784908707848007830B101283CD0FB
:10101000022874D0032871D1A9E07148D0F84C029D
:101020006F49D1F84812884208D96D48D0F84C026F
:101030006B49D1F84812401A322810D26848D0F8CB
:101040004C026749D1F8481288421DD26448D0F852
:1010500048026349D1F84C12401A322814D361482F
:10106000007800EB8000614901EB001000F11404EE
:1010700000230A2221464FF40C5006F0B5F95A48D5
:101080000078401C58490870A6E05548D0F84C023A
:101090005349D1F84812884208D95148D0F84C0237
:1010A0004F49D1F84812401A322810D24C48D0F893
:1010B0004C024B49D1F8481288421DD24848D0F81A
:1010C00048024749D1F84C12401A322814D34548F7
:1010D000007800EB8000454901EB001000F1280486
:1010E00000230A2221464FF4105006F07DF93E48B5
:1010F0000078401C3C4908706EE000E067E038482A
:10110000D0F84C023649D1F84812884208D9344800
:10111000D0F84C023249D1F84812401A322810D285
:101120002F48D0F84C022E49D1F8481288421DD2DF
:101130002B48D0F848022A49D1F84C12401A3228DC
:1011400014D32848007800EB8000284901EB0010F8
:1011500000F13C0400230A2221464FF4085006F017
:1011600043F921480078401C1F49087034E01C48AE
:10117000D0F84C021A49D1F84812884208D91848C8
:10118000D0F84C021649D1F84812401A322810D231
:101190001348D0F84C021249D1F84812884215D2AF
:1011A0000F48D0F848020E49D1F84C12401A3228A4
:1011B0000CD30F4C0023012221464FF4045006F0BB
:1011C00013F909480078401C0749087004E0002022
:1011D00005490870012500BF00BF2846FFE6000052
:1011E0001401002062040020610400207009002026
:1011F0002E0300202DE9F04106460027002400259B
:101200005EBB00BF26E0384601F056FA05460024D2
:1012100006E0002105F1340040F82410601CC4B23F
:101220000A2CF6DB002411E09FED210A05F1840071
:1012300000EB840080ED000A9FED1D0A05F1B0006F
:1012400000EB840080ED000A601CC4B20B2CEBDBC9
:10125000781CC7B2012FD6DB28E0012E26DC701ED9
:10126000C7B2384601F028FA0546002406E00021FE
:1012700005F1340040F82410601CC4B20A2CF6DBDF
:10128000002411E09FED0A0A05F1840000EB8400C0
:1012900080ED000A9FED060A05F1B00000EB840026
:1012A00080ED000A601CC4B20B2CEBDBBDE8F081C2
:1012B0000000000030B5024600210020E2B900BF66
:1012C00017E0002011E0002401EB8103184D05EB2D
:1012D0000313143323F8104001EB810305EB0313D0
:1012E000283323F81040431CD8B20A28EBDB4B1CF0
:1012F000D9B20229E5DB19E0012A17DC531ED9B265
:10130000002011E0002401EB8103094D05EB0313DC
:10131000143323F8104001EB810305EB031328334A
:1013200023F81040431CD8B20A28EBDB30BD000084
:1013300070090020024989680143014A91607047A1
:10134000002004E00249C9680143014AD1607047A6
:10135000002004E04FF0E020006920F004004FF08E
:10136000E02108610A4880680A49B0FBF1F0C0F347
:10137000CF00094908800846008800EB4001C1EB16
:10138000C0104FF6FF7101EAC000044908807047A1
:10139000540A002040420F003E0500204005002076
:1013A00001460F4A12884A434FF0E0235A61002257
:1013B0009A611A46126922F00102521C1A6100BF9A
:1013C0004FF0E022106900F001021AB100F48032FF
:1013D000002AF5D000224FF0E0231A619A6170478D
:1013E0004005002001460F4A12884A434FF0E0238F
:1013F0005A6100229A611A46126922F00102521CB7
:101400001A6100BF4FF0E022106900F001021AB12A
:1014100000F48032002AF5D000224FF0E0231A6158
:101420009A6170473E050020436862F30F034360F2
:10143000C16070470021002200F080520AB10121F2
:1014400000E0002111B1034B186001E0024B58602D
:10145000704700000404024000000240002200F037
:1014600000420AB1024900E00249486070470000AA
:101470000004024000000240016821F00101016007
:101480000021016041686FF30F014160002181601C
:10149000C1603849884204D10F21364A083A516068
:1014A00067E034491431884204D1F021314A083AC6
:1014B00051605EE02F492831884205D14FF47061B8
:1014C0002C4A083A516054E02A493C31884205D1FF
:1014D0004FF47041274A083A51604AE0254950319B
:1014E000884205D14FF47021224A083A516040E009
:1014F00020496431884205D14FF470011D4A083AF1
:10150000516036E01B497831884205D14FF0706157
:10151000184A083A51602CE01749884203D10F213C
:10152000021F116025E014491431884204D1F021D2
:10153000114A121F11601CE00F492831884205D161
:101540004FF470610C4A121F116012E00A493C31DD
:10155000884205D14FF47041074A121F116008E01C
:1015600005495031884204D14FF47021024A121FBC
:10157000116070470800024008040240016821F031
:10158000010101607047016821F00101491C0160FF
:1015900070470000F0B503460024A446002500264D
:1015A000002701F0004401F0E0404FEA107C0CB14C
:1015B0000F4A00E00F4A146804EA010008B101264E
:1015C00000E00026ACF101008000C1401D6805F07C
:1015D0000E0501EA050008B1012700E00027012FF0
:1015E00003D1012E01D10120F0BD0020FCE7000055
:1015F000000402400000024008B50146486800901F
:10160000009880B208BD2DE9F04704460D46164605
:10161000DDE9099ADDF820800B9F2046FFF72CFFBB
:10162000206820F480402060206868F34510206026
:1016300020686AF304102060206820F08000803069
:101640002060206820F040002060206867F38B2035
:101650002060206867F309202060206869F30D305E
:101660002060606863F30F006060E560A660BDE81D
:10167000F08702680A430260704708B5036823F0E8
:101680000103036006E003680093009B03F001037D
:1016900003B900E0F7E700BFC160436862F30F03DE
:1016A0004360036823F001035B1C036008BD08B5B9
:1016B000036823F00103036006E003680093009BC6
:1016C00003F0010303B900E0F7E700BFC16043681E
:1016D00062F30F034360036823F001035B1C0360A4
:1016E00008BD000030B50446042500F061F8054649
:1016F000042D16D10C48006920F00200801C0A4914
:10170000086108464461006920F0400040300861EB
:1017100000F04EF805460448006920F00200024936
:101720000861284630BD0000002002400420094A1C
:10173000D16801F001020AB101200AE001F01002B3
:101740000AB1022005E001F004020AB1032000E022
:1017500004207047002002400348006920F0800008
:1017600080300149086170470020024030B50023F5
:1017700006E00388801C048843EA044410C1801CEE
:10178000141EA2F10105AAB2F3D130BD05490869C2
:1017900000F0800121B10449024A516003495160BF
:1017A000704700000020024023016745AB89EFCD60
:1017B00010B54FF0FF330424FFF7B8FF044603E0F1
:1017C000FFF7B4FF04465B1E012C01D1002BF7D1BB
:1017D00003B90524204610BD2DE9F04104460D460D
:1017E000164604274FF00008FFF7E2FF0746042FD4
:1017F0002CD11848006920F00100401C15490861EF
:1018000000BF28882080FFF7D3FF0746042F09D1A7
:1018100004F102082868000CA8F80000FFF7C8FFD0
:10182000074606E00B48006920F0010009490861FD
:1018300005E0701E86B2241D2D1D002EE1D100BFD3
:101840000448006920F00100024908613846BDE8FB
:10185000F081000000200240F0B5002300244D0775
:10186000ED0E02FA05F308290BDA4E07F70E0F26E4
:10187000BE40056AB5430562056A45EA0304046291
:101880000AE04E07F70E0F26BE40456AB543456293
:10189000456A45EA03044462F0BD2DE9F0430C4675
:1018A000079E00210025002700BF60E04FF0010CDB
:1018B0000CFA01F504EA0507AF4257D14FEA410996
:1018C0004FF0030808FA09F8D0F800C02CEA080C19
:1018D000C0F800C04FEA41094FF0030808FA09F8C0
:1018E000D0F804C02CEA080CC0F804C04FEA410943
:1018F0004FF0030808FA09F8D0F80CC02CEA080CDD
:10190000C0F80CC04FEA41094FF0030808FA09F883
:10191000D0F808C02CEA080CC0F808C04FEA41090A
:101920004FF0020808FA09F8D0F800C04CEA080C99
:10193000C0F800C003FA01F8D0F804C04CEA080C63
:10194000C0F804C04FEA410802FA08F8D0F80CC009
:101950004CEA080CC0F80CC04FEA410806FA08F837
:10196000D0F808C04CEA080CC0F808C0491C10297F
:101970009CD3BDE8F083F0B50B4600210024002580
:1019800000BF25E0012606FA01F403EA0405A5429A
:101990001DD14FEA410C032707FA0CF70668BE4336
:1019A00006604FEA410C032707FA0CF7C668BE43EE
:1019B000C6604FEA410C002707FA0CF706683E4361
:1019C00006604F0002FA07F7C6683E43C660491C2E
:1019D0001029D7D3F0BD2DE9F0430C46079E002116
:1019E0000025002700BF60E04FF0010C0CFA01F564
:1019F00004EA0507AF4257D14FEA41094FF0030807
:101A000008FA09F8D0F800C02CEA080CC0F800C0A9
:101A10004FEA41094FF0030808FA09F8D0F804C06A
:101A20002CEA080CC0F804C04FEA41094FF0030843
:101A300008FA09F8D0F80CC02CEA080CC0F80CC061
:101A40004FEA41094FF0030808FA09F8D0F808C036
:101A50002CEA080CC0F808C04FEA41094FF0010811
:101A600008FA09F8D0F800C04CEA080CC0F800C029
:101A700003FA01F8D0F804C04CEA080CC0F804C01E
:101A80004FEA410802FA08F8D0F80CC04CEA080CFA
:101A9000C0F80CC04FEA410806FA08F8D0F808C0B0
:101AA0004CEA080CC0F808C0491C10299CD3BDE8BA
:101AB000F083028B0A4302837047000045F25551C0
:101AC000064A11801146496821F00701C91C51607E
:101AD000114688604CF6CC411180704700300040C0
:101AE00000F01F02012191404211920002F1E02218
:101AF000C2F800117047000070B5034600200025B1
:101B00000F240B4E366806F4E066C6F5E066C6F3B1
:101B10000720C0F10406F5B2044101FA05F6F0B25F
:101B200002EA040630430607300E024EF05470BD40
:101B30000CED00E000E400E0024949690143014A7C
:101B400051617047001002400249C9690143014ACE
:101B5000D161704700100240024909698143014A7E
:101B60001161704700100240024909690143014AAE
:101B70001161704700100240024989690143014A1E
:101B800091617047001002400249C9688143014ACF
:101B9000D1607047001002400249C9680143014A00
:101BA000D160704700100240F0B5054600210022C8
:101BB000002300240020384E367906F00C0121B1B4
:101BC000042906D0082922D108E0344E344F7E6023
:101BD00021E0334E3668324F7E601CE02E4E746832
:101BE000C4F300447068C0F383400E2801D2801C07
:101BF00000E010202CB12A4E3668760806FB00F370
:101C000002E0264E46437308254E736003E0234EE0
:101C1000234F7E6000BF00BF1F4E3679C6F303110D
:101C2000204E725C1E4E7668D6401D4FBE601A4E26
:101C3000B688C6F302211C4E725C3E46B668D6409A
:101C4000FE60154EB688C6F3C221174E725C3E4642
:101C5000B668D6403E613E46B668FF68BE4204D1D3
:101C60000F4EF6680E4F7E6104E00D4EF66876006A
:101C70000B4F7E610A4EB668094F3F69BE4204D1E0
:101C8000074E3669064FBE6104E0054E36697600A0
:101C9000034FBE61F0BD00000010024000127A0048
:101CA000540A00208C0600209C0600202DE9F04FED
:101CB00082460F4690469946DDF824B00024002560
:101CC0000026A848006840F47000A6490860A648AD
:101CD000006840F00100A449086008464068A34934
:101CE0000840A149486008460068A14908409E494B
:101CF00008600846006820F48020086008464068B4
:101D000020F4FE0048600846C06A20F00F00C86258
:101D10000846006B97490840934908630020886093
:101D2000002F73D11220944908608F48006820F07A
:101D30000100401C8C49086000BF00BF00BF6D1C43
:101D40008948046804F002041CB98C480068854284
:101D5000F5D38548046804F0020414B90120BDE8F5
:101D6000F08F8148406820F0F00070307E49486074
:101D70000846406869F30A204860084640686BF3EB
:101D8000CD2048600846406820F4803048604046D6
:101D90004FEAE87108EB9171C1F38F06102E02DA59
:101DA000B01E86B200E00F266F48406866F395408B
:101DB0006D4948600846006820F0807000F180702E
:101DC00008600024002500BF6D1C6748046804F00B
:101DD00000741CB9694800688542F5D962480468F6
:101DE00004F000740CB90220B9E75F48406820F0A5
:101DF0000300801C5C494860002400BF5A484468C6
:101E000004F00804082CF9D19FE0FFE75648C06AA7
:101E100020F00F005449C8620846006820F47F0093
:101E2000086000240025BAF1010F06D108460068B9
:101E300020F4802000F5802008604B48006820F4E2
:101E4000803000F580304849086000BF6D1C46486E
:101E5000046804F400341CB9484800688542F5D38E
:101E600047487843474908603F48046804F4003411
:101E70000CB9012073E74048006820F010001030D2
:101E80003D4908600846006820F00700801C086093
:101E90003548406820F0F00070303349486008460B
:101EA000406869F30A204860084640686BF3CD201B
:101EB00048600846406820F4003000F50030486073
:101EC0000846406820F4803000F5803048600026E5
:101ED000384607EBD071491098FBF1F18EB2102E05
:101EE00002DAB01E86B200E00F261F48406866F393
:101EF00095401D4948600846006820F0807000F158
:101F0000807008600024002500BF6D1C164804681E
:101F100004F000741CB9194800688542F5D31248D2
:101F2000046804F000740CB9022018E70E484068F9
:101F300020F00300801C0C494860002400BF0A48C0
:101F4000446804F00804082CF9D1064980390A983D
:101F500008600D48091D08600A48FFF725FE0020AB
:101F6000FDE6000088ED00E0001002400CC07FF8A4
:101F7000FFFFF6FECCFC00FF00200240A40600207C
:101F800040420F00540A00200005FA0530B51C46F7
:101F900011B90025058517E0164DA8420BD0164D46
:101FA000A84208D0154DA84205D0154DA84202D030
:101FB000144DA84202D1144DAB6901E0124D6B697A
:101FC000B3FBF1F56D1E0585B0F1804F01D1C26202
:101FD00001E095B2C562056825F4407505600568A5
:101FE00064F30415056000250561056825F0010509
:101FF000056030BD002C014000340140004001402C
:102000000044014000480140540A0020CA4392B2F3
:102010000261704710B504463448844206D1401529
:10202000FFF7BAFD6015FFF7AFFD5EE0B4F1804F3A
:1020300006D10120FFF798FD0120FFF78DFD54E048
:102040002B48844206D10220FFF78EFD0220FFF7C5
:1020500083FD4AE02748844206D10420FFF784FD2F
:102060000420FFF779FD40E02348844206D1102088
:10207000FFF77AFD1020FFF76FFD36E01F4884421E
:1020800006D12020FFF770FD2020FFF765FD2CE032
:102090001B48844206D14014FFF77EFD6014FFF711
:1020A00073FD22E01748844208D14FF48030FFF7D7
:1020B00073FD4FF48030FFF767FD16E0124884424D
:1020C00008D14FF40030FFF767FD4FF40030FFF701
:1020D0005BFD0AE00D48844207D14FF48020FFF7F2
:1020E0005BFD4FF48020FFF74FFD10BD002C014039
:1020F00000040040000800400010004000140040B0
:1021000000340140004001400044014000480140CB
:10211000016821F00101491C01607047C2680A434F
:10212000C26070470162704710B5002200230A0C9C
:1021300001249440A3B2036210BD000010B5044610
:102140001D48844208D14FF48040FFF725FD4FF42D
:102150008040FFF719FD2EE01848844208D14FF463
:102160000030FFF701FD4FF40030FFF7F5FC22E0EF
:102170001348844208D14FF48020FFF7F5FC4FF458
:102180008020FFF7E9FC16E00E48844208D14FF4A6
:102190000020FFF7E9FC4FF40020FFF7DDFC0AE028
:1021A0000948844207D14FF48010FFF7DDFC4FF45B
:1021B0008010FFF7D1FC10BD003801400044004002
:1021C00000480040004C004000500040816821F071
:1021D0004001403181607047816821F08001803189
:1021E000816070470246D069084008B101207047FD
:1021F0000020FCE72DE9F04104460F4615461E4637
:10220000DDF81880206820F0010020600020A06028
:10221000606866F30D306060206868F34A202060D3
:10222000206820F00400001D2060206820F00800D5
:1022300008302060606820F4000000F50000606055
:10224000606900F07F402330606175B1012D15D0C9
:10225000022D1ED1206820F480502060206820F0DC
:10226000805000F18050206014E0206820F48050FD
:102270002060206820F0805020600BE0206820F46F
:10228000805000F580502060206820F08050206051
:1022900000E000BF00BF3946204600F055F84FF07F
:1022A000FF302062206820F00100401C2060BDE863
:1022B000F08130B5002300240022C1F30723CCB203
:1022C000012505FA04F2022B03D1456895434560C8
:1022D00008E0032B03D185689543856002E005681B
:1022E0009543056030BD30B5002300240022C1F3C2
:1022F0000723CCB2012505FA04F2022B03D145686D
:102300001543456008E0032B03D1856815438560BC
:1023100002E005681543056030BD10B50B4600218D
:1023200008E000BF047FC4F3C014002CFAD05C5C4A
:102330008462491C9142F4D310BD08B50146486A35
:1023400000900098C0B208BD70B5002200230024A0
:10235000056825F001050560184DA84202D1184D09
:102360002A6901E0164DEA680588C5F3C03545B114
:102370005500B5FBF1F35500B5FBF1F601FB165422
:1023800005E0B2FBF1F3B2FBF1F501FB1524B4EB70
:10239000510F00D35B1C0588C5F3C03535B1C3F3BD
:1023A00042044FF6F0751D4045EA04039DB2C56036
:1023B000056825F001056D1C056070BD0038014001
:1023C000540A00208162704770B50646002400253B
:1023D0009248806F012803D19148B0F8C80218B123
:1023E0008E48806F012870D08E48007810B1102878
:1023F0006CD1F6E08A48B0F87C02C82804D00320EB
:1024000001F046FA01282BD18448B0F85C0001B2F3
:102410008348A0F8C0128148B0F85C008049A1F858
:102420006A020846B0F9AA027C49D1F880108842B5
:1024300007D37B48B0F9AA127848D0F884008142CB
:1024400001D9002500E001257448D0F8800000285B
:102450007FD17248D0F8840000287AD1012578E035
:102460006F48B0F87C02B0F5967F04D0042001F0EC
:102470000FFA01282BD16948B0F8600001B2684812
:10248000A0F8C0126548B0F860006549A1F86A027A
:102490000846B0F9AA126148D0F88800814207D3F3
:1024A0005F48B0F9AA125D48D0F88C00814201D98A
:1024B000002500E001255948D0F8880088BB57481E
:1024C000D0F88C0068BB012543E09EE097E05448BB
:1024D000B0F87C02B0F5C87F04D0052001F0D8F92F
:1024E00001282AD14D48B0F8640001B24C48A0F848
:1024F000C0124A48B0F864004949A1F86A02084687
:10250000B0F9AA124548D0F89000814207D3444858
:10251000B0F9AA124148D0F89400814202D90025AE
:1025200001E016E001253D48D0F8900088B93B480D
:10253000D0F8940068B901250BE04FF45E7138487B
:10254000A0F8C0123548B0F85C003549A1F86A021D
:102550000025012D3DD10121292002F0A9FC0021F7
:102560002F48A0F8AC12A0F8AE12A0F8B012A0F854
:10257000B21290F8DC12A0F8B41290F8DD12A0F8B4
:10258000B61290F8DE12A0F8B8120021A0F8BA1224
:10259000A0F8BC12A0F8BE12B0F8AA12A0F8C2129D
:1025A0000321A0F8C4120021A0F8C6121B48806FB6
:1025B000012803D00220FEF725FC02E00020FEF7F0
:1025C00021FC01211648A0F8CA12102015490870F4
:1025D00006E020201349087001212A2002F068FC3F
:1025E00012E00E2002F064FD012807D10E200C49F4
:1025F00081F8640200200B490870012404E00020E7
:1026000008490870012400BF00E00124012C02D118
:10261000002004490870204670BD000054000020CE
:1026200014010020C404002070B5054600241F4892
:10263000007805282ED2DFE800F003070B181F00F2
:1026400001201A49087029E002201849087025E085
:10265000132002F02DFD012806D11320144981F822
:10266000640203201149087018E00620FEF7C4FB3D
:1026700004200E49087011E0012311220D494FF486
:10268000405002F0D9F9012803D100200749087011
:10269000012403E000200549087000BF00BF012CA1
:1026A00002D1002001490870204670BDC0040020FE
:1026B00014010020BE03002001460548012906DA66
:1026C00001EB8102C2EB8112034603EB82007047EB
:1026D000A806002070B5054600241748007820B1F0
:1026E00001281AD002281AD118E01448806F78B156
:1026F0001348B0F8C802012803D10020FEF782FB7E
:1027000006E00F48B0F8C80210B90120FEF77AFBC6
:10271000002009490870012405E004E003E00020DE
:102720000549087000BF00BF012C02D100200249FA
:102730000870204670BD0000C20400205400002034
:10274000140100201CB5044603200346482208213A
:10275000CDE900040020FFF7A9FA1CBD10B5FEF773
:10276000F9FD10BD10B504462046FEF719FE10BD58
:1027700010B504462046FEF735FE10BD0146084B55
:1027800053F82120074B33F81100136903400BB1B4
:10279000012300E000230BB9002070470120FCE773
:1027A00060050020247D000838B500240EE014499F
:1027B00051F82400FFF7C0F9124A32F81410124AF7
:1027C00052F824000022FFF7D6F8641C082CEED340
:1027D000002411E00D4951F82400FFF7ADF9002065
:1027E0000B4A009032F814100A4A52F824000023D1
:1027F0000122FFF7F0F8641C072CEBD338BD000072
:10280000047D0008247D000860050020D87C0008B5
:10281000F47C000844050020054B53F82010054BBC
:1028200033F810200B8B13430B8300BF704700005D
:1028300044050020F47C0008054B53F82010054B9C
:1028400033F810204B8B13434B8300BF70470000BD
:1028500044050020F47C0008054B53F82010054B7C
:1028600033F810204B6953404B6100BF70470000A4
:1028700044050020F47C000810B504460F48FFF71B
:10288000C9FB1020FFF760F91020FEF753FD621E10
:1028900000230B490948FFF779FB07220021362066
:1028A000FFF72AF93620FFF71BF901210348FFF74C
:1028B00035FC0248FFF72CFC10BD00000010004062
:1028C00040420F0070B504460D46164621780F4A67
:1028D00052F821000E49FFF727FC21780B4A52F8E5
:1028E00021000C49FFF720FC2178084A52F821000A
:1028F0004FF44071FFF718FC2178074A52F8210085
:1029000032462946FEF7D3FE70BD00008005002048
:102910001A010B0006020800D405002038B5044651
:10292000607808287DD2DFE800F0042345649B9C92
:10293000F1EF2178C34A52F82100FFF7FDF801209A
:1029400000902278C04B33F81210C04B53F822008D
:1029500000230122FEF7A1FF2378BD4DEA5CBD4DA7
:1029600035F81310B94D55F82300FEF775FF66E1F1
:102970002178B44A52F82100FFF7DEF801200090D8
:102980002278B14B33F81210B04B53F822000023D9
:102990000122FEF782FF2378AD4DEA5CAD4D35F89C
:1029A0001310AA4D55F82300FEF756FF204600F0FD
:1029B000E7FA44E12178A84A52F82100FFF7BCF871
:1029C000012000902278A54B33F81210A44B53F845
:1029D000220000230122FEF760FF23789C4DEA5C71
:1029E000A04D35F813109E4D55F82300FEF734FF27
:1029F00025E12178984A52F82100FFF79DF82178C7
:102A0000994A52F82100FFF797F8012000902278A8
:102A1000964B33F81210964B53F8220000230122F4
:102A200000E00BE1FEF7D7FF0120009022788B4BEE
:102A300033F81210854B53F8220000230122FEF7D1
:102A40002CFF2378824DEA5C864D35F81310844DB7
:102A500055F82300FEF700FF204600F0A5FAEEE04F
:102A600000BF21787C4A52F82100FFF765F82178F1
:102A7000744A52F82100FFF75FF821787A4A52F839
:102A80002100FFF759F8012000902278774B33F8A6
:102A90001210774B53F8220000230122FEF79BFF10
:102AA0000120009022786D4B33F812106C4B53F8D4
:102AB000220000230122FEF7F0FE01200090227880
:102AC000614B33F81210614B53F8220000230122AE
:102AD000FEF7E3FE23785E4DEA5C624D35F8131095
:102AE0005F4D55F82300FEF7B7FE2378584DEA5C9A
:102AF000584D35F81310554D55F82300FEF7ACFE30
:102B0000204600F03DFA9AE03DE0FFE72178524A86
:102B100052F82100FFF710F821784A4A52F82100B4
:102B2000FFF70AF80120009022784C4B33F812107E
:102B30004B4B53F8220000230122FEF7AEFE01208A
:102B400000902278404B33F81210404B53F822008B
:102B500000230122FEF7A1FE23783D4DEA5C414DA2
:102B600035F813103E4D55F82300FEF775FE237817
:102B7000374DEA5C374D35F81310344D55F82300C6
:102B8000FEF76AFE5BE02178334A52F82100FEF737
:102B9000D3FF21782B4A52F82100FEF7CDFF217890
:102BA000314A52F82100FEF7C7FF01200090227839
:102BB0002E4B33F812102E4B53F822000023012223
:102BC000FEF709FF012000902278244B33F8121001
:102BD000234B53F8220000230122FEF75EFE012062
:102BE00000902278184B33F81210184B53F822003B
:102BF00000230122FEF751FE2378154DEA5C194DA2
:102C000035F81310164D55F82300FEF725FE2378EE
:102C10000F4DEA5C0F4D35F813100C4D55F823009D
:102C2000FEF71AFE00BF2278104B33F81210104B3B
:102C300053F82200FEF73DFF00BF00E000BF00BFD9
:102C400038BD0000607D00086C7D000898050020FC
:102C5000437D0008727D0008487D0008547D00080F
:102C60008C0500205A7D0008787D0008847D0008CE
:102C7000A40500207FB504462046FFF74FFE2078CC
:102C8000884951F820008849884206D12178874A2E
:102C900052F82100FEF770FF05E02178834A52F8D0
:102CA0002100FEF751FF21787E4A52F82100FFF7FC
:102CB00045FA607900902379E278A5787C4E56F841
:102CC00025102578774E56F82500FFF793FA60789F
:102CD000002855D0A07902283AD12178754A52F8B7
:102CE0002100FEF729FF002001210222CDE9000288
:102CF000CDE902102378354655F8233003F1280238
:102D000023786D4D55F8230000236169FEF77BFCA5
:102D10002178324652F82100FFF75EFA2178674A9F
:102D200052F82100FEF79AFB2178654A505C012297
:102D30000021FEF7E1FE2178614A505CFEF7D0FEEB
:102D400021782A4652F821000221FEF792FC17E072
:102D5000A079012814D121785A4A505C00221146EA
:102D6000FEF7CAFE21784F4A52F821005649FFF774
:102D7000DBF921784B4A52F821005349FFF7B3FAA7
:102D80006078022851D0A07902284FD121784F4A8B
:102D900052F82100FEF7D0FE00200222CDE9000209
:102DA0000290039023783F4D55F8233003F124021D
:102DB0002378474D55F823000023A169FEF723FC33
:102DC0002178384A52F82100FFF700FAA28B2046FA
:102DD000A169FFF777FD2178324A52F821003D4979
:102DE000FFF7A2F92178374A505C01220021FEF753
:102DF00083FE2178334A505CFEF772FE2178294A1F
:102E000052F821003349FFF76EFA2178254A52F82B
:102E100021004FF44071FFF787F92178214A52F8D9
:102E200021004FF44071FFF75EFA3AE0A0790128E3
:102E300037D12178234A505C01220021FEF75CFE45
:102E40002178204A505CFEF74BFE2178154A52F853
:102E500021002149FFF768F92178124A52F8210030
:102E60001C49FFF761F921780E4A52F821001A49EE
:102E7000FFF739FA21780B4A52F821001549FFF77C
:102E800032FA2178074A52F821004FF44071FFF7D7
:102E90004BF92178034A52F821004FF44071FFF7B3
:102EA00022FA7FBD8005002000380140347D0008F3
:102EB000B47D00088C7D0008BC0500209C7D0008C6
:102EC000987D0008407D000807010700A87D0008E4
:102ED000D40500201A010B000501050010B50446B9
:102EE000A079012807D12178084A52F82100084921
:102EF000FFF7DFF909E0A079022806D12178034A1B
:102F000052F821000349FFF7D4F910BD80050020D5
:102F1000050105001A010B0010B50446A07901282F
:102F200007D12178084A52F821000849FFF7DBF958
:102F300009E0A079022806D12178034A52F821003D
:102F40000349FFF7D0F910BD8005002005010500F9
:102F50001A010B0070B504460D460A2D0ADAA57059
:102F6000A278054B53F822102278044B53F8220024
:102F7000FFF7EAF970BD0000B47D0008800500206D
:102F800010B50378054C54F82310054C34F8132081
:102F90004B8B13434B8300BF10BD0000A4050020E2
:102FA000847D00087047000010B504462278044B69
:102FB00033F81210034B53F82200FEF77AFD10BDD0
:102FC000847D0008A40500202DE9F04104460D464B
:102FD0001646E079012809D12178394A52F82100B2
:102FE000FEF70AFB10B10120BDE8F08160780428EB
:102FF00002D06078052802D12046FFF7D5FFA079DE
:1030000030BB0120E07121782E4A52F8210032466F
:103010002946FFF782F96078042802D060780528F5
:1030200013D100BF2178274A52F821004021FFF731
:10303000D9F80028F6D12046FFF7A2FF2178214ACF
:1030400052F821004021FFF76DF80020E07134E0D4
:10305000A079012817D10020608126816069A842EB
:1030600000D065612178174A52F821001649FFF710
:103070005BF82178134A52F821001349FFF733F91E
:103080000120E07119E02178104A52F82100FEF782
:10309000D1F945B922892378094F57F8230061698E
:1030A000FEF7EBFA07E02178054A52F82100324694
:1030B0002946FEF7E2FA0120E071002094E70000C3
:1030C000BC05002080050020070107009C7D00084A
:1030D000F8B5314E00250024002700BF04E0002091
:1030E0004DF82400601CC4B2012CF8DB002540E040
:1030F000192D39DA002405E0611DC8B2FFF79CFBE9
:10310000601CC4B2012CF7DB0A20FFF731FB00245E
:1031100005E0611DC8B2FFF77FFB601CC4B2012C43
:10312000F7DB0A20FFF724FB002410E05DF8240001
:1031300040004DF82400E11DC8B2FFF71FFB074611
:103140005DF8240038444DF82400601CC4B2012C02
:10315000ECDB002405E0611DC8B2FFF76DFB601CCD
:10316000C4B2012CF7DB02E01420FFF701FB681C5E
:10317000C5B21B2DBCDB00240BE05DF8241004EB72
:103180008402C2EB841206EB820001F0FFFA601C9D
:10319000C4B2012CF1DBF8BDA806002070B50024F4
:1031A000084DFFF795FF00BF09E004EB8401C1EB78
:1031B000841105EB810000F083F9601CC4B2012C7E
:1031C000F3DB70BDA806002070B5002400250026A2
:1031D0003F480078052873D2DFE800F00307152682
:1031E000650001203A4908706EE0002405E0611D89
:1031F000C8B2FFF711FB601CC4B2012CF7DB022040
:103200003349087060E0002405E0611DC8B2FFF793
:1032100013FB601CC4B2012CF7DB03202C4908709F
:1032200000202C4908804FE02A480088401C29498A
:1032300008800846008840F28A21884208DB002086
:10324000244908802449087001202149087029E098
:1032500000240DE02148005D012807D1E11DC8B21E
:10326000FFF78CFA012801D1012503E0601CC4B2EC
:10327000012CEFDB00BF012D06D10320144908709B
:103280000020154908700DE0134801780078401CB3
:10329000114A10700A2905DD04200D49087000202C
:1032A0001146087010E0FFF779FF03200849087005
:1032B00000200849088008490870012604E0FFE75B
:1032C00001200349087000BF00BF304670BD0000F8
:1032D0001A0000201C0000201E0000200C0000200E
:1032E0002DE9F0412DED028B00260024002500275A
:1032F00069480088B0F5FA6F7CDC67480088401C9C
:103300006549088065480078082874D2DFE800F035
:10331000041230BCBC234591002405E0611DC8B2F5
:10332000FFF78AFA601CC4B2012CF7DB01205B496D
:103330000870AAE0002405E0611DC8B2FFF76CFA2E
:10334000601CC4B2012CF7DB052054490870002032
:103350005349088099E052480088401C5049088031
:10336000084600880A2802DD02204C4908708CE0DB
:10337000002409E0611DC8B2FFF75EFA0020494948
:1033800021F81400601CC4B2012CF3DB0620434971
:10339000087000204449088077E043480088401CBA
:1033A0004149088000240DE0E11DC8B2FFF7E6F9AD
:1033B00030B93C4830F81400401C3A4921F8140058
:1033C000601CC4B2012CEFDB3748008840F28A2130
:1033D00088422DDB002419E0324830F814003228EE
:1033E0000ADB012004EB4401304A1144304A1278D0
:1033F000885409E04AE047E0002004EB44012B4AEE
:1034000011442B4A12788854601CC4B2012CE3DBAF
:1034100027480078401C2649087008460078032891
:1034200003DB07201D49087002E000201B490870DB
:103430002BE0002422E00026002508E004EB4400F5
:103440001A490844405D3044C6B2681CC5B2032D19
:10345000F4DB304604F09EF941EC180B9FED150BA0
:1034600053EC102B04F0E4FA03D80120134908555B
:1034700002E0002011490855601CC4B2012CDADBBF
:1034800008200649087000E000BF00E00127384628
:10349000BDEC028BBDE8F0810E0000200D00002085
:1034A0001000002014000020120000201600002050
:1034B00019000020CCCCCCCCCCCC00400C0000209F
:1034C00030B52DED028B87B0044600259FED320A02
:1034D000B0EE408AA07801285AD100BF06E0201D36
:1034E00050F825004DF82500681CC5B2072DF6DB05
:1034F00007216846FCF73FFF00202062022506E016
:103500005DF82510206A08442062681CC5B2052DAC
:10351000F6DB0321206A90FBF1F06062002514E0E5
:10352000D4F8E00038B904F1340050F82500616A9D
:10353000814208DC0BE004F1340050F82500616A98
:10354000814200DB03E0681CC5B20A2DE8DB00BF46
:1035500004F1840000EB850090ED000AB0EE408A93
:1035600094ED090AB8EEC00A20EE080AB0EE408ACF
:1035700004F1B00000EB850090ED000A30EE080A7F
:10358000B0EE408A94ED390A84ED3A0A84ED398A26
:1035900007B0BDEC028B30BD0000000001460020EA
:1035A000054A012906DA01EB8103C3EB811302EB23
:1035B0008303586A70470000A806002070B52DEDFF
:1035C000068B04469FED1E0AB0EE408A1D498868AE
:1035D00004F0C9F841EC1A0B9FED1B0B53EC102BB8
:1035E00004F028F941EC190B04F080F808EE900A79
:1035F000174D012C11DA04EB8400C0EB841005EBAD
:10360000800090ED390A04EB8400C0EB841005EBD8
:103610008000D0ED370A30EE608AB4EEE88AF1EE31
:1036200010FA01DBB0EE688A0A48005D18B99FED18
:10363000040AB0EE408AB0EE480ABDEC068B70BDBD
:1036400000000000540000209A9999999999F13F3F
:10365000A80600200C00002030B5544900200023AB
:10366000002200BF9EE000EB8004C4EB801401F850
:103670002400002400EB8005C5EB801501EB8505D7
:10368000AC7000EB8005C5EB801501EB8505EC7097
:1036900000EB8005C5EB801501EB85052C6200EB86
:1036A0008005C5EB801501EB85056C6200230BE0FE
:1036B000002500EB8004C4EB801401EB8404241D7E
:1036C00044F823505C1CE3B20A2BF1DB002216E025
:1036D000374C54F8225000EB8004C4EB801401EB0B
:1036E00084045C3444F82250002500EB8004C4EBD1
:1036F000801401EB84042834A554541CE2B20A2A35
:10370000E6DB00221BE09FED2B0A00EB8004C4EBFC
:10371000801401EB8404843404EB820484ED000AF9
:103720009FED250A00EB8004C4EB801401EB8404B8
:10373000B03404EB820484ED000A541CE2B20B2A7C
:10374000E1DB9FED1E0A00EB8004C4EB801401EB6B
:10375000840484ED370A002400EB8005C5EB801556
:1037600001EB8505C5F8E0409FED140A00EB8004ED
:10377000C4EB801401EB840484ED390A9FED0F0A39
:1037800000EB8004C4EB801401EB840484ED3A0A5E
:10379000012400EB8005C5EB801501EB85056C70FD
:1037A000441CE0B20128FFF65EAF30BDA806002041
:1037B000B07A0008124DA03AE1DA85C3000000009B
:1037C0000C49002000BF11E000EB8002C2EB801228
:1037D00001EB820292ED390A00EB8002C2EB80120B
:1037E00001EB820282ED370A421CD0B20128EBDBEA
:1037F00070470000A806002010B500241348D0F838
:103800004C021249D1F84812884208D90F48D0F822
:103810004C020E49D1F84812401A322810D20B48F7
:10382000D0F84C020949D1F8481288420CD2074816
:10383000D0F848020549D1F84C12401A322803D377
:10384000112001F035FC0124204610BD1401002098
:1038500010B5032400BF07E0204600F009F8204619
:1038600000F026F8601CC4B2072CF5DB10BD000088
:10387000032809DB072807DA0022C11EC1EBC101BA
:10388000024B03EB41010A727047000094070020CD
:1038900001460020032908DB072906DACA1EC2EB0D
:1038A000C202024B03EB4202107A704794070020D9
:1038B000032809DB072807DA0022C11EC1EBC1017A
:1038C000024B03EB41010A7370470000940700208C
:1038D00001460020032908DB072906DACA1EC2EBCD
:1038E000C202024B03EB4202107B70479407002098
:1038F00010B500F001F810BD70B50024464D00BFB2
:1039000085E0C4EBC40115F81100FEF737FFC4EBE6
:10391000C40105EB41014871C4EBC40005EB400054
:103920000079C4EBC40105EB41014979884236D1E5
:10393000C4EBC40005EB40004088401CC4EBC4014C
:1039400005EB41014880C4EBC40005EB4000408911
:10395000401CC4EBC40105EB41014881C4EBC40029
:1039600005EB40004079E8BBC4EBC40005EB400028
:103970004089B0F5FA6F3EDB0120C4EBC40105EBD2
:10398000410148800020C4EBC40105EB410148819E
:103990000120C4EBC40105EB410108732BE0C4EB2B
:1039A000C40005EB40000079C0B9C4EBC40005EBCE
:1039B00040004088C4EBC40105EB410149898842BD
:1039C0000CD1C4EBC40005EB40004088322805DB75
:1039D0000120C4EBC40105EB410108720020C4EBD7
:1039E000C40100E007E005EB41014880C4EBC401DD
:1039F00005EB41014881C4EBC40005EB4000407970
:103A0000C4EBC40105EB41010871601CC4B2042C75
:103A1000FFF677AF70BD0000940700200020144926
:103A200000BF21E0C21CC0EBC00301F8132000223C
:103A3000C0EBC00301EB43035A800122C0EBC0037B
:103A400001EB43031A71C0EBC00301EB43035A714E
:103A5000C0EBC00301EB43039A71C0EBC00301EB61
:103A600043035A70421CD0B20428DBDB70470000CD
:103A70009407002003F0A4FCFFF7D0FF00F07AFACF
:103A8000FFF7EAFD02F016FB00F09EFA00F056FB8D
:103A900001210848FCF772FD07480068FCF748FD63
:103AA00000F070F8FDF7BEF80120FDF7ABF900BF9C
:103AB000FEE70000F8070020240000202DE9F04177
:103AC00006460C4615461F460E480078B04204D004
:103AD0000C480670304600F027F80B480078A042EA
:103AE00004D009480470204600F012F80748008806
:103AF000A84204D005480580284600F031F8BDE80A
:103B0000F081000088060020890600208A06002037
:103B100010B504461CB90320FEF78EFE02E0032018
:103B2000FEF77AFE10BD000070B505460B4C3DB99E
:103B30000220FEF781FE206820F0010020600CE0EA
:103B40000220FEF769FE32263046FDF74BFC00BF2F
:103B5000206820F00100401C206070BD0040014042
:103B60000146064841B1064A92FBF1F2C262C26ABE
:103B70005208826300224262704700000040014008
:103B800040420F0038B52F4C4FF48020FDF7D4FF92
:103B90004FF48030FDF7F0FF012000230246C103FF
:103BA00000902948FDF779FE01220F212648FDF7F4
:103BB00053FE2046FEF72EFA4FF48030FDF7DCFF6F
:103BC0000420FDF7BFFB6420E0623F2020852068D1
:103BD00020F440702060206820F0100020602068F1
:103BE00020F0800080302060206920F001002061FA
:103BF000206A20F020002062206A20F0100010309F
:103C00002062A06920F4407000F58070A061A06976
:103C100020F4E04000F5C040A061A06920F40060FD
:103C200000F50060A061E06A4008A063606C20F4C9
:103C3000004000F500406064206820F00100401C56
:103C4000206038BD004001400004004801460348A0
:103C5000026861F30002026070470000004001400A
:103C600010B5012800DD10BD0A2907DA00EB80033A
:103C7000034C04EB0313283323F8112000BFF2E7B1
:103C80007009002070B5012800DD70BD0A2916DA20
:103C9000012400EB80050B4E06EB051525F81140BD
:103CA00000EB8004354605EB0414143424F811208D
:103CB00000EB800405EB0414283424F8113000BF15
:103CC000E3E700007009002070B5002400254C488F
:103CD000B0F81A02012801DD002070BD4848B0F894
:103CE0001A0218B90120474908700AE04448B0F8A0
:103CF0001A02012805DC424890F81A02401E414988
:103D000008704148007810B1012871D137E03C4873
:103D1000D0F84C023A49D1F84812884208D93848BC
:103D2000D0F84C023649D1F84812401A322810D245
:103D30003348D0F84C023249D1F8481288421DD29B
:103D40002F48D0F848022E49D1F84C12401A322898
:103D500014D32C48007800EB80002C4901EB0010B4
:103D600000F1140401230A2221464FF40C5003F001
:103D70003BFB25480078401C234908703DE0204863
:103D8000D0F84C021E49D1F84812884208D91C4884
:103D9000D0F84C021A49D1F84812401A322810D2F1
:103DA0001748D0F84C021649D1F8481288421DD263
:103DB0001348D0F848021249D1F84C12401A322860
:103DC00014D31048007800EB8000104901EB00107C
:103DD00000F1280401230A2221464FF4105003F079
:103DE00003FB09480078401C0749087005E0FFE71D
:103DF000002005490870012500BF00BF28466CE778
:103E0000140100205E0400205D04002070090020E1
:103E100010B5012800DD10BD0A2907DA00EB800388
:103E2000034C04EB03133C3323F8112000BFF2E7EB
:103E300070090020032807DA00210246C2EBC20203
:103E4000024B03EB4202117270470000CC070020C6
:103E500001460020032906DA0A46C2EBC202024BE1
:103E600003EB4202107A7047CC0700200146012084
:103E7000032906DA0A46C2EBC202024B03EB4202F6
:103E800090797047CC07002010B500F001F810BD04
:103E900070B50024364D00BF67E0C4EBC40115F8CF
:103EA0001100FEF76BFCC4EBC40105EB4101487146
:103EB000C4EBC40005EB40000079C4EBC40105EB82
:103EC00041014979884222D1C4EBC40005EB40008E
:103ED0004088401CC4EBC40105EB41014880C4EBA1
:103EE000C40005EB40004088142816DB1420C4EB06
:103EF000C40105EB41014880C4EBC40005EB400060
:103F00004079C4EBC40105EB4101887105E0002054
:103F1000C4EBC40105EB41014880C4EBC40005EBD0
:103F200040004079C4EBC40105EB41010871C4EBCA
:103F3000C40005EB4000C079C4EBC40105EB4101AE
:103F4000897988420FD0C4EBC40005EB400080792A
:103F5000C4EBC40105EB4101C8710120C4EBC401ED
:103F600005EB41010872601CC4B2032C95DB70BDE7
:103F7000CC0700200020134900BF20E0C0EBC003A5
:103F800001F813000022C0EBC00301EB43035A8089
:103F90000122C0EBC00301EB43031A71C0EBC00365
:103FA00001EB43035A71C0EBC00301EB43039A7169
:103FB000C0EBC00301EB43035A70421CD0B203288C
:103FC000DCDB7047CC0700202DE9F04FAFB00026B6
:103FD000B42102A8FCF76CF90027B046002001903C
:103FE00081460024002582462D2202A95248FDF771
:103FF000BDFB2E980190B02102A8FCF7C3FF0199E8
:10400000884273D100BF00BF00BF8DE009F0FF0000
:10401000FEF752FB06464FF0000A2C4604F10A0058
:1040200085B206F1340717E002A850F8240001C752
:1040300002AB53F824B04FEAEB730BEBD3535B1294
:104040001AB251460AF1010C0CF0FF0A09F0FF0008
:10405000FFF706FE601C84B2AC42E5DB4FF0000ABD
:104060002C4604F10A0085B206F15C0712E002A8B2
:1040700050F8240001C702AB33F824301AB251467D
:104080000AF1010C0CF0FF0A09F0FF00FFF7C0FE77
:10409000601C84B2AC42EADB2C4604F10B0085B212
:1040A00006F1840808E002A800EB840090ED000A05
:1040B000A8EC010A601C84B2AC42F4DB2C4604F18B
:1040C0000B0085B206F1B00808E002A800EB8400FE
:1040D00090ED000AA8EC010A601C84B2AC42F4DB4B
:1040E0002C46601C85B206F1DC0809E020E002A83D
:1040F00000EB840090ED000AA8EC010A601C84B279
:10410000AC42F4DB2C46601C85B206F1E00705E00A
:1041100002A850F8240001C7601C84B2AC42F7DB4F
:1041200009F101001FFA80F9B9F1010FFFF66EAF36
:104130002FB0BDE8F08F000000F00308F0B5AFB07D
:10414000B82101A8FCF7B4F80025002400260027B8
:104150002E2201A9BA48FDF709FB2E9DB42101A822
:10416000FCF710FFA8427DD100BF2146641C01A8C6
:1041700050F82100B34908602146641C01A850F89A
:104180002100B14908602146641C01A850F82100B3
:10419000AD4948602146641C01A850F82100AA4995
:1041A00088602146641C01A800EB810090ED000AA4
:1041B000A54880ED030A2146641C01A850F821009F
:1041C000A14908612146641C01A850F821009E49BC
:1041D0004861261D00BF0BE001A850F82420384696
:1041E000791CCFB29849183141F82020601C84B264
:1041F000B442F1DB2046611C8CB201A901EB8000C6
:1042000090ED000A904880ED0A0A2046611C8CB2AD
:1042100001A951F820008C49C8622046611C8CB26B
:1042200001A951F82000884908632046611C8CB21E
:1042300001A951F82000844948632046611C8CB2D2
:1042400001A951F82000804988632046611C8CB286
:1042500001A951F820007C49C8632046611C8CB23A
:1042600001A900E0EAE051F82000774908642046FF
:10427000611C8CB201A951F82000734948642046A2
:10428000611C8CB201A951F820006F498864204656
:10429000611C8CB201A951F820006B49C865204609
:1042A000611C8CB201A951F82010674801662046B4
:1042B000611C8CB201A951F8201063484166204668
:1042C000611C8CB201A951F820005F498866204624
:1042D000611C8CB201A951F820005B49C8662046D8
:1042E000611C8CB201A951F820005749086720468B
:1042F000611C8CB201A951F820005349486720463F
:10430000611C8CB201A951F820005049C8602046B8
:10431000611C8CB201A951F820004C49C8612046AB
:10432000611C8CB201A951F82000474988672046DA
:10433000611C8CB201A951F820004349C1F88000EA
:104340002046611C8CB201A951F820103E48C0F8EB
:1043500084102046611C8CB201A951F820103A4803
:10436000C0F888102046611C8CB201A951F82010B9
:104370003548C0F88C102046611C8CB201A951F858
:1043800020103148C0F890102046611C8CB201A961
:1043900051F820102C48C0F894102046611C8CB2B3
:1043A00001A951F820002849C1F898002046611C55
:1043B0008CB201A951F820002349C1F89C00204685
:1043C000611C8CB201A951F820001F49C1F8A0005E
:1043D0002046611C8CB201A951F820001A49C1F88D
:1043E000A4002046611C8CB201A951F82000164996
:1043F000C1F8A8002046611C8CB201A951F8200028
:104400001149C1F8AC002046611C8CB201A951F8D9
:1044100020000D49C1F8B0002046611C8CB201A9F2
:1044200051F820000849C1F8B4002046611C8CB244
:1044300001A951F820000449C1F8B8002FB0F0BD1F
:1044400000E003082400002054000020E0040020C5
:1044500070B5002400254C48B0F81A02012801DD8F
:10446000002070BD4848B0F81A0218B9002047492A
:10447000087009E04448B0F81A02012804DC4248F8
:1044800090F81A02414908704148007810B101289B
:1044900071D137E03C48D0F84C023B49D1F8481282
:1044A000884208D93848D0F84C023749D1F8481228
:1044B000401A322810D23448D0F84C023249D1F890
:1044C000481288421DD23048D0F848022E49D1F80F
:1044D0004C12401A322814D32C48007800EB80008C
:1044E0002C4901EB001000F1140400230A2221469C
:1044F0004FF40C5002F078FF25480078401C244906
:1045000008703DE02048D0F84C021F49D1F848120D
:10451000884208D91C48D0F84C021B49D1F84812EF
:10452000401A322810D21848D0F84C021649D1F857
:10453000481288421DD21448D0F848021249D1F8D6
:104540004C12401A322814D31048007800EB800037
:10455000104901EB001000F1280400230A22214633
:104560004FF4105002F040FF09480078401C084901
:10457000087005E0FFE7002005490870012500BF2D
:1045800000BF28466DE700001401002060040020F1
:104590005F040020700900207CB50025002442A1A2
:1045A00003C9CDE900014248007820B1012806D0B6
:1045B00002286DD16BE001203D4908706CE03D4858
:1045C00090F8E3020A2190FBF1F0F02101EA0010DB
:1045D0008DF80500374890F8E3020A2190FBF1F2CC
:1045E00001FB120000F00F009DF805100844C0B256
:1045F0008DF805002F4890F8E4020A2190FBF1F0B5
:10460000F02101EA00108DF806002A4890F8E40233
:104610000A2190FBF1F201FB120000F00F009DF85F
:1046200006100844C0B28DF80600224890F8E50252
:104630000A2190FBF1F0F02101EA00108DF807004B
:104640001C4890F8E5020A2190FBF1F201FB1200F0
:1046500000F00F009DF807100844C0B28DF8070065
:104660000123082269461F2000F056F901280DD1C8
:1046700000200F4908700125002405E00E48015D67
:10468000C01F0155601CC4B2072CF7DB04E003E037
:1046900000200749087000BF00BF012D02D1002093
:1046A0000349087028467CBD5A2205250318560088
:1046B000C504002014010020F303002070B5054656
:1046C00000242F48007820B101283CD0022849D18D
:1046D00047E02C48B0F8CA02012818D12948B0F99F
:1046E000AE0264282BDA00212648A0F8CA12032162
:1046F000A0F8C412A0F8C6120120FCF783FB022028
:10470000FCF77AFB01211F2000F0D2FB17E01D48C7
:10471000B0F8CA0298B901211A48A0F8CA120321B8
:10472000A0F8C4120121A0F8C6120020FCF76AFB11
:104730000620FCF761FB0121202000F0B9FB0120DD
:104740000F49087013E0012311220F494FF4405024
:1047500000F072F9012803D10020094908700124F2
:1047600005E004E0002006490870012400BF00BFF6
:10477000012C02D1002002490870204670BD0000C3
:10478000C304002014010020BE03002010B5C2782D
:10479000072A03DB0022C27001228270B1F1807F00
:1047A00009D36FF07E42521A521C5342C478021D44
:1047B00042F8243003E0C378021D42F82310C27887
:1047C000521CC27010BD000038B5044600251548C3
:1047D000007820B1012806D0022817D115E0012069
:1047E0001049087016E00A2094FBF0F0C0B2009067
:1047F00001231A466946022000F08EF8012803D1F1
:10480000002008490870012504E003E00020054964
:10481000087000BF00BF012D02D1002001490870BF
:10482000284638BDBE0400202DE9F04704460D4659
:1048300016464FF000080027B9463548D0F84C021C
:104840003349D1F84812884208D93148D0F84C028F
:104850002F49D1F84812401A322810D22C48D0F8EB
:104860004C022B49D1F8481288424DD22848D0F842
:1048700048022749D1F84C12401A322844D3FF2C61
:1048800040DC601900283DDD6019FF283ADCA520D6
:104890001F4981F804015A211D4880F80511012E95
:1048A00003D1052180F8061103E00321184880F8A0
:1048B00006118121164880F8071180F8084180F818
:1048C0000951012E0FD1032100F20710FCF75AFB0A
:1048D00007460F4880F80A7138120D4981F80B011C
:1048E0004FF0080801E04FF0060809490868096818
:1048F0004246CB6A074998470548D0F84802044920
:10490000C1F84C024FF0010909F0FF00BDE8F08743
:1049100014010020180200202DE9F84F05460E462C
:1049200014461F464FF00008C246C34600200090C0
:1049300081463F48D0F84C023D49D1F848128842A0
:1049400008D93B48D0F84C023949D1F84812401AEE
:10495000322810D23648D0F84C023549D1F84812E6
:10496000884261D23248D0F848023149D1F84C121D
:10497000401A322858D3FF2D54DC2819002851DD65
:104980002819FF284EDCA520294981F804015A2165
:10499000274880F80511012F05D1201DC1B22448F8
:1049A00080F8061104E0A01CC1B2214880F806116D
:1049B00080211F4880F8071180F808514FF0000847
:1049C00009E016F801AB08F105001A4901F800A04A
:1049D000001F00F0FF08A045F3DB012F12D1A11C3E
:1049E0001448C01CFCF7CEFA8146601D114901F83D
:1049F00000904FEA2921A01D0E4A1154E01D00F03D
:104A0000FF0B02E0601D00F0FF0B09490868096810
:104A10005A46CB6A074998470548D0F848020449E6
:104A2000C1F84C02012000900098BDE8F88F00000A
:104A300014010020180200202DE9F84F05460F460A
:104A4000144698460026B1460020009082468346D0
:104A50004948D0F84C024849D1F84812884208D950
:104A60004548D0F84C024449D1F84812401A32283F
:104A700010D24148D0F84C023F49D1F84812884240
:104A800075D23D48D0F848023B49D1F84C12401A43
:104A900032286CD34FF6FF70854266DA2819002859
:104AA00063DD28194FF6FF7188425EDAA52032498E
:104AB00081F804015A21304880F80511B8F1010F3E
:104AC00006D16000401DC1B22B4880F8061105E0F8
:104AD0006000C01CC1B2284880F806118221264817
:104AE00080F80711290A80F8081180F8095100267A
:104AF0000EE037F8029B4FEA29217000801D1F4A03
:104B000011547000C01D114601F80090701C86B24F
:104B1000A642EEDBB8F1010F16D16000C11C1748A8
:104B2000C01CFCF72FFA82466000801D134901F873
:104B300000A04FEA2A216000C01D104A11546000F5
:104B4000083080B2009003E06000801D80B20090C9
:104B5000094908680968CB6A0849009A98470648D5
:104B6000D0F848020449C1F84C024FF0010B0BF099
:104B7000FF00BDE8F88F000014010020180200209B
:104B800010B5234890F864020E283CD1204890F8D4
:104B90000903C8B91E48B0F9AE02642814DB01202D
:104BA0001B4981F809030020FCF72CF90220FCF7CF
:104BB00023F901211648A0F8CA120321A0F8C41253
:104BC0000121A0F8C61222E0114890F8090301283B
:104BD0001DD10F48B0F9AE020E49C96F08446428D0
:104BE00015D200200A4981F809030120FCF70AF9CF
:104BF00000210748A0F8CA120321A0F8C41200211E
:104C0000A0F8C61203E00020014981F8090310BD95
:104C100014010020540000200146A1F11F00014AA8
:104C2000105C7047FA03002010B52820FFF7F4FF4E
:104C3000012809D1282001F091FA012803D100218F
:104C4000282000F035F92AE12920FFF7E5FF0128A7
:104C500009D1292001F082FA0128F4D1002129206C
:104C600000F026F91BE12A20FFF7D6FF012809D121
:104C70002A2001F073FA0128E5D100212A2000F052
:104C800017F90CE11F20FFF7C7FF012809D11F20EA
:104C900001F064FA0128D6D100211F2000F008F9A4
:104CA000FDE02020FFF7B8FF012809D1202001F006
:104CB00055FA0128C7D10021202000F0F9F8EEE0D4
:104CC000774890F8080301280DD1262001F046FA14
:104CD0000128B8D10021262000F0EAF80020704910
:104CE00081F80803DBE06E4890F8080302280DD134
:104CF000272001F033FA0128A5D10021272000F058
:104D0000D7F80020664981F80803C8E0644890F8A5
:104D100064020E2897D16248B0F9AE02642829DBFC
:104D20002520FFF779FF01280CD1252001F016FA84
:104D3000012888D10021252000F0BAF80020594927
:104D40000860ACE0574801680068401C554A106094
:104D500042F21070814285D353480068052890D2F2
:104D60000121252000F0A4F84F480068401C4E495E
:104D7000086094E04A48B0F9AE024C49C96FC1F1ED
:104D80006401884206D20121252000F091F800201C
:104D9000454908604248B0F9AE025F2800DB7EE07A
:104DA0003F48B0F9AE024149C96FC1F15F01884285
:104DB00003D20121242000F07BF83948B0F9AE027B
:104DC0005A2813DB2320FFF727FF012867D1374834
:104DD000D0F8A000012862D1232001F0BFF90128FA
:104DE0005DD10021232000F063F858E02C48B0F991
:104DF000AE022E49C96FC1F15A01884203D2012186
:104E0000232000F055F82648B0F9AE02502813DBF5
:104E10002220FFF701FF012841D12448D0F89C004F
:104E200001283CD1222001F099F9012837D1002135
:104E3000222000F03DF832E01948B0F9AE021B49DB
:104E4000C96FC1F15001884203D20121222000F034
:104E50002FF81348B0F9AE02322813DB2120FFF7F8
:104E6000DBFE01281BD11148D0F89800012816D18B
:104E7000212001F073F9012811D10021212000F037
:104E800017F80CE00648B0F9AE020849C96FC1F145
:104E90003201884203D20121212000F009F810BD1F
:104EA000140100206C040020700400205400002035
:104EB000A0F11F02014B995470470000FA03002033
:104EC0002DE9F04106460024704F07F12208002525
:104ED0000020FEF773FB6E4880ED000A6D48806E7F
:104EE00048B36B4890ED000ADFED6B0A60EE200AD4
:104EF000684890ED1A0AB8EEC00A80EE801ABDEE3E
:104F0000C10A10EE100A01B2A7F52270A0F8AA1289
:104F10005F4890ED000ADFED600A60EE200A5D4810
:104F200090ED1A0AB8EEC00A80EE801AA7F522703A
:104F300080EDC31A10E0564890ED000ABDEEC00A9D
:104F400010EE100A01B25548A0F8AA12504890ED90
:104F5000000A524880EDC30A504890F864020E28B7
:104F600048D14E48B0F8AA12B0F8C202081A01B2ED
:104F70004A48A0F8AC12B0F9AC02002820DB474840
:104F8000B0F8AC02642110FB01F04449B1F86A1298
:104F900090FBF1F085B23F48C06F41193F48B0F92E
:104FA0008C02814204D33D48B0F98C02A8420DDC4A
:104FB00029B23A48A0F8AE1229B2A0F8B01205E022
:104FC00000213648A0F8AC12A0F8AE123348B0F970
:104FD000B002642804DB64213048A0F8B01211E06C
:104FE0002E48B0F9B00200280CDA00212B48A0F8B6
:104FF000B01207E000212948A0F8AC12A0F8AE12C8
:10500000A0F8B0122648006826490968401AB04244
:1050100016D3234800682349086000240EE037F9BE
:10502000140038F91410884202D001201E4908806B
:1050300038F8140027F81400601C04B2112CEEDBC1
:105040001948008801280FD10123112239464FF455
:105050004050FFF7F1FC012802D1002012490880DE
:105060000020124908800EE010480088401C0F49BB
:10507000088070000988884205DC01200A49088000
:1050800000200A490880BDE8F08100009C03002050
:10509000B00400205400002000007A4414010020D5
:1050A00000000020B8040020AC040020AE04002062
:1050B00038B50446200A8DF80000E0B28DF80100F2
:1050C0000123022269460320FFF726FC38BD0000B9
:1050D00070B504460D461646002C6ED0002DFCD04F
:1050E000002EFAD097480068401C96490860964800
:1050F00090F864020E287DD1934890F809030028A7
:10510000F9D19148B0F8CA020028F4D18F4800685C
:10511000401C8E4908608E480088FC284ED0FD282F
:1051200014D0FE2867D10020FEF7A0FE012803D18D
:1051300000208849088002E0012086490880FD207F
:1051400083490880002084490880AAE00020FEF7F7
:105150008DFE8049098888422ED10020FEF72EFA64
:105160007948B0F9C20200EE900AF8EEE00A30EE9B
:10517000600A7A487849098800EB810080ED000ACE
:10518000724800687649744A128841F822007148D2
:105190000078401C00F001006E4908806E480088CD
:1051A000401C6D49088008460088062804DB002062
:1051B0000880FC206649088073E0C1E0674890EDF4
:1051C000040AD0ED000A30EE600A664880ED000A5D
:1051D00090ED000ADFED640A20EE200A80ED000A5F
:1051E0005F4800695E490968401A00EE100AB8EE8F
:1051F000400A01E056E050E05A48D0ED000A80EE47
:10520000801A80ED001A90ED000ADFED580A20EEBA
:10521000200A80ED000A514890ED050AD0ED010A00
:1052200030EE600A4F4880ED010A90ED010ADFED93
:105230004E0A20EE200A80ED010A4948406948499B
:105240004968401A00EE100AB8EE400A4548D0ED11
:10525000010A80EE801A80ED011A90ED010ADFED5F
:10526000430A20EE200A80ED010A90ED010AD0EDFC
:10527000000A30EE200AF0EE000A80EE201ABDEEA1
:10528000C10A314880EDC10A0146D1F8040300F09B
:105290006FF8FE202E49088003E0FE202C4908808C
:1052A00000BF0FE0FE202A490880274890F86402DA
:1052B0000E2807D00020254908602349C1F80003C3
:1052C000204908602148006898B31E4800684FF4E0
:1052D000FA71B0FBF1F201FB120050BB0020FEF7A7
:1052E0006DF91948B0F9C20200EE900AF8EEE00A32
:1052F00030EE600ABDEEC00A134880EDC00AD0F857
:1053000000034FF47A7148430F49C1F8000308467F
:10531000D0F800030D490968B0FBF1F00A49C1F863
:1053200000030846D0F80003C0EB00108000C1F86D
:1053300000030548B0F8000301B20348A0F8B21218
:1053400070BD0000880400201401002074040020B7
:105350008004002082040020840400203C0A0020F5
:10536000240A00207804002000007A4400007042E3
:10537000124991F864120E291ED11049B1F8CA12CF
:10538000D1B90F49096F39B10D49096F814203DC69
:1053900001210A4A82F808130949496F61B1084995
:1053A000496F814208DB0649496F4942814203DC6B
:1053B0000221024A82F808137047000014010020FD
:1053C000540000202548D0F8D00225490968081A61
:1053D000B0F57A7F41D3224800682049C1F8D00255
:1053E000084690F8DE02401CC1B21C4880F8DE126C
:1053F00090F8DE023C280ADB184890F8DD02401CD9
:10540000C1B2164880F8DD12002180F8DE12134880
:1054100090F8DD023C280ADB104890F8DC02401CC2
:10542000C1B20E4880F8DC12002180F8DD120B4872
:1054300090F8DC02182803DB0021084880F8DD1210
:10544000064890F8DC12A0F8B41290F8DD12A0F82B
:10545000B61290F8DE12A0F8B812704714010020BE
:10546000000000202DE9FF5F0026B3460027002042
:105470000390029001900025804681460090594C8F
:1054800094F80602012870D12079A5286ED16079A0
:105490005A28FBD1B4F80402062868DBB4F80402E9
:1054A000C01EA179884262D1B4F80402401E211DB9
:1054B000085C4FF47F4101EA00200090B4F8040238
:1054C000801E211D095C0098084480B20090B4F849
:1054D0000402411FE01DFBF755FD8246009951452E
:1054E00068D1E079802806D0812805D0822821D093
:1054F00083285DD11FE05CE094F809B0A079401FDB
:10550000584516D100200390207A039000270EE022
:1055100000200290B81D211D085C0290DDE90212F6
:105520003A44D0B200F094FE0643781C87B25F453F
:10553000EEDB3EE03DE0A07A0190A179881F00EB10
:10554000D0720199B1EB620F31D14FF0000894F89D
:1055500008804FF6FF7000EA082808F47F48607A58
:1055600040441FFA80F800251EE039E02FE021E0DA
:105570004FF000096800C01D211D11F800904FF682
:10558000FF7000EA092909F47F4968000830085CC7
:1055900048441FFA80F908EB050188B2494600F03B
:1055A000E3FE0643681C85B201988542E0DB00E01B
:1055B00000BF00BF41F28831D4F8480288420CD9BC
:1055C00006F0010020B101F063FC01F00BFD04E0E6
:1055D00006F0020008B101F005FD002084F8060283
:1055E000BDE8FF9F1401002000202A4991F86412B1
:1055F0000E2949D12749B1F8CA12E9BB2549D1F88A
:10560000D412491C234AC2F8D4121146D1F8D4123C
:105610004FF47A72B1FBF2F302FB131161BB1D4927
:10562000D1F8D412B1FBF2F04FF46161B0FBF1F1AB
:105630001822B1FBF2F302FB13110AB21549A1F8CB
:10564000BA224FF46161B0FBF1F201FB12013C227E
:10565000B1FBF2F1B1FBF2F302FB13110AB20D49F7
:10566000A1F8BC224FF46161B0FBF1F201FB120121
:105670003C22B1FBF2F300E00AE002FB13110AB294
:105680000449A1F8BE2203E00021024AC2F8D41264
:10569000704700001401002010B5194890F864020A
:1056A0000E2826D117480078A0B91548B0F9AE02E7
:1056B0001549C96E88420DDB1148B0F9AE02642865
:1056C00008DA0620FBF798FB01200E49087000203D
:1056D0000E4908700D48007880B90948B0F9AE024B
:1056E00064280BDB0220FBF787FB012007490870C9
:1056F00004E00020034908700449087010BD000050
:10570000140100209C040020540000209D0400206F
:1057100010B515480078012809D11448007800F028
:1057200061FD01281ED100200F4908701AE01048C1
:105730000088012809D10F480088FFF745F80128A3
:1057400010D100200A4908800CE00B48008801288D
:1057500008D10A48008800F001FD012802D100208C
:105760000549088010BD0000D5040020D6040020A3
:10577000D8040020DA040020DC040020DE0400202D
:1057800010B50446344890F864020E2854D13248CB
:10579000B0F9AA12B0F9C202814224DA00202F49DE
:1057A00008802F4908802F4801880088401C2D4A16
:1057B00010802D48008881424DDD2B48008811461D
:1057C000088001202449A1F866020020A1F868029F
:1057D0002648008800283ED1012024490880062060
:1057E000FBF70AFB37E01C48B0F86602012832D10B
:1057F00000201C4908801D4908801848018800883D
:10580000401C164A10801A480088814223DD18483F
:1058100000881146088000200F49A1F86602012087
:10582000A1F868020E480088A8B901200C49088038
:105830000220FBF7E1FA0EE000200749A1F866021A
:1058400008490880094908800349A1F8680203490A
:1058500008800349088010BD140100209404002032
:105860009A0400208C0400208E0400209204002062
:105870009604002010B50446364890F864021328B8
:105880005FD13548D0F8AC103248B0F9AA02814255
:1058900005D832480068401C3049086007E02F48AE
:1058A000006820B12D480068401E2C490860B4B142
:1058B00004EB4400C0EBC41028490968B1EBC00FE9
:1058C0000DD34FF47A70604324490860244800687F
:1058D00028B90220FBF790FA0120214908601E48F0
:1058E000D0ED0A0A1B48B0F9AA0200EE100AB8EE81
:1058F000C00AF4EEC00AF1EE10FA05DB19480068A0
:10590000401C1849086007E01648006820B1154897
:105910000068401E13490860D4B112480068B0F511
:10592000FA7F15D34FF4FA700E4908600C480068EE
:1059300001280DD10620FBF75FFA00200849086016
:1059400006E000200549086006490860044908602F
:1059500010BD00001401002054000020A00400200D
:10596000A8040020A404002030B589B0E34C002531
:1059700094F86202052870D2DFE800F00310213E9F
:10598000460094F8630228B964220F21012001F037
:10599000EDF902E0012084F86202ACE194F8CD0256
:1059A00060B9012207212020FEF73EFF012805D122
:1059B0000020D3490860022084F862029BE194F839
:1059C000CD02012806D10020CD490860032084F8CB
:1059D000620210E0CA480068B0F5FA6F05D2C84804
:1059E0000068401CC649086005E00020C449086002
:1059F000032084F862027EE100F088F9012802D1D8
:105A0000042084F8620276E1BC48B0F886020128DE
:105A100024D1BA4890F864020E2804D1B74890F80F
:105A20000903012804D0B54890F86402132815D161
:105A3000B448007830B90120B24908700620FBF75D
:105A4000DBF905E00020AF4908700220FBF7D4F92C
:105A50000020AA49A1F8860248E148E1B4F884028E
:105A600001281ED1A848B0F8980080B2ADF8040013
:105A7000A548B0F89C0080B2ADF80600A248B0F886
:105A8000A00080B2ADF808000123032201A94FF461
:105A90001850FEF7D1FF0128DED10020A4F88402BF
:105AA00024E140F26E20005B012804D1002140F285
:105AB0006E2001531AE194F864020B281ED140F2C3
:105AC0008220005B012819D1B4F880024AF25A51B1
:105AD00088420ED1B4F88002FCF7A6FD0128BBD1A4
